:020000040800F2
:100000000050002045BE0008B96B0008C36B000813
:1000100000000000000000000000000000000000E0
:10002000000000000000000000000000DD97000854
:100030000000000000000000F1970008CB6B0008F2
:1000400095BE000895BE0008F56B000895BE000837
:1000500095BE0008036C0008196C00082F6C00089E
:1000600095BE000895BE000895BE0008E76B000825
:1000700095BE000895BE000895BE000895BE000814
:1000800095BE000895BE000895BE0008000000005F
:1000900095BE000895BE000895BE000895BE0008F4
:1000A00095BE000895BE000895BE000895BE0008E4
:1000B000D96B000895BE00080000000095BE00083E
:1000C00010B5064C2378002B07D1054B002B02D02E
:1000D000044800E000BF0123237010BDE8090020A0
:1000E0000000000024080108044B10B5002B03D0C9
:1000F0000349044800E000BF10BDC04600000000F6
:10010000EC09002024080108002243088B4274D324
:1001100003098B425FD3030A8B4244D3030B8B4208
:1001200028D3030C8B420DD3FF22090212BA030C11
:100130008B4202D31212090265D0030B8B4219D3F2
:1001400000E0090AC30B8B4201D3CB03C01A524112
:10015000830B8B4201D38B03C01A5241430B8B425A
:1001600001D34B03C01A5241030B8B4201D30B0343
:10017000C01A5241C30A8B4201D3CB02C01A52416A
:10018000830A8B4201D38B02C01A5241430A8B422D
:1001900001D34B02C01A5241030A8B4201D30B0216
:1001A000C01A5241CDD2C3098B4201D3CB01C01A30
:1001B000524183098B4201D38B01C01A524143093A
:1001C0008B4201D34B01C01A524103098B4201D328
:1001D0000B01C01A5241C3088B4201D3CB00C01A95
:1001E000524183088B4201D38B00C01A524143080D
:1001F0008B4201D34B00C01A5241411A00D2014632
:10020000524110467047FFE701B5002000F0F0F8BA
:1002100002BDC0460029F7D076E7704703460B437E
:100220007FD4002243088B4274D303098B425FD3EF
:10023000030A8B4244D3030B8B4228D3030C8B421B
:100240000DD3FF22090212BA030C8B4202D3121201
:10025000090265D0030B8B4219D300E0090AC30BD6
:100260008B4201D3CB03C01A5241830B8B4201D383
:100270008B03C01A5241430B8B4201D34B03C01A6C
:100280005241030B8B4201D30B03C01A5241C30AE4
:100290008B4201D3CB02C01A5241830A8B4201D355
:1002A0008B02C01A5241430A8B4201D34B02C01A3F
:1002B0005241030A8B4201D30B02C01A5241CDD2E4
:1002C000C3098B4201D3CB01C01A524183098B422F
:1002D00001D38B01C01A524143098B4201D34B0118
:1002E000C01A524103098B4201D30B01C01A52417B
:1002F000C3088B4201D3CB00C01A524183088B4202
:1003000001D38B00C01A524143088B4201D34B00EA
:10031000C01A5241411A00D201465241104670475C
:100320005DE0CA0F00D04942031000D34042534061
:1003300000229C4603098B422DD3030A8B4212D321
:10034000FC22890112BA030A8B420CD38901921153
:100350008B4208D3890192118B4204D389013AD090
:10036000921100E08909C3098B4201D3CB01C01A65
:10037000524183098B4201D38B01C01A5241430978
:100380008B4201D34B01C01A524103098B4201D366
:100390000B01C01A5241C3088B4201D3CB00C01AD3
:1003A000524183088B4201D38B00C01A5241D9D2EB
:1003B00043088B4201D34B00C01A5241411A00D26C
:1003C0000146634652415B10104601D34042002B68
:1003D00000D54942704763465B1000D3404201B5E7
:1003E000002000F005F802BD0029F8D016E770479C
:1003F0007047C0468446101C62468C46191C6346F2
:1004000000E0C0461FB500F0F1FF002801D4002134
:10041000C8421FBD10B500F049FF4042013010BD79
:1004200010B500F0E3FF002801DB002010BD012023
:1004300010BDC04610B500F0D9FF002801DD002036
:1004400010BD012010BDC04610B500F06BFF0028A4
:1004500001DC002010BD012010BDC04610B500F029
:1004600061FF002801DA002010BD012010BDC04648
:10047000002B11D1002A0FD1002900D1002802D071
:100480000021C943081C07B4024802A14018029089
:1004900003BDC0465DFFFFFF03B4684601B5029887
:1004A00000F024F8019B9E4602B00CBC7047C04689
:1004B00070B500220C4B04000D00FFF7CFFF0028A1
:1004C00004D12000290001F0B3FD70BD064B0022CD
:1004D0002000290001F064FA01F0AAFD80231B0628
:1004E0009C466044F1E7C0460000E041F0B54F464D
:1004F0004646D646C0B5040082B00D0091469846E7
:100500008B422FD82CD04146484601F051FE29009D
:100510000600200001F04CFE331A9C46203B9A4610
:1005200000D576E04B46524693401F004B4662464C
:1005300093401E00AF4228D825D05346A41BBD418E
:10054000002B00DA7BE000220023009201930123BC
:10055000524693400193012362469340009318E072
:100560008242D0D900220023009201930A9B002BE3
:1005700001D01C605D600098019902B01CBC9046DF
:100580009946A246F0BDA342D7D90022002300928B
:1005900001936346002BE9D0FB0798464146720859
:1005A0000A437B0866460EE0AB4201D1A2420CD85A
:1005B000A41A9D41012024196D410021013E2418F7
:1005C0004D41002E06D0AB42EED9013E24196D41BB
:1005D000002EF8D100980199534600196941002B6B
:1005E00023DB2B005246D3402A006446E2401C0025
:1005F00053461500002B2DDB26005746BE40330026
:1006000026006746BE403200801A99410090019151
:10061000ACE7624620239B1A4A46DA406146130043
:1006200042468A4017001F4380E7624620239B1AF8
:100630002A0066469A402300F3401343D4E76246FB
:10064000202300219B1A0022009101920122DA400E
:10065000019280E72023624626009B1ADE402F008D
:10066000B0466646B74046463B003343C8E7C046FF
:10067000F0B54F464646D6460C000903C0B5490AB8
:10068000470F5E0039431F03DB0F9C4665007B0A62
:10069000570F1F436D0DE40F760DA146C000B846FD
:1006A000D200AB1B64457BD0002B5FDD002E00D059
:1006B000A4E03E00164300D112E15E1E002E00D0E1
:1006C0009EE1871A4346B84280410125C91A40423B
:1006D000091A0B0200D431E149024E0A002E00D162
:1006E0006EE1300001F046FD0300083B1F2B00DDEA
:1006F00061E120223900D21A9E40D1409F400E4332
:100700009D4200DD51E15D1B6B1C1F2B00DD7CE178
:100710002021C91A3D0030008F408840DD40791EFD
:100720008F41310007222843D940002507433A4032
:10073000002A09D00F233B40042B05D03B1DBB42B0
:10074000BF417F42C9191F000B0200D426E26A1C78
:10075000C64B55056D0D9A4200D106E1C44AFF080B
:100760000A40530752023B43120B8EE0002B00D08D
:10077000B8E06B1C5B055B0D012B00DC30E1871AD8
:100780004346B842B641CB1A76429E1B330200D58F
:100790004CE13B003343A1D100220024002570E04E
:1007A000002B00DCE5E0002E00D183E0AF4EB54227
:1007B00060D0802636043743B846382B00DC3EE153
:1007C000434613431F007A1E97413F1887428041DA
:1007D000404209180B0200D4B0E0A44B01359D4201
:1007E00000D1C3E0A24A7B080A4001210F401F4309
:1007F0005108D30707221F433A4099E79B4EB54261
:1008000038D0802636043743B846382B00DDDCE08C
:100810001F2B00DC30E11E004746203EF740BC465F
:10082000202B04D04026F31A46469E403243170040
:1008300063467A1E97411F43CCE0002B00D104E2AF
:100840004346134300D159E14B07C00818438023A6
:10085000C9081B03194208D04546ED081D4204D1C2
:100860004346D008590708432900420FC9007F4D6D
:100870001143C0004B07CA087C49C00803438D429E
:1008800068D012036D05120B6D0D002112031800C4
:10089000130B0A0D12051A43764B2D0513402B43FB
:1008A0005B00E4075B08234319001CBC9046994693
:1008B000A246F0BD3E00164312D05E1E002E00D0B0
:1008C00000E18718874280414144404209180125D0
:1008D0000B0233D5022585E76446330041461000FC
:1008E0001D00C7E7002D00D0DAE00C000443F3D070
:1008F0005C1C00D19FE15D4CA64200D12FE1DB439F
:10090000382B00DD66E11F2B00DD83E1202405008C
:10091000E41A0F00DD40D940A0404346A7405B1ACF
:10092000441EA04198462F433843171ABA429241B9
:1009300043465242991A64463500CAE607223A40B5
:10094000002A00D0F6E64B07CA084849FF083B4397
:100950008D4296D11900114300D19EE180210903F7
:100960000A431203120B414D8FE7150000220023AA
:100970008BE7002B00D0C7E06B1C5F057F0D012FBC
:1009800000DCF1E0394DAB4200D1B9E085180A0036
:10099000854289414244494251180722CF076D08D8
:1009A0002F4349083A401D00C2E607223049ED1A9C
:1009B00031403A40BCE63E002838864000279FE69A
:1009C000380001F0D7FB20308EE6434613431F006A
:1009D0007A1E9741C71BB84280414042091A78E607
:1009E0000E003B0006431343002D61D1002E00D0C2
:1009F000F4E0002B00D11BE164463900100039E718
:100A00001A4FBB427AD03300FFE630001F3DE8406A
:100A1000202B03D04021CB1A9E4037437B1E9F41A1
:100A2000072207433A400021002589E7171A434669
:100A3000BA42B641591A76428E1B64464EE61F2BC7
:100A400000DDADE020264746F61AB740B94617004C
:100A5000B246DF404E463E4337005646B240561E31
:100A6000B24117434246DA408918AEE6FF0700005C
:100A7000FFFF7FFFFFFF0F8020264746F61AB74093
:100A8000B9461700B246DF404E463E433700564651
:100A9000B240561EB24117434246DA40891A99E7DE
:100AA0007F4CA6425BD0802424045B42214327E78D
:100AB000002E0CD1002B00D1CBE064463900100091
:100AC000774DD7E6764FBB4218D0330075E6002B42
:100AD00014D04B07C00818438023C9081B031942D0
:100AE00007D0FC081C4204D17907D0080843E1462E
:100AF00021004C46420FC9001143C000684DB9E6C1
:100B00001D0000220023C0E6002D5BD10D0005432F
:100B100000D1E2E65D1C00D1B0E0614DAE421FD0D5
:100B2000DB43382B71DC1F2B00DD96E020250F0006
:100B3000ED1AAF40B9460700AA46DF404D463D4397
:100B40002F005546A840D940451EA8418844074378
:100B5000BF18974292415142414435003AE66446FB
:100B600035004146100085E60B000343002D00D000
:100B700063E6002BF5D04346134300D17AE687188D
:100B80008742804107224144404209183A400B0203
:100B900000D4D5E6434B01351940C9E5380069E674
:100BA0001E004746203EF740BC46202B04D040267E
:100BB000F31A46469E403243170063467A1E974119
:100BC0001F4302E6364DAE42CAD080252D045B425B
:100BD0002943A6E70843411E8841A6E6002B00D121
:100BE00048E6871A4346B842B641CB1A76429E1B66
:100BF00033024BD5171A4346BA429241591A524210
:100C0000891A072264463A4092E501430F00791E93
:100C10008F419DE71C000F00203CE740202B03D0B4
:100C20004024E31A99400843411E884138437CE63A
:100C30000022002425E6171A4346BA429241591A67
:100C40005242891A6446350043E541461000144D6E
:100C500010E680220024120380E61D000F00203DD4
:100C6000EF40BC46202B03D04025EB1A99400843A7
:100C700007006346781E87411F4369E7871897423C
:100C80009B4141445B42C9183500A3E53B00334317
:100C9000CED0072231003A4052E600231A00F4E594
:100CA000FF070000FFFF7FFFF0B55746DE464E46C8
:100CB0004546E0B5834607000E03480085B09246DE
:100CC0001C00360B400DCD0F002800D19DE0954B48
:100CD000984239D08023F6001B041E43924A7B0FB2
:100CE000334399469446030063440093002300264F
:100CF000FF00029323031B0B98466300E40F524648
:100D00005B0D019400D1B3E086498B4200D19EE097
:100D10004246D100802212040A435146490F114332
:100D20008B46814952468C4600996344CB1A002178
:100D3000D20000932B0063409A460F2E00D905E1A4
:100D40007A4BB6009B599F465B463343994600D089
:100D5000B8E002230826002700900293CAE7CB469A
:100D60003A0002990195019B9A46022927D003294E
:100D700000D180E2012944D06D49009B8C46634438
:100D80001C00002C38DD530700D013E2D2085B466C
:100D9000DB0109D55946674B19408B468021C900B4
:100DA0008C46009B63441C00634B9C4207DC5B4603
:100DB00064055F075B0217431B0B620D02E0002313
:100DC0000027584A00211B031C0B0B0D1B05234356
:100DD00014055A4A380013401C4353466400DB078D
:100DE00064081C43210005B03CBC90469946A246CD
:100DF000AB46F0BD0122524201231B1B382B00DC05
:100E0000ADE1002200230027DCE75B46334399462F
:100E10005ED0002E00D18AE1300001F0ABF9030072
:100E20000B3B1C2B00DD7BE11D22D31A5A4601002F
:100E3000DA4008398E4013005F46334399468F40AD
:100E40003F4B00261B1A00930023029352E74146B2
:100E500053460B433B499B468C46009B634400939F
:100E60005B46002B3BD1022300221E43022161E797
:100E7000434613439B4637D04346002B00D162E1E3
:100E8000404601F077F903000B3B1C2B00DD53E1DA
:100E900002004146083A914088461D21CB1A51462E
:100EA000D9400B0041460B439B46534693401A00E2
:100EB000009B25499C46604403008C466344009394
:100EC000002137E70323B14600900C26029311E777
:100ED0000023009301330426002702930AE703232B
:100EE000C3461E43032125E701331E43002201218F
:100EF00020E700239A46802300271B03094A61E765
:100F0000802349461B03194200D1E2E059461942A9
:100F100000D0DEE00B431B0317001B0BA246014A67
:100F200050E7C046FF07000001FCFFFFEC09010885
:100F3000FF030000FFFFFFFEFE070000FFFF0F8022
:100F40000DFCFFFF01F8FFFFF3030000D94500D9B6
:100F5000CBE000D1C6E03C0048460027009B013BA7
:100F600000935B46160E1B021E4313029846330481
:100F70001B0C9946310C0191FFF74CF94A4642434C
:100F80000B04210C050019438A4207D98919013D38
:100F90008E4203D88A4201D9851E8919881A01997F
:100FA000FFF738F909048C464A4621046446424357
:100FB000090C030021438A4204D98919013B8E425E
:100FC00000D8F1E02D041D43AB464346891A424642
:100FD000280C12041D0C5B46140C22001B041B0C75
:100FE0005A4303946B434443029568431B19150C01
:100FF000EB189C4203D980246402A44660441C0C74
:1010000015041B042D0C20185D19814277D373D071
:101010000C1AA24A7D1BAF42BF419446009B7F42FF
:101020006344E01B1C00864200D1DBE00199FFF71E
:10103000F1F84A4642430B04290C070019438A423F
:1010400007D98919013F8E4203D88A4201D9871EE8
:101050008919881A0199FFF7DDF809044A4689467B
:1010600029044D464243090C030029438A4207D90B
:101070008919013B8E4203D88A4201D9831E8919FE
:101080003F04891A3A00039F1A43380013041B0CCB
:10109000584381460298150C6F43434345434846E5
:1010A000000C8446DB1963449F4203D98020400230
:1010B0008446654448461F0C00041B04000C7D193F
:1010C0001818A94200D284E000D17FE001231A431E
:1010D00057E680234A461B0313431B031B0BAA46F8
:1010E0006F4A6FE6BA4200D935E74B46DC0758082D
:1010F0007B081C43FF0734E70024AF4289D24744F2
:101100004745A4415B466442A4196418013BA642CA
:101110001ED2A0426DD800D1B6E0241A9B4678E7D3
:1011200003005A46283B9A400027914688E65846D5
:1011300001F020F8203072E603005246283B9A4026
:1011400093460022B4E6504601F014F820309AE6A7
:10115000A642E2D1B845DCD9341A9B4659E71F2B89
:1011600065DC504C0099A4465C46614408008C4004
:1011700011008240D940501E82410C4314435A460C
:10118000DA401300620709D00F222240042A05D05A
:101190002200141D9442894149425B181A0262D50B
:1011A0000122002300270DE68A4200D80AE7831EA9
:1011B000891907E70F231340042B00D1E6E5171D1B
:1011C0009742924153429B44FA08E0E5002800D13F
:1011D000D7E57118531EB14227D3A94215D358D071
:1011E0001A0073E7002B00DC04E6012300229B4475
:1011F000CDE502234744474589415B429C4649422D
:1012000089190C19E344241A03E743465F00474554
:101210009B41B8465B429E19023A8919A94200D007
:1012200054E7404500D051E7ABE51A00F6E71F212F
:101230005F4649420C1BE740202B07D01A49009B10
:101240008C46634418005B4683401A43501E82411B
:101250003A4307270023174009D00F2100231140EC
:101260001400042995D122005F075B021B0BD208F2
:1012700017430022A6E5802359461B030B431B039B
:1012800017001B0B064A9DE5BD42B2D89B460024C1
:10129000BFE68045B9D31A00C3E7C046FF0300008C
:1012A000FF0700001E0400003E040000F0B54F469A
:1012B0004646D6468446C0B58046194E18030F03ED
:1012C0004D00000B5C0082463F0B6D0DC90F91462F
:1012D000640DDB0F0120B5420AD0B44203D0A54211
:1012E00001D157450CD01CBC90469946A246F0BD92
:1012F00066463E43F7D1AC42F5D154461443F2D191
:101300000120C845EFD1994207D0002DEBD16346AB
:101310001F433800471EB841E5E70020E3E7C04619
:10132000FF070000F0B54F464646D6464D00C0B513
:101330000E03C90F8A462C491F035C008046360BFA
:101340006D0D91463F0B640DDB0F8D421ED08C421C
:1013500016D0002D1ED130438446002C01D13A43D3
:1013600023D06246002A1AD09A4529D0514602203D
:101370000139084001381CBC90469946A246F0BD90
:1013800039001143E5D002204042F4E73043FAD15E
:10139000AC420FD0002C0FD13A43E7D00CE0012231
:1013A000013B934318000130E5E763460020002B22
:1013B000E1D0DBE73A43E6D19A45D7D1A542D5DC67
:1013C000A54205DBBE42D1D808D00020BE42D2D211
:1013D00050460123013898430130CCE7C845C5D8B1
:1013E0000020C845F4D3C6E7FF070000F0B54F461C
:1013F0004646D6464D00C0B50E03C90F8A462E4953
:101400001F035C008046360B6D0D91463F0B640D4B
:10141000DB0F8D4218D08C4211D0002D18D13043F3
:101420008446002C1ED13A431CD163460020002B79
:1014300030D0514602200139084001382AE03900F5
:101440001143EAD0022025E03043FBD1AC4226D044
:10145000002C26D13A4324D15146022001390840BC
:10146000013817E06246002A0FD09A45E1D1A54223
:1014700005DBBE42DDD819D00020BE420AD250465C
:10148000012301389843013004E00122013B9343DA
:10149000180001301CBC90469946A246F0BD3A4364
:1014A000D0D19A45C5D1A542C3DCE0E7C845C0D834
:1014B0000020C845E3D3EDE7FF070000F0B557462D
:1014C000DE464E464546E0B5834606000F0348001B
:1014D00087B092461D003F0B400DCC0F002800D175
:1014E0006FE0DE4B984238D08023FF001B041F437F
:1014F000730F3B430193DA4B0027994600239B4629
:10150000F60081442B0369001B0B52469846490D97
:10151000ED0F002900D185E0D04B994200D173E056
:101520004346DA0080231B0413435246CC48520F33
:1015300084461343524600206144D200894421006E
:10154000694000918C46012149448A460F2F00D9F9
:1015500090E0C449BF00CF59BF465B463B4301936F
:1015600000D06AE102230827002681469B46C9E78E
:1015700032005846019B61460091022800D175E077
:10158000032800D1FEE1012800D02CE10023002730
:10159000002600253F032A0D3F0BB34812053A43AE
:1015A00002401B051343009A5B00D1075B080B4305
:1015B0003000190007B03CBC90469946A246AB46A5
:1015C000F0BD5B463B43019300D12FE1002F00D1DA
:1015D000A5E1380000F0CEFD03000B3B1C2B00DD25
:1015E00096E11D22D31A5A460100DA405E460839B8
:1015F0008F4013008E403B4301939C4B00271B1AE6
:10160000994600239B467DE7414653460B43934949
:101610008C46E144002B00D01AE10222022017433D
:1016200000228CE7134300D10DE14346002B00D18B
:1016300081E1404600F09EFD02000B3A1C2A00DDCD
:1016400072E10100434608398B4098461D239A1ADF
:101650005346D3401A004346134352468A404946F4
:10166000081A824989468144002068E77B4B00279D
:1016700000268EE7140C1204120C1100370C3604ED
:10168000350C794328008C462E0060436044834625
:1016900056432100300C804658467943404402911D
:1016A000844506D98846802149028C46E04441465B
:1016B00002913604010C360C00048B4681191E0C75
:1016C0001B041B0C0391190079438C4628007543B9
:1016D0006544A8465843050C45447743A94203D9BD
:1016E000802149028C466744290C8C46390000044D
:1016F000000C2D042D186144AB440591594604910A
:1017000001990F043F0C080C3900514342439046A5
:1017100002008C46090C8B4662437C4344445C4483
:10172000A04503D98021490288464244210C8846BD
:1017300061460904090C8C46390059434343704300
:101740007E430F0CF6182404BE19644442448C46B0
:10175000B34203D980235B0298464044029B614612
:101760009846049B370443449B46AB45AD416B42CE
:101770000D0405992D0C8C467F196744FD18A84669
:101780005D462D19A542A44193466442A446C34434
:10179000DC448F42BF4198459B4193459241A4450B
:1017A000A4415B427F421F43360C52426442BF1940
:1017B0002243BF18624638184302D20D03991343DF
:1017C0006A020A43501E82416146ED0D2A434E02D1
:1017D0003243D90100D4B3E001265008324002431D
:1017E000DE0732435B08224C5444002C62DD510773
:1017F00009D00F201040042805D0101D90429241BE
:1018000052429B180200D90104D580241948E400F3
:10181000034054441848844200DD27E75E075B021A
:10182000D2081F0B630516435B0DB2E600239946F1
:101830000133042700269B4664E603230197814673
:101840000C279B465EE6012201201743002276E624
:10185000032303201F43434671E6C046FF070000F1
:1018600001FCFFFF2C0A0108FFFF0F800DFCFFFFAA
:10187000FF030000FFFFFFFEFE070000002380279C
:1018800000933F030026434B83E6019B3200A446AE
:10189000584670E6AC466EE6802701993F03394210
:1018A0002DD03B422BD11F433F033F0B0095160029
:1018B000384B6EE601252D1B382D00DD66E61F2D09
:1018C00040DC35481C005044160082408440EE4005
:1018D000501E824134431443EB40620709D00F226B
:1018E0002240042A05D02200141D94428041404227
:1018F0001B181A023ED501230027002649E680273F
:10190000019B3F031F433F033F0B0094214B40E6E5
:1019100003005A46283B9A40002601926DE658463D
:1019200000F028FC203057E603005246283B9A403E
:101930001300002293E6504600F01CFC20307BE6AA
:10194000CA4650E71F201E004042041BE640202DDF
:1019500003D0124C5444A3401A43501E82413243D8
:1019600007260027164009D00F200023104014003E
:101970000428B9D122005E075B021F0BD208164370
:10198000002306E680273F031F433F033F0B16005B
:10199000004BFEE5FF0700001E0400003E040000AF
:1019A000F8B557464E464546DE460C000903E0B5FD
:1019B000490A460F5F0031431E03DB0F760A9B4640
:1019C000530F3343C84E6500C000E40FD2006D0DC5
:1019D000A24681467F0D9C469046B74200D1B9E0B1
:1019E0005B46012673409B46EE1BA34500D183E076
:1019F000002E63DD002F00D0B1E06346134300D119
:101A000023E1731E002B00D0BAE1861A6346B04270
:101A100080410125C91A4042091A0B0200D447E14E
:101A200049024B0A98464346002B00D189E14046C3
:101A300000F0A0FB0300083B1F2B00DD7CE120220F
:101A40003000D21A4146D040994002009E400A43DD
:101A50009D4200DD6AE15D1B6B1C1F2B00DD94E1E4
:101A6000202110003500C91A8E40DA408840DD4040
:101A7000711E8E4111000722284300250643324083
:101A8000002A09D00F233340042B05D0331DB34265
:101A9000B641764289191E000B0200D43DE26A1C51
:101AA000914B55056D0D9A4200D119E18F4AF60808
:101AB0000A40570752023743120B9BE0002E00D01A
:101AC000C5E06E1C7605760D012E00DC48E1674608
:101AD000861ACB1BB042BF417F42B8461F00434627
:101AE000FF1A3B00B8461B0200D55FE137439AD18D
:101AF00000220024002579E0002E00DCFAE0002F0F
:101B000000D18DE0784B9D4267D0802367461B044F
:101B10001F43BC46382E00DC52E1634613435A1E75
:101B200093411E1886428041404209180B0200D49E
:101B3000BEE06D4B01359D4200D1D2E06B4A730887
:101B40000A4001210E401E435108D30707221E43BD
:101B5000324095E71E00164300D045E740E7624B50
:101B60009D423AD0802367461B041F43BC46382E53
:101B700000DDEBE01F2E00DC3AE133006746203B3E
:101B8000DF403B00202E05D04027BF1B6646BE40ED
:101B9000324390464646721E96413343DAE0002BAC
:101BA00000D114E26346134300D168E180234E075D
:101BB000C008C9081B030643194208D06046C00884
:101BC000184204D163460100D2085E071643F300B1
:101BD0009946C900720F444D11434B46DE08424BF3
:101BE0004F073743CA089D4200D16EE012036D05CE
:101BF000120B6D0D00211203130B0A0D12051A436F
:101C00003B4B2D0513402B435B00E4075B0823434C
:101C1000380019003CBC90469946A246AB46F8BD38
:101C20006346134311D0731E002B00D007E18618C2
:101C30008642804161444042091801250B0237D594
:101C400002257BE73E00614691463500C5E75C46CC
:101C5000002D00D0E1E00B000343F3D0731C00D152
:101C6000ACE1214B9F4200D13AE1F343382B00DD38
:101C70006FE11F2B00DD8CE120250E00ED1AAE4038
:101C8000B0460600AA46DE40454635432E0055467E
:101C9000D940A8406346451EA8415B1A9C46304384
:101CA000161AB242924163465242991A3D00B4E676
:101CB00007223240002A00D0E4E60B4BF6084F071B
:101CC0003743CA089D4200D090E73B00134300D140
:101CD000A6E180231B031A431203120B024D89E76E
:101CE00015000022002785E7FF070000FFFF7FFFA8
:101CF000FFFF0F80002E00D0C7E06B1C5E05760D45
:101D0000012E00DCF0E0C84DAB4200D1B9E08518EF
:101D10000A00854289416244494251180722CE0790
:101D20006D082E43490832401D00A9E6BF49ED1A4F
:101D3000114007223240A3E63200283882400026B4
:101D400086E6300000F016FA203073E6634613434F
:101D50005A1E9341C61AB04280414042091A5CE6BD
:101D60000E00674606431743002D5ED1002E00D0BB
:101D7000F3E0002F00D11EE15C46614691462CE75E
:101D8000A94FBE427BD01E00F1E610001F3DE84087
:101D9000202B03D04021CB1A9A401643731E9E413C
:101DA0000722064332400021002583E7161A6346C6
:101DB000B2428041591A40420B1A98465C4632E6BC
:101DC0001F2E00DDABE02027BB1B9A46634657461B
:101DD000BB40994613004F46F3401F433B00574614
:101DE000BA40571EBA4113436246F240891898E63A
:101DF0002027BB1B9A4663465746BB4099461300B3
:101E00004F46F3401F433B005746BA40571EBA4166
:101E100013436246F240891A9CE7834B9F425FD08E
:101E200080252D047342294320E7002E0CD1002F7A
:101E300000D1D0E05C46614691467B4DCDE67A4FBD
:101E4000BE421CD01E0065E6002F18D0C0084E0709
:101E500006438020C9080003014208D06346DC081D
:101E6000044204D12100DA46D2085E071643F3008B
:101E7000994601245346C900720F11431C406A4D14
:101E8000ABE61D0000220027B4E6002D59D10B005F
:101E9000034300D1D6E6731C00D1B2E0624B9F42EF
:101EA0001ED0F343382B6FDC1F2B00DD97E020257D
:101EB0000E00ED1AAE40B0460600AA46DE4045468A
:101EC00035432E005546A840D940451EA8418C44B4
:101ED0000643B61896429241514261443D0025E6C0
:101EE0003D006146914678E60B000343002D00D08B
:101EF00055E6002BF5D06346134300D16DE68618F6
:101F00008642804161444042091800220B0200D4FD
:101F1000D0E6464B01351940B2E5B1465DE63300E7
:101F20006746203BDF403B00202E05D04027BF1BEB
:101F30006646BE40324390464646721E9641334343
:101F4000EFE5394B9F42CBD080252D0473422943C6
:101F5000A8E70843411E8841A2E6002F00D13CE6D5
:101F60006346861ACF1AB0429B415B42FB1A9846E1
:101F70001B024ED5161A6346B2429241591A52427A
:101F8000891A5C4600227BE501430E00711E8E41DA
:101F90009FE71D000E00203DEE40B046202B04D0F0
:101FA0004025EB1A99400843814648464346411E66
:101FB0008841184374E60022002417E6161A634687
:101FC000B2429241591A5242891A3D0025E56146B2
:101FD0009146154D01E680220024120379E61D008A
:101FE0000E00203DEE40B046202B04D04025EB1AD9
:101FF0009940084381464E464346711E8E411E431A
:1020000067E7861896429B4161445B42C9183D00D0
:102010008CE547463743CED007224146324049E659
:1020200000273A00E6E5C046FF070000FFFF7FFFFC
:1020300030B5144D0A034B00120B5B0DC90F002481
:10204000AB4211DD104CA34210DC80246403224318
:102050000E4CE41A1F2C0CDD0D48C31ADA40130095
:102060005C42002900D11C00200030BD094BCC1877
:10207000FAE7094DE040AC4663449A40130003433D
:10208000EEE7C046FE0300001D040000330400001C
:1020900013040000FFFFFF7FEDFBFFFF70B500287A
:1020A0002DD0C317C5185D40C40F280000F062F89A
:1020B000154B1B1A5B055B0D0A2815DD0B38854097
:1020C00000222D032D0B002110002D030A0D2D0BD6
:1020D00012052A430D4D1B052A4013435B00E407FC
:1020E0005B082343190070BD02002900153291409E
:1020F0000A000B21081AC5402D032D0BE3E700242D
:10210000002300250022DEE71E040000FFFF0F80F1
:1021100010B5041E25D000F02DF8144B1B1A5B05DA
:102120005B0D0A2812DD0B38844000222403240BA7
:102130000021100024030A0D240B120522430C4C2D
:102140001B05224013435B00590810BD020021000B
:10215000153291400A000B21081AC4402403240BB5
:10216000E6E7002300240022E2E7C0461E04000048
:10217000FFFF0F801C2101231B04984201D3000C98
:1021800010391B0A984201D3000A08391B099842EA
:1021900001D30009043902A2105C40187047C04600
:1021A0000403020201010101000000000000000020
:1021B00010B5002903D1FFF7DDFF203002E0081C35
:1021C000FFF7D8FF10BDC04670B50C4E0D031C03C1
:1021D00049005B002D0B490D240B5B0DB14208D06B
:1021E000064900208B4203D114432000441EA04125
:1021F00070BD05430120002DFAD1F1E7FF07000073
:1022000080B500AF074B1A68064B40210A431A609D
:10221000032004F0C9FA04F0DDFA00231800BD46DB
:1022200080BDC0460020024080B500AF034B1B6854
:102230005A1C024B1A60C046BD4680BD040A0020ED
:1022400080B500AF024B1B681800BD4680BDC0467C
:10225000040A002080B500AF044B5A68034B0121EB
:102260008A435A60C046BD4680BDC0460058014002
:1022700080B500AF044B5A68034B02218A435A6071
:10228000C046BD4680BDC0460058014080B500AF85
:10229000044B5A68034B04218A435A60C046BD462A
:1022A00080BDC0460058014080B582B000AF786064
:1022B0007B68002B01D1012353E17B689B6D002BD0
:1022C0000AD17B680022DA657B6854220021995488
:1022D0007B68180000F056F97B689B6D1022134054
:1022E00005D17B681B689B68042213400BD07B6878
:1022F0009B6D10221A437B689A657B6854220021EB
:10230000995401232DE17B689B6D984A134002226A
:102310001A437B689A657B681B689B68032213409D
:10232000012B08D17B681B681B6801221340012B1D
:1023300001D1012300E00023002B49D17B685A68BA
:10234000C0231B069A420BD07B685A688023DB05AA
:102350009A4205D07B685A6880231B069A4211D1A5
:102360007B681B681A697B681B68920092081A6177
:102370007B681B6819697B685A687B681B680A431D
:102380001A6114E07B681B681A697B681B689200FD
:1023900092081A61764B1A68754B76490A401A60A2
:1023A000734B19687B685A68714B0A431A607B68E3
:1023B0001B68DA687B681B6818218A43DA607B68CF
:1023C0001B68D9687B689A687B681B680A43DA6077
:1023D000674B1A68664B68490A401A60644B196873
:1023E0007B689B6B5A06624B0A431A607B681B68CA
:1023F0009A6880235B05134008D17B681B689A6844
:102400007B681B68802149050A439A607B681B68CA
:10241000DA687B681B6859490A40DA607B681B6888
:10242000D9687B68DA687B681B69022B01D10423B9
:1024300000E000231A437B681B6A5B031A437B6836
:102440001B6B5B001A437B685B6B1A437B689B6961
:102450009B031A437B68DB69DB031A437B681B68B9
:102460000A43DA607B689A6AC223FF339A420BD030
:102470007B681B68D9687B689A6A7B68DB6A1A4349
:102480007B681B680A43DA607B685B6A012B19D1A1
:102490007B681B6A002B09D17B681B68DA687B6844
:1024A0001B68802149020A43DA600BE07B689B6D60
:1024B00020221A437B689A657B68DB6D01221A43F0
:1024C0007B68DA657B681B6C012B1FD17B681B68FE
:1024D0001A697B681B682A490A401A617B681B6875
:1024E00019697B685A6C7B689B6C1A437B68DB6C50
:1024F0001A437B681B680A431A617B681B681A6968
:102500007B681B6801210A431A610DE07B681B6828
:102510001B690122134007D07B681B681A697B681E
:102520001B6801218A431A617B681B685A697B68B2
:102530001B6807218A435A617B681B6859697B685D
:10254000DA6B7B681B680A435A617B680022DA6594
:102550007B689B6D0322934301221A437B689A6533
:1025600000231800BD4602B080BDC046FDFEFFFF3F
:1025700008270140FFFFC3FFFFFFFFFD1902FEFF19
:1025800003FCFFFF80B582B000AF7860C046BD4657
:1025900002B080BD80B582B000AF0200FB1D1A7092
:1025A000FB1D1B781A001F231A40044B0121914088
:1025B0000A001A60C046BD4602B080BD00E100E0DE
:1025C00090B583B000AF02003960FB1D1A70FB1D8F
:1025D0001B787F2B32D92F4AFB1D1B7819000F2344
:1025E0000B40083B9B0806339B00D31804331B6841
:1025F000FA1D1278110003220A40D200FF219140F7
:102600000A00D2431A4011003B689B01FF221A4086
:10261000FB1D1B78180003230340DB009A401D4874
:10262000FB1D1B781C000F232340083B9B080A431B
:1026300006339B00C31804331A6027E0164AFB1DBB
:102640001B785BB29B08C0339B009B58FA1D127825
:10265000110003220A40D200FF2191400A00D24318
:102660001A4011003B689B01FF221A40FB1D1B789A
:10267000180003230340DB009A400748FB1D1B782A
:102680005BB29B080A43C0339B001A50C046BD464C
:1026900003B090BD00ED00E000E100E080B584B043
:1026A00000AFB9607A600F217B18021C1A70BA68FB
:1026B0007B181B785BB211001800FFF781FFC04642
:1026C000BD4604B080BD80B582B000AF0200FB1DE6
:1026D0001A70FB1D1B785BB21800FFF75BFFC0464A
:1026E000BD4602B080BD000080B584B000AF786008
:1026F0000023FB607B68002B01D10123BFE07B68D6
:1027000025229B5CDBB2002B03D17B6824220021B5
:1027100099547B682522022199547B681B681B68A9
:10272000FB60FB68584A1340FB607B689A687B68D3
:10273000DB681A437B681B691A437B685B691A4331
:102740007B689B691A437B68DB691A437B681B6A59
:102750001343FA681343FB607B681B68FA681A60CE
:102760007B681B68494A93420DD1494B1A68484B14
:102770000F218A431A60464B19687B685A68444B9C
:102780000A431A6076E07B681B68424A93420ED186
:102790003F4B1A683E4BF0218A431A603C4B196844
:1027A0007B685B681A013A4B0A431A6062E07B68F7
:1027B0001B68394A93420ED1354B1A68344B37495E
:1027C0000A401A60324B19687B685B681A02304B0A
:1027D0000A431A604EE07B681B68314A93420ED16F
:1027E0002B4B1A682A4B2F490A401A60284B19684C
:1027F0007B685B681A03264B0A431A603AE07B68E1
:102800001B68294A93420ED1214B1A68204B274955
:102810000A401A601E4B19687B685B681A041C4BDF
:102820000A431A6026E07B681B68214A93420ED156
:10283000174B1A68164B1F490A401A60144B196847
:102840007B685B681A05124B0A431A6012E07B68CA
:102850001B68194A93420DD10D4B1A680C4B17494E
:102860000A401A600A4B19687B685B681A06084BB5
:102870000A431A607B68252201219954002318001D
:10288000BD4604B080BDC0460FC0FFFF0800024037
:10289000A80002401C00024030000240FFF0FFFF91
:1028A00044000240FF0FFFFF58000240FFFFF0FF0F
:1028B0006C000240FFFF0FFF80000240FFFFFFF0AF
:1028C00080B584B000AFF860B9607A603B60FB68A7
:1028D00024229B5C012B01D1022336E0FB682422D9
:1028E00001219954FB68252202219954FB681B6839
:1028F0001A68FB681B6801218A431A603B687A6882
:10290000B968F86800F06AFAFB681B681A68FB6827
:102910001B6802210A431A60FB681B681A68FB687F
:102920001B6804210A431A60FB681B681A68FB686D
:102930001B6808210A431A60FB681B681A68FB6859
:102940001B6801210A431A6000231800BD4604B029
:1029500080BD000080B584B000AF78600F23FB1805
:1029600000221A707B6825229B5CDBB2022B07D009
:102970007B680422DA630F23FB1801221A7052E0ED
:102980007B681B681A687B681B680E218A431A6083
:102990007B681B681A687B681B6801218A431A6080
:1029A0007B681B68234A934229D07B681B68224AB4
:1029B000934222D07B681B68204A93421AD07B68DE
:1029C0001B681F4A934212D07B681B681D4A9342C2
:1029D0000AD07B681B681C4A934202D180235B03A8
:1029E0000EE080235B040BE080235B0208E0802381
:1029F0005B0105E080235B0002E0102300E001237F
:102A0000124A53607B682522012199547B68242255
:102A1000002199547B689B6B002B04D07B689B6BD7
:102A20007A68100098470F23FB181B781800BD46E2
:102A300004B080BD080002401C000240300002408B
:102A400044000240580002406C0002400000024076
:102A500080B582B000AF7860A14B1A687B681B68B4
:102A6000A0498B4229D07B681B689F498B4222D0AA
:102A70007B681B689D498B421AD07B681B689C4908
:102A80008B4212D07B681B689A498B420AD07B68C4
:102A90001B6899498B4202D180231B040EE08023DE
:102AA0001B050BE080231B0308E080231B0205E0CD
:102AB00080231B0102E0802300E00823134056D04E
:102AC0007B681B681B680822134050D07B681B681A
:102AD0001A687B681B6808218A431A607B681B6838
:102AE000804A934229D07B681B687F4A934222D058
:102AF0007B681B687D4A93421AD07B681B687C4ABE
:102B0000934212D07B681B687A4A93420AD07B6852
:102B10001B68794A934202D180231B040EE0802374
:102B20001B050BE080231B0308E080231B0205E04C
:102B300080231B0102E0802300E00823684A5360E1
:102B40007B68DB6B01221A437B68DA637B68252292
:102B5000042199547B682422002199547B685B6B83
:102B6000002B04D07B685B6B7A68100098475C4B45
:102B70001A687B681B685B498B4229D07B681B689D
:102B800059498B4222D07B681B6858498B421AD026
:102B90007B681B6856498B4212D07B681B6855497D
:102BA0008B420AD07B681B6853498B4202D1802339
:102BB000DB030EE08023DB040BE08023DB0208E074
:102BC0008023DB0105E08023DB0002E0402300E0FE
:102BD0000423134052D07B681B681B6804221340F7
:102BE0004CD07B681B681B682022134007D17B6890
:102BF0001B681A687B681B6804218A431A607B681B
:102C00001B68384A934229D07B681B68364A934236
:102C100022D07B681B68354A93421AD07B681B68B8
:102C2000334A934212D07B681B68324A93420AD0DF
:102C30007B681B68304A934202D18023DB030EE09D
:102C40008023DB040BE08023DB0208E08023DB0130
:102C500005E08023DB0002E0402300E00423204A5B
:102C600053607B682522052199547B681B6B002BE0
:102C700004D07B681B6B7A6810009847184B1A6861
:102C80007B681B6817498B4238D07B681B681649E4
:102C90008B4222D07B681B6814498B421AD07B6818
:102CA0001B6813498B4212D07B681B6811498B4209
:102CB0000AD07B681B6810498B4202D180239B039A
:102CC0001DE080239B041AE080239B0217E08023F1
:102CD0009B0114E080239B0011E020230FE0C046FD
:102CE00000000240080002401C0002403000024088
:102CF00044000240580002406C000240022313408E
:102D00005AD07B681B681B680222134054D07B6832
:102D10001B681B682022134007D17B681B681A6858
:102D20007B681B6802218A431A607B681B68244AFF
:102D3000934229D07B681B68224A934222D07B6849
:102D40001B68214A93421AD07B681B681F4A934232
:102D500012D07B681B681E4A93420AD07B681B68AE
:102D60001C4A934202D180239B030EE080239B04E4
:102D70000BE080239B0208E080239B0105E0802379
:102D80009B0002E0202300E00223134A53607B688B
:102D9000DA6B7B68DA637B682522012199547B68B2
:102DA0002422002199547B68DB6A002B04D07B68C5
:102DB000DB6A7A6810009847C046BD4602B080BD05
:102DC000080002401C000240300002404400024063
:102DD000580002406C0002400000024080B584B000
:102DE00000AFF860B9607A603B60FB681B683A68C6
:102DF0005A60FB689B68102B08D1FB681B687A68D7
:102E00009A60FB681B68BA68DA6007E0FB681B68B9
:102E1000BA689A60FB681B687A68DA60C046BD468B
:102E200004B080BD80B586B000AF78603960002303
:102E30007B610023FB6000233B6155E13B681B681D
:102E400001217A6991400A001340FB60FB68002B66
:102E500000D146E13B685B68022B03D03B685B68AE
:102E6000122B23D17B69DA087B6808329200D35891
:102E70003B617B69072213409B000F229A4013009D
:102E8000DA433B6913403B613B681A697B69072160
:102E90000B409B009A4013003A6913433B617B69E6
:102EA000DA087B68083292003969D1503B685B6868
:102EB000012B0BD03B685B68022B07D03B685B683B
:102EC000112B03D03B685B68122B30D17B689B6869
:102ED0003B617B695B0003229A401300DA433B6944
:102EE00013403B613B68DA687B695B009A401300E2
:102EF0003A6913433B617B683A699A607B685B6817
:102F00003B6101227B699A401300DA433B6913401D
:102F10003B613B685B681B0901221A407B699A4050
:102F200013003A6913433B617B683A695A607B68D6
:102F30001B683B617B695B0003229A401300DA4304
:102F40003B6913403B613B685B6803221A407B6925
:102F50005B009A4013003A6913433B617B683A690E
:102F60001A607B68DB683B617B695B0003229A40E7
:102F70001300DA433B6913403B613B689A687B6905
:102F80005B009A4013003A6913433B617B683A69DE
:102F9000DA603B685A6880235B05134000D1A0E0EB
:102FA000574B5A6B564B01210A435A63554A7B696A
:102FB0009B0802339B009B583B617B6903221340B3
:102FC0009B000F229A401300DA433B6913403B6198
:102FD0007A68A023DB059A421FD07B684A4A934255
:102FE00019D07B68494A934213D07B68484A934280
:102FF0000DD07B68474A934207D07B68464A93428C
:1030000001D105230AE0062308E0042306E0032398
:1030100004E0022302E0012300E000237A69032197
:103020000A40920093403A6913433B6135497B69FA
:103030009B0802339B003A695A50384B1B683B612E
:10304000FB68DA433B6913403B613B685A68802365
:103050005B02134003D03A69FB6813433B612F4B7B
:103060003A691A602D4B5B683B61FB68DA433B6948
:1030700013403B613B685A6880239B02134003D096
:103080003A69FB6813433B61244B3A695A60234B0E
:103090009B683B61FB68DA433B6913403B613B68DB
:1030A0005A6880235B03134003D03A69FB681343DB
:1030B0003B611A4B3A699A60184BDB683B61FB68CD
:1030C000DA433B6913403B613B685A6880239B03AA
:1030D000134003D03A69FB6813433B610F4B3A69D5
:1030E000DA607B6901337B613B681A687B69DA408F
:1030F000131E00D0A2E6C046BD4606B080BDC04645
:103100000010024000000140000400500008005080
:10311000000C005000100050001C00500004014042
:1031200080B582B000AF786008001100BB1C021CA3
:103130001A807B1C0A1C1A707B1C1B78002B04D085
:10314000BB1C1A887B689A6103E0BB1C1A887B68E9
:103150009A62C046BD4602B080BD000080B582B014
:1031600000AF0200BB1D1A80094B5B69BA1D1288B3
:10317000134008D0064BBA1D12885A61BB1D1B882C
:10318000180003F08BFBC046BD4602B080BDC046B0
:103190000004014080B500AF044B1A68034B1021B6
:1031A0008A431A60C046BD4680BDC04600700040DC
:1031B00080B500AF044B1A68034B8021C9000A4355
:1031C0001A60C046BD4680BD0070004080B500AFAB
:1031D000044B1A68034B802189000A431A60C046D9
:1031E000BD4680BD0070004080B586B000AF7860FD
:1031F00000233B617B681B680122134000D187E0FC
:10320000C24BDB680C221340082B0ED0BF4BDB688F
:103210000C2213400C2B16D1BC4BDA6880235B02C6
:103220001A4080235B029A420DD1B84B1A68802362
:103230009B02134000D16AE07B685B68002B66D17B
:10324000012300F070FB7B685A6880235B029A427E
:1032500007D1AE4B1A68AD4B802149020A431A6070
:1032600027E07B685A68A023DB029A420ED1A74B65
:103270001A68A64B8021C9020A431A60A34B1A6838
:10328000A24B802149020A431A6012E09F4B1A6840
:103290009E4B9F490A401A609C4B1A6880235B0230
:1032A0001340FB60FB68994B1A68984B99490A4098
:1032B0001A607B685B68002B14D0FEF7C1FF030027
:1032C0003B6108E0FEF7BCFF02003B69D31A642BA8
:1032D00001D9032327E38D4B1A6880239B021340F7
:1032E000F0D015E0FEF7ACFF03003B6108E0FEF70D
:1032F000A7FF02003B69D31A642B01D9032312E311
:10330000824B1A6880239B021340F0D100E0C04634
:103310007B681B680222134000D16EE07B4BDB68A8
:103320000C221340042B0BD0784BDB680C2213408B
:103330000C2B1CD1754BDA6880235B02134016D12D
:10334000724B1B680422134005D07B68DB68012B9D
:1033500001D00123E7E26D4B5B686F4A134019000F
:103360007B681B691A02694B0A435A6045E07B6817
:10337000DB68002B28D0654B1B680922934319009A
:103380007B68DA68614B0A431A60FEF759FF030055
:103390003B6108E0FEF754FF02003B69D31A022BA1
:1033A00001D90323BFE2594B1B6804221340F1D01B
:1033B000564B5B68584A134019007B681B691A0218
:1033C000524B0A435A6018E0504B1A684F4B012188
:1033D0008A431A60FEF734FF03003B6108E0FEF702
:1033E0002FFF02003B69D31A022B01D903239AE273
:1033F000464B1B6804221340F1D17B681B681022E6
:10340000134000D1C5E0414BDB680C22134064D16E
:103410003E4B1A6880239B00134005D07B68DB6914
:10342000002B01D101237EE27B685A6A374B596831
:10343000E0231B020B409A421DD97B685B6A18008F
:1034400000F05EFC031E01D001236CE22F4B5B6891
:10345000324A134019007B685A6A2C4B0A435A605F
:103460002A4B5B681B02190A7B681B6A1A06274BEA
:103470000A435A601CE0254B5B68284A1340190038
:103480007B685A6A214B0A435A60204B5B681B02D7
:10349000190A7B681B6A1A061C4B0A435A607B6830
:1034A0005B6A180000F02CFC031E01D001233AE2F5
:1034B0007B685B6A5B0B0133802212029A40134BDC
:1034C000DB681B090F210B401549CB5CDA40154B1B
:1034D0001A60032003F068F95BE07B68DB69002B6E
:1034E0003DD00A4B1A68094B802149000A431A60F3
:1034F000FEF7A6FE03003B6116E0FEF7A1FE020008
:103500003B69D31A022B0FD903230CE200100240AF
:10351000FFFFFEFFFFFFFBFFFFE0FFFFFF1FFFFFBF
:10352000B40A010800000020C84B1A6880239B00E1
:103530001340E2D0C54B5B68C54A134019007B6855
:103540005A6AC24B0A435A60C04B5B681B02190A95
:103550007B681B6A1A06BD4B0A435A6019E0BB4BD5
:103560001A68BA4BBB490A401A60FEF769FE0300AD
:103570003B6108E0FEF764FE02003B69D31A022BB0
:1035800001D90323CFE1B14B1A6880239B0013407C
:10359000F0D17B681B680822134036D07B685B69DA
:1035A000002B19D0A94B1A6DA84B01210A431A65AB
:1035B000FEF746FE03003B6108E0FEF741FE020015
:1035C0003B69D31A022B01D90323ACE19F4B1B6D3E
:1035D00002221340F1D018E09C4B1A6D9B4B012145
:1035E0008A431A65FEF72CFE03003B6108E0FEF7F4
:1035F00027FE02003B69D31A022B01D9032392E173
:10360000924B1B6D02221340F1D17B681B68042290
:10361000134000D1AFE01723FB1800221A708B4B28
:103620009A6B80235B0513400AD1884B9A6B874BBA
:10363000802149050A439A631723FB1801221A7057
:10364000854B1A6880235B0013401AD1824B1A689D
:10365000814B802149000A431A60FEF7F1FD030007
:103660003B6108E0FEF7ECFD02003B69D31A642BD6
:1036700001D9032357E1784B1A6880235B0013407C
:10368000F0D07B689A6880235B009A4207D16F4B29
:103690001A6D6E4B802149000A431A6531E07B6840
:1036A0009B68002B0CD1694B1A6D684B69490A4025
:1036B0001A65664B1A6D654B68490A401A6520E029
:1036C0007B689A68A023DB009A420ED15F4B1A6D8B
:1036D0005E4B8021C9000A431A655C4B1A6D5B4B37
:1036E000802149000A431A650BE0584B1A6D574B6D
:1036F00058490A401A65554B1A6D544B57490A40B0
:103700001A657B689B68002B15D0FEF799FD0300B6
:103710003B6109E0FEF794FD02003B69D31A504A71
:10372000934201D90323FEE0484B1A6D80239B008E
:103730001340EFD014E0FEF783FD03003B6109E086
:10374000FEF77EFD02003B69D31A454A934201D938
:103750000323E8E03D4B1A6D80239B001340EFD11B
:103760001723FB181B78012B05D1384B9A6B374B6D
:103770003C490A409A637B681B682022134049D069
:103780007B689B69002B26D0304B9A682F4B012118
:103790000A439A602D4B5A6B2C4B01210A435A6302
:1037A000314B1A6A304B802189010A431A62FEF7B5
:1037B00047FD03003B6108E0FEF742FD02003B6964
:1037C000D31A022B01D90323ADE0204B9B680222C0
:1037D0001340F1D01EE01D4B9A681C4B01218A4317
:1037E0009A60214B1A6A204B20490A401A62FEF760
:1037F00027FD03003B6108E0FEF722FD02003B6964
:10380000D31A022B01D903238DE0104B9B680222AF
:103810001340F1D17B689B6A002B00D182E00B4BF7
:10382000DB680C2213400C2B00D179E07B689B6A8B
:10383000022B5AD1054B1A68044B0D490A401A60F5
:10384000FEF7FEFC03003B611DE0C0460010024095
:10385000FF1FFFFFFFFEFFFF00700040FFFBFFFFA9
:1038600088130000FFFFFFEF00000140FFDFFFFFB4
:10387000FFFFFFFEFEF7E4FC02003B69D31A022BB8
:1038800001D903234FE02A4B1A6880239B0413407D
:10389000F0D1274BDB68274A134019007B68DA6AAE
:1038A0007B681B6B1A437B685B6B1A43204B0A4394
:1038B000DA601F4B1A681E4B802149040A431A60C4
:1038C000FEF7BEFC03003B6108E0FEF7B9FC020016
:1038D0003B69D31A022B01D9032324E0144B1A6845
:1038E00080239B041340F0D01CE0114B1A68104B4E
:1038F00011490A401A60FEF7A3FC03003B6108E08F
:10390000FEF79EFC02003B69D31A022B01D9032368
:1039100009E0074B1A6880239B041340F0D101E0B3
:10392000012300E000231800BD4606B080BDC0465C
:1039300000100240FFFF02FFFFFFFFFE80B584B0D2
:1039400000AF786039600023FB60834B1B68012265
:1039500013403A689A4211D97F4B1B680122934366
:1039600019007D4B3A680A431A607B4B1B680122A1
:1039700013403A689A4201D00123E8E07B681B6853
:103980000222134009D0754BDB68F02293431900E3
:103990007B689A68714B0A43DA607B681B68012276
:1039A000134000D189E07B685B68022B07D16B4B29
:1039B0001A6880239B02134020D10123C7E07B6853
:1039C0005B68032B07D1654B1A6880239B04134067
:1039D00014D10123BBE07B685B68012B06D15F4BF0
:1039E0001B680422134009D10123B0E05B4B1A6825
:1039F00080239B00134001D10123A8E0574BDB68D3
:103A00000322934319007B685A68544B0A43DA60D7
:103A1000FEF716FC0300FB607B685B68022B11D18C
:103A200009E0FEF70DFC0200FB68D31A4C4A9342F2
:103A300001D903238BE0494BDB680C221340082B90
:103A4000EFD13AE07B685B68032B11D109E0FEF708
:103A5000F7FB0200FB68D31A414A934201D90323C2
:103A600075E03E4BDB680C2213400C2BEFD124E0B9
:103A70007B685B68012B1BD109E0FEF7E1FB0200CC
:103A8000FB68D31A364A934201D903235FE0334BD4
:103A9000DB680C221340042BEFD10EE0FEF7D0FBC5
:103AA0000200FB68D31A2E4A934201D903234EE049
:103AB0002A4BDB680C221340F0D1274B1B680122F4
:103AC00013403A689A4211D2234B1B680122934358
:103AD0001900214B3A680A431A601F4B1B680122E8
:103AE00013403A689A4201D0012330E07B681B689A
:103AF0000422134009D0194BDB681A4A13401900FD
:103B00007B68DA68154B0A43DA607B681B68082219
:103B100013400AD0114BDB68134A134019007B682D
:103B20001B69DA000D4B0A43DA6000F023F801004C
:103B30000A4BDB681B090F2213400C4AD35C0A00B6
:103B4000DA400B4B1A60032002F02EFE002318000F
:103B5000BD4604B080BDC0460020024000100240B7
:103B600088130000FFF8FFFFFFC7FFFFB40A01083A
:103B70000000002080B586B000AF0023FB6000236A
:103B8000BB6000237B6000237B6100233B6000233C
:103B90003B613B4BDB68FB60FB680C221340082B4E
:103BA0000ED00C2B0FD0042B57D1354B1B68102295
:103BB000134002D0334B3B615DE0334B3B615AE035
:103BC000324B3B6157E0FB689B0C0F221340304A9D
:103BD000D35CBB60FB689B0D0322134001337B6009
:103BE000274BDA6880235B0213400FD0B9680A00C4
:103BF0005201521A93019B1ADB005B185B02796831
:103C00001800FCF781FA03007B6123E01C4B1B6862
:103C1000102213400FD0B9680A005201521A9301C2
:103C20009B1ADB005B181B0279681800FCF76CFA22
:103C300003007B610EE0B9680A005201521A930139
:103C40009B1ADB005B189B0279681800FCF75CFA92
:103C500003007B617B693B610DE0094B5B685B0B9B
:103C6000072213403B603B680133802212029A40D6
:103C700013003B61C0463B691800BD4606B080BDDD
:103C80000010024000093D000024F40000127A00F8
:103C9000CC0A010880B500AF024B1B681800BD4676
:103CA00080BDC0460000002080B500AFFFF7F2FFE6
:103CB0000100064BDB681B0A07221340044AD35C51
:103CC000D9400B001800BD4680BDC0460010024020
:103CD000C40A010880B500AFFFF7DCFF0100064B06
:103CE000DB68DB0A07221340044AD35CD9400B008F
:103CF0001800BD4680BDC04600100240C40A01083D
:103D000080B584B000AF78600023FB600023BB6007
:103D1000234BDB68F02213402BD1214B9A6B80237D
:103D20005B05134006D01F4B1A68C0235B0113408C
:103D3000FB6012E01A4B9A6B194B802149050A432C
:103D40009A63184B1A68C0235B011340FB60144B45
:103D50009A6B134B14490A409A63FA68C0235B01BB
:103D60009A4206D17A68C0231B029A4201D10123EC
:103D7000BB600E4B1B680122934319000B4BBA68C2
:103D80000A431A60094B1B6801221340BA689A4221
:103D900001D0012300E000231800BD4604B080BD1F
:103DA0000010024000700040FFFFFFEF00200240C3
:103DB00080B586B000AF786000233B610023FB60D4
:103DC0007B681B682022134000D1C4E01723FB1836
:103DD00000221A70974B9A6B80235B0513400AD11F
:103DE000944B9A6B934B802149050A439A6317239E
:103DF000FB1801221A70904B1A6880235B00134055
:103E00001AD18D4B1A688C4B802149000A431A60E5
:103E1000FEF716FA03003B6108E0FEF711FA020014
:103E20003B69D31A642B01D90323FFE0824B1A6844
:103E300080235B001340F0D07E4B1A68C0239B03A5
:103E40001340FB607B685A68C0239B031340FA68E9
:103E50009A4210D07B685A68C0239B021A40C02344
:103E60009B029A4207D1734B1A6880239B0213402E
:103E700001D00123DAE06F4B1A6DC0239B0213407F
:103E8000FB60FB68002B3BD07B685A68C0239B0219
:103E90001340FA689A4233D07B681B682022134093
:103EA0002ED0644B1B6D654A1340FB60614B1A6D4D
:103EB000604B802109030A431A655E4B1A6D5D4B06
:103EC0005F490A401A655B4BFA681A65FA688023F5
:103ED0005B00134014D0FEF7B3F903003B6109E027
:103EE000FEF7AEF902003B69D31A564A934201D954
:103EF00003239BE04F4B1A6D80239B001340EFD0B0
:103F00007B685A68C0239B021A40C0239B029A42D6
:103F10000CD1484B1B684C4A134019007B685A6807
:103F2000C0239B031A40434B0A431A60414B196D4F
:103F30007B685A68C0239B021A403E4B0A431A65AD
:103F40001723FB181B78012B05D13A4B9A6B394B81
:103F50003E490A409A637B681B680122134009D0DE
:103F6000344BDB6C0322934319007B689A68314B16
:103F70000A43DA647B681B680222134009D02D4B88
:103F8000DB6C0C22934319007B68DA68294B0A43E7
:103F9000DA647B681B680422134009D0254BDB6C74
:103FA0002B4A134019007B681A69224B0A43DA64D2
:103FB0007B681B680822134009D01E4BDB6C254A26
:103FC000134019007B685A691A4B0A43DA647B680C
:103FD0001A6880235B00134009D0164BDB6C174A2C
:103FE000134019007B689A69124B0A43DA647B68B4
:103FF0001B684022134009D00E4BDB6C164A13405D
:1040000019007B681A6A0B4B0A43DA647B681B68E9
:104010008022134009D0074BDB6C104A1340190073
:104020007B68DA69034B0A43DA6400231800BD4653
:1040300006B080BD0010024000700040FFFFFCFF92
:10404000FFFFF7FF88130000FFFFCFFFFFFFFFEF29
:10405000FFF3FFFFFFCFFFFFFFFFFFFBFFFFF3FFBC
:1040600080B58AB000AF78600023FB610023BB619C
:1040700000237B6200237B6100233B610023FB6004
:1040800000233B627B68082B00D159E109D8022B41
:1040900000D1ECE0042B00D11AE1012B00D1B5E0F6
:1040A000C4E1202B0CD003D8102B00D170E1BDE16E
:1040B000402B58D080225200934200D18EE1B5E1CE
:1040C000BC4B1B6DFB61BB4B1A6DC0239B021340A5
:1040D0007B617A6980235B029A4208D1FA69802366
:1040E0009B00134003D080231B027B623AE07A6975
:1040F00080239B029A4206D1FB690222134002D020
:10410000AD4B7B622EE07A69C0239B029A4226D196
:10411000A84B1A6880239B02134020D0A54B1A6835
:10412000C0239B031340BB61BB698022920393426F
:104130000BD0C0229203934204D0802252039342B8
:1041400006D008E09D4B7B6208E09D4B7B6205E05A
:104150009C4B7B6202E09C4B7B62C04602E00023EA
:104160007B6263E162E1934BDA6C8023DB041340F2
:104170007B617B69002B38D18E4B1A6880239B04AE
:10418000134032D08B4BDA68F0239B0313403B6122
:10419000884BDA68C0231B041340FB603B699B0C0F
:1041A0008A4AD35C3B61FB689B0D0133FB60814B0A
:1041B000DA6880235B0213400AD17E4B1B68102211
:1041C000134002D0804B3B6204E0814B3B6201E034
:1041D000804B3B623B6A3A6953433B62F968386AF9
:1041E000FBF792FF03007B620FE07A698023DB0418
:1041F0009A4207D16F4B9B680222134002D0764B44
:104200007B6202E000237B6210E10FE1694BDB6C13
:10421000032213407B617B69002B04D1FFF75AFD19
:1042200003007B6202E17B69022B07D1614B1B68B3
:104230000422134002D0664B7B6217E07B69012B9E
:1042400004D1FFF797FC03007B62EFE07B69032B4F
:1042500009D1584B1A6D80239B00134003D0802353
:104260001B027B6202E000237B62DFE0DEE0514B59
:10427000DB6C0C2213407B617B69002B04D1FFF7C0
:1042800013FD03007B62D1E07B69082B07D1494B0A
:104290001B680422134002D04D4B7B6217E07B6900
:1042A000042B04D1FFF766FC03007B62BEE07B6950
:1042B0000C2B09D13F4B1A6D80239B00134003D078
:1042C00080231B027B6202E000237B62AEE0ADE054
:1042D000384BDA6CC0231B0113407B617B69002BD8
:1042E00004D1FFF7E1FC03007B629FE07A69802341
:1042F0001B019A4207D12F4B1B680422134002D0A6
:10430000334B7B621BE07A698023DB009A4204D145
:10431000FFF730FC03007B6288E07A69C0231B0151
:104320009A4209D1234B1A6D80239B00134003D07E
:1043300080231B027B6202E000237B6276E075E053
:104340001C4BDA6CC0239B0113407B617B69002B03
:1043500004D1FFF7A9FC03007B6267E07A69802340
:104360009B019A4207D1134B1B680422134002D0D1
:10437000174B7B625AE07A6980235B019A4204D131
:10438000FFF7F8FB03007B6250E000237B624DE007
:10439000084B9A6B8023DB031A408023DB039A428D
:1043A00004D1FFF781FC03007B623FE000237B62C6
:1043B0003CE0C046001002408890000020A10700A9
:1043C00040420F0080841E0000093D00CC0A010815
:1043D0000024F40000127A00006CDC02164BDA6C48
:1043E000C0239B0213407B617B69002B04D1FFF744
:1043F0005BFC03007B6218E07A6980239B029A428F
:1044000007D10D4B1B680422134002D00B4B7B627B
:104410000BE07A6980235B029A4204D1FFF7AAFB82
:1044200003007B6201E000237B62C0467B6A1800C8
:10443000BD460AB080BDC046001002400024F40012
:1044400080B582B000AF78607B68002B01D101237A
:1044500074E07B6821229B5CDBB2002B07D17B6878
:104460002022002199547B68180002F0D1F97B6862
:104470002122022199547B681B68CA225A627B68F8
:104480001B6853225A627B68180000F0D2FC031E9E
:1044900009D07B681B68FF225A627B6821220421B5
:1044A000995401234AE07B681B689A687B681B6803
:1044B00024490A409A607B681B6899687B685A683F
:1044C0007B681B691A437B689B691A437B681B687E
:1044D0000A439A607B681B687A68D2681A617B68B5
:1044E0001B6819697B689B681A047B681B680A4310
:1044F0001A617B681B68DA687B681B6880218A43C5
:10450000DA607B681B68DA6C7B681B6803218A436E
:10451000DA647B681B68D96C7B68DA697B685B69E5
:104520001A437B681B680A43DA647B681B68FF22B6
:104530005A627B6821220121995400231800BD464C
:1045400002B080BDBFFF8FFF90B587B000AFF860AD
:10455000B9607A6000237B61FB6820229B5C012BA1
:1045600001D10223B5E0FB68202201219954FB68A8
:104570002122022199547B68002B25D1FB681B68FE
:104580009B684022134002D1BB680022DA70BB68EE
:104590001B78180000F079FC03001C04BB685B78F2
:1045A000180000F072FC03001B021C43BB689B78E0
:1045B000180000F06AFC030022001A43BB68DB7895
:1045C0001B0413437B611FE0FB681B689B68402250
:1045D000134007D0BB681B78180000F077FC03007D
:1045E0007B6102E0BB680022DA70BB681B781A04AA
:1045F000BB685B781B021343BA6892781A43BB68A6
:10460000DB781B0413437B61FB681B68CA225A6278
:10461000FB681B6853225A62FB68180000F009FC13
:10462000031E0DD0FB681B68FF225A62FB68212223
:1046300004219954FB68202200219954012348E069
:10464000FB681B687A6925490A401A60FB681B6889
:104650009A68FB681B6822490A409A60FB681B68DD
:104660009968BB68DA68BB681B691A43FB681B68FA
:104670000A439A60FB681B68DA68FB681B68802144
:104680008A43DA60FB681B689B682022134013D1C1
:10469000FB68180000F0A4FB031E0DD0FB681B682C
:1046A000FF225A62FB68212204219954FB682022D0
:1046B0000021995401230CE0FB681B68FF225A6219
:1046C000FB68212201219954FB6820220021995482
:1046D00000231800BD4607B090BDC0467F7F7F0015
:1046E000FFFFFBFF80B586B000AFF860B9607A606D
:1046F00000237B61FB681B689A6ABB685A60FB6891
:104700001B681B695B045A0CBB689A60FB681B68DA
:104710001B68224A13407B617B691B0CDBB23F2282
:104720001340DAB2BB681A707B691B0ADBB27F22C6
:104730001340DAB2BB685A707B69DBB27F22134048
:10474000DAB2BB689A707B691B0CDBB24022134063
:10475000DAB2BB68DA707B68002B1AD1BB681B78B1
:10476000180000F0B3FB03001A00BB681A70BB68A6
:104770005B78180000F0AAFB03001A00BB685A70AF
:10478000BB689B78180000F0A1FB03001A00BB680F
:104790009A7000231800BD4606B080BD7F7F7F0061
:1047A00090B587B000AFF860B9607A6000237B6194
:1047B000FB6820229B5C012B01D10223A7E0FB6850
:1047C000202201219954FB682122022199547B68FF
:1047D000002B0ED1BB685B781A001023134008D061
:1047E000BB685B7810229343DBB20A33DAB2BB6852
:1047F0005A707B68002B1CD1BB68DB78180000F076
:1048000044FB03001C04BB685B78180000F03DFB10
:1048100003001B021C43BB689B78180000F035FBAB
:10482000030022001A43BB681B785B0313437B61C0
:104830001CE0BB685B78180000F048FB03007B615C
:10484000BB689B78180000F041FB03007B61BB68EC
:10485000DB781A04BB685B781B021343BA68927852
:104860001A43BB681B785B0313437B61FB681B68BF
:10487000CA225A62FB681B6853225A62FB681800FE
:1048800000F0D7FA031E0DD0FB681B68FF225A62A6
:10489000FB68212204219954FB68202200219954AD
:1048A000012334E0FB681B687A691B490A405A609F
:1048B000FB681B68DA68FB681B6880218A43DA6042
:1048C000FB681B689B682022134013D1FB6818000B
:1048D00000F086FA031E0DD0FB681B68FF225A62A7
:1048E000FB68212204219954FB682022002199545D
:1048F00001230CE0FB681B68FF225A62FB6821223F
:1049000001219954FB6820220021995400231800AA
:10491000BD4607B090BDC0463FFFFF0080B586B0E2
:1049200000AFF860B9607A6000237B61FB681B68A8
:104930005B68214A13407B617B691B0CDAB2BB6860
:10494000DA707B691B0ADBB21F221340DAB2BB6844
:104950005A707B69DBB23F221340DAB2BB689A70AF
:104960007B695B0BDBB207221340DAB2BB681A70BB
:104970007B68002B1AD1BB68DB78180000F0A6FA20
:1049800003001A00BB68DA70BB685B78180000F09F
:104990009DFA03001A00BB685A70BB689B78180028
:1049A00000F094FA03001A00BB689A700023180004
:1049B000BD4606B080BDC0463FFFFF0090B589B040
:1049C00000AFF860B9607A600023BB610023FB612F
:1049D00000237B61FB6820229B5C012B01D1022319
:1049E0004DE1FB68202201219954FB68212202211C
:1049F00099547B68002B36D1FB681B689B6840226A
:104A0000134002D1BB680022DA70BB681B78180023
:104A100000F03BFA03001C04BB685B78180000F050
:104A200034FA03001B021C43BB689B78180000F09B
:104A30002CFA030022001A43BB68DB781B041A43DC
:104A40001400BB6820229B5C180000F01EFA0300D3
:104A50001B0622001A43BB68DB691A43BB685B690B
:104A60001343FB613FE0FB681B689B6840221340D7
:104A700007D0BB681B78180000F028FA0300FB6120
:104A800002E0BB680022DA70BB68DB69002B08D14A
:104A9000BB6820229B5C180000F018FA0300FB6141
:104AA00007E0BB6820229B5C180000F00FFA0300AF
:104AB000FB61BB681B781A04BB685B781B0213435D
:104AC000BA6892781A43BB68DB781B041A43BB6848
:104AD00020215B5C1B061A43BB68DB691A43BB6879
:104AE0005B691343FB61BB685A68BB689B691343EE
:104AF0007B61FB681B68CA225A62FB681B685322F1
:104B00005A62BB685A6A80235B009A424ED1FB68A6
:104B10001B689A68FB681B685B490A409A60FB68DF
:104B20001B68DB68FF221A40FB681B6857490A4371
:104B3000DA60FDF785FB0300BB6116E0FDF780FB43
:104B40000200BB69D21AFA239B009A420DD9FB6876
:104B50001B68FF225A62FB68212203219954FB68DB
:104B6000202200219954032389E0FB681B68DB683D
:104B700001221340E2D0FB681B68FA69DA61FB6826
:104B80001B687A695A64FB681B689A68FB681B6833
:104B9000802149000A439A60FB681B689A68FB6899
:104BA0001B68802149010A439A604DE0FB681B683D
:104BB0009A68FB681B6836490A409A60FB681B6864
:104BC000DB68FF221A40FB681B6832490A43DA603F
:104BD000FDF736FB0300BB6116E0FDF731FB020079
:104BE000BB69D21AFA239B009A420DD9FB681B6855
:104BF000FF225A62FB68212203219954FB6820227C
:104C00000021995403233AE0FB681B68DB68022209
:104C10001340E2D0FB681B68FA691A62FB681B68E4
:104C20007A699A64FB681B689A68FB681B68802134
:104C300089000A439A60FB681B689A68FB681B68D6
:104C4000802189010A439A60134B1A68124B802114
:104C500089020A431A60104B9A680F4B802189021F
:104C60000A439A60FB681B68FF225A62FB68212294
:104C700001219954FB682022002199540023180037
:104C8000BD4609B090BDC046FFFEFFFF7FFEFFFF9F
:104C9000FFFDFFFF7FFDFFFF0004014080B584B0F2
:104CA00000AF786039600023FB607B6820229B5C4A
:104CB000012B01D1022386E07B6820220121995437
:104CC0007B682122022199547B681B68CA225A62A0
:104CD0007B681B6853225A623A6880235B009A42C1
:104CE00032D17B681B689A687B681B6838490A4028
:104CF0009A607B681B689A687B681B6835490A4024
:104D00009A60FDF79DFA0300FB6016E0FDF798FA44
:104D10000200FB68D21AFA239B009A420DD97B68E5
:104D20001B68FF225A627B682122032199547B6809
:104D3000202200219954032345E07B681B68DB682F
:104D400001221340E2D031E07B681B689A687B68DF
:104D50001B6821490A409A607B681B689A687B68D7
:104D60001B681E490A409A60FDF76AFA0300FB605F
:104D700016E0FDF765FA0200FB68D21AFA239B00E1
:104D80009A420DD97B681B68FF225A627B682122F8
:104D9000032199547B68202200219954032312E0B7
:104DA0007B681B68DB6802221340E2D07B681B68CB
:104DB000FF225A627B682122012199547B682022BC
:104DC0000021995400231800BD4604B080BDC046A0
:104DD000FFFEFFFFFFEFFFFFFFFDFFFFFFDFFFFF16
:104DE00080B584B000AF78600023FB607B681B68EF
:104DF000DA687B681B68A0218A43DA60FDF720FA35
:104E00000300FB600AE0FDF71BFA0200FB68D21A00
:104E1000FA239B009A4201D9032306E07B681B68B2
:104E2000DB6820221340EED000231800BD4604B0FA
:104E300080BD80B584B000AF78600023FB607B68E4
:104E40001B68DB68402213401AD17B681B68012273
:104E50005242DA60FDF7F4F90300FB600AE0FDF767
:104E6000EFF90200FB68D21AFA239B009A4201D99B
:104E7000032306E07B681B68DB6840221340EED00A
:104E800000231800BD4604B080BD80B584B000AFDB
:104E90000200FB1D1A700023FB6007E0FB68013372
:104EA000FB60FB1DFA1D12780A3A1A70FB1D1B7875
:104EB000092BF3D8FB68DBB21B01DAB2FB1D1B78B0
:104EC0001343DBB21800BD4604B080BD80B584B08A
:104ED00000AF0200FB1D1A700023FB60FB1D1B7856
:104EE0001B09DBB21A0013009B009B185B00FB60E0
:104EF000FB1D1B780F221340DAB2FB68DBB2D3181C
:104F0000DBB21800BD4604B080BD80B582B000AFF2
:104F100078607B6820229B5C012B01D1022324E076
:104F20007B682022012199547B6821220221995417
:104F30007B681B68CA225A627B681B6853225A62CC
:104F40007B681B689A687B681B6820210A439A600B
:104F50007B681B68FF225A627B68212201219954D9
:104F60007B6820220021995400231800BD4602B01E
:104F700080BD000080B582B000AF78607B68002BF8
:104F800001D101235BE07B6851229B5CDBB2002BEB
:104F900007D17B685022002199547B68180000F0EB
:104FA00055F87B685122022199547B681B681A6866
:104FB0007B681B6840218A431A607B685A687B685B
:104FC0009B681A437B68DB681A437B681B691A433A
:104FD0007B685B691A437B68996980239B000B405F
:104FE0001A437B68DB691A437B681B6A1A4311000A
:104FF0007B689A6A7B681B680A431A607B689B69B6
:105000001B0C0422134019007B685A6A7B681B68DA
:105010000A435A607B681B687A68D26A1A617B68A7
:105020001B68DA697B681B6807490A40DA617B689C
:1050300000225A657B6851220121995400231800EF
:10504000BD4602B080BDC046FFF7FFFF80B582B00D
:1050500000AF7860C046BD4602B080BD80B586B066
:1050600000AFF860B9607A601A00BB1C1A80162382
:10507000FB1800221A80FB6851229B5CDBB2012BDB
:1050800006D0FB6851229B5CDBB2222B00D055E29C
:10509000BB68002B06D07B68002B03D0BB1C1B8891
:1050A000002B01D101234AE2FB6850229B5C012BBB
:1050B00001D1022343E2FB68502201219954FB688D
:1050C00051229B5CDBB2012B03D1FB6851223221C0
:1050D0009954FB6800225A65FB687A689A63FB68FA
:1050E000BA1C12889A87FB68BA1C1288DA87FB6898
:1050F000BA681A63FB68BA1C12889A86FB68BA1CE5
:105100001288DA86FB6800229A64FB680022DA645F
:10511000FB689A6A80239B019A4210D1FB681B6846
:105120001A68FB681B68CA490A401A60FB681B685A
:105130001A68FB681B68802189010A431A60FB68B2
:105140001B681B6840221340402B07D0FB681B687C
:105150001A68FB681B6840210A431A60FB68DA681A
:1051600080231B019A4200D0C8E0FB685B68002BDB
:105170000AD0FB685A6882235B009A4216D1FB680A
:10518000DB8E9BB2012B11D1FB681B6B1A88FB686D
:105190001B68DA60FB681B6B9A1CFB681A63FB6870
:1051A000DB8E9BB2013B9AB2FB68DA86FB68DB8E32
:1051B0009BB2002B00D079E0FB689A6A80239B01A8
:1051C0009A4208D1FB681B681A68FB681B6880213B
:1051D00049010A431A603B6AF8680022012100F085
:1051E000B5F9031E01D00323A9E1FB681B68DA6847
:1051F000FB689B6B92B21A80FB689B6B9A1CFB68E6
:105200009A63FB68DB8F9BB2013B9AB2FB68DA873B
:1052100031E13B6AF8680022022100F097F9031E91
:1052200001D003238BE1FB681B6B1A88FB681B68AA
:10523000DA60FB681B6B9A1CFB681A63FB68DB8EE9
:105240009BB2013B9AB2FB68DA86FB68DB8E9BB2AD
:10525000002B0ED1FB689A6A80239B019A4208D1E9
:10526000FB681B681A68FB681B68802149010A43B8
:105270001A603B6AF8680022012100F067F9031EFA
:1052800001D003235BE1FB681B68DA68FB689B6B5A
:1052900092B21A80FB689B6B9A1CFB689A63FB684E
:1052A000DB8F9BB2013B9AB2FB68DA87FB68DB8E2F
:1052B0009BB2002BADD1FB685B68002B00D0DAE01D
:1052C0003B6AF8680022012100F040F9031E01D07A
:1052D000032334E1FB681B68DA68FB689B6B92B2BE
:1052E0001A80FB689B6B9A1CFB689A63FB68DB8FD8
:1052F0009BB2013B9AB2FB68DA87BCE0FB685B6853
:10530000002B0AD0FB685A6882235B009A4214D1B2
:10531000FB68DB8E9BB2012B0FD1FB681B6B591C0A
:10532000FA6811631A78FB681B68DA60FB68DB8E29
:105330009BB2013B9AB2FB68DA86FB68DB8E9BB2BC
:10534000002B00D070E0FB689A6A80239B019A4290
:1053500008D1FB681B681A68FB681B68802149013B
:105360000A431A603B6AF8680022012100F0EEF857
:10537000031E01D00323E2E0FB681B68DA68FB68C8
:105380009B6BD2B21A70FB68DB8F9BB2013B9AB267
:10539000FB68DA876FE03B6AF8680022022100F0C0
:1053A000D5F8031E01D00323C9E0FB681B6B591C11
:1053B000FA6811631A78FB681B68DA60FB68DB8E99
:1053C0009BB2013B9AB2FB68DA86FB68DB8E9BB22C
:1053D000002B0ED1FB689A6A80239B019A4208D168
:1053E000FB681B681A68FB681B68802149010A4337
:1053F0001A603B6AF8680022012100F0A7F8031E3A
:1054000001D003239BE0FB681B68D868FB689B6B9B
:10541000591CFA689163C2B21A70FB68DB8F9BB2A9
:10542000013B9AB2FB68DA87FB68DB8E9BB2002BEC
:10543000B1D1FB685B68002B1DD13B6AF868002284
:10544000012100F083F8031E04D0032377E0C04657
:10545000FFDFFFFFFB681B68D868FB689B6B591C6C
:10546000FA689163C2B21A70FB68DB8F9BB2013B92
:105470009AB2FB68DA87FB689A6A80239B019A429A
:1054800018D13B6AF8680022012100F05FF8031E82
:1054900007D0FB685B6D02221A43FB685A65032341
:1054A0004DE0FB681B68DB689AB216217B181A80F6
:1054B0007B181B883B6AF8680122802100F046F8BF
:1054C000031E07D0FB685B6D20221A43FB685A65F8
:1054D000032334E0FB68512201219954FB689A6A46
:1054E00080239B019A4223D1FB681B689B68102292
:1054F0001340102B1CD1FB685B6D02221A43FB6822
:105500005A65FB681B681A68FB681B680E490A40ED
:105510001A60FB681B681A68FB681B688021890198
:105520000A431A60FB68502200219954012306E0C7
:10553000FB68502200219954002300E00223180048
:10554000BD4606B080BDC046FFDFFFFF80B586B018
:1055500000AFF860B9603B60FB1D1A7000237B61EF
:10556000FCF76EFE03007B61FB1D1B78002B00D057
:1055700087E03EE03B6801333BD03B68002B07D01F
:10558000FCF75EFE02007B69D31A3A689A4230D279
:10559000FB681B685A68FB681B68E0218A435A60F5
:1055A000FB681B681A68FB681B6840218A431A6005
:1055B000FB689A6A80239B019A4210D1FB681B68A2
:1055C0001A68FB681B6835490A401A60FB681B684B
:1055D0001A68FB681B68802189010A431A60FB680E
:1055E000512201219954FB68502200219954032330
:1055F00050E0FB681B689B68BA681340BA689A421F
:10560000B8D146E03B6801333BD03B68002B07D064
:10561000FCF716FE02007B69D31A3A689A4230D230
:10562000FB681B685A68FB681B68E0218A435A6064
:10563000FB681B681A68FB681B6840218A431A6074
:10564000FB689A6A80239B019A4210D1FB681B6811
:105650001A68FB681B6811490A401A60FB681B68DE
:105660001A68FB681B68802189010A431A60FB687D
:10567000512201219954FB6850220021995403239F
:1056800008E0FB681B689B68BA681340BA689A42D6
:10569000B8D000231800BD4606B080BDFFDFFFFF75
:1056A00080B582B000AF78607B68002B01D1012308
:1056B00047E07B6869229B5CDBB2002B07D17B68EB
:1056C0006822002199547B68180006F0FFFA7B6875
:1056D0006922242199547B681B681A687B681B68BF
:1056E00001218A431A607B685B6A002B03D07B68C8
:1056F000180000F01FFD7B68180000F0D7F90300C8
:10570000012B01D101231CE07B681B685A687B6870
:105710001B680E490A405A607B681B689A687B6860
:105720001B682A218A439A607B681B681A687B6819
:105730001B6801210A431A607B68180000F0AEFD67
:1057400003001800BD4602B080BDC046FFB7FFFF92
:1057500080B584B000AFF860B960BB1D1A80FB68EB
:1057600069229B5CDBB2202B66D1BB68002B03D087
:10577000BB1D1B88002B01D101235EE0FB689A68EA
:1057800080235B019A4209D1FB681B69002B05D17C
:10579000BB680122134001D001234EE0FB68682260
:1057A0009B5C012B01D1022347E0FB6868220121A9
:1057B0009954FB68BA68DA64FB68BA1D50211288F4
:1057C0005A52FB68BA1D522112885A52FB680022B5
:1057D000DA66FB68692221219954FB681B6E194A1D
:1057E000DA62FB681B6E184A1A63FB681B6E174A65
:1057F0005A63FB681B6E00229A63FB68186EFB6895
:10580000DB6C1900FB681B6828331A00BB1D1B8862
:10581000FDF756F8FB681B6840221A62FB68682295
:1058200000219954FB681B689A68FB681B688021FB
:105830000A439A60002300E002231800BD4604B02A
:1058400080BDC0462D640008816400089F64000884
:1058500080B586B000AF78607B681B68DB697B61D0
:105860007B681B681B683B617B690F221340FB60F0
:10587000FB68002B0CD17B692022134008D03B69C8
:105880002022134004D07B68180000F0CBFEEFE02C
:105890007B681B689B68BB60FB68002B00D1AFE096
:1058A000BB680122134005D13A6990235B00134085
:1058B00000D1A5E07B69012213400ED03A69802314
:1058C0005B00134009D07B681B6801221A627B6869
:1058D000DB6E01221A437B68DA667B690222134081
:1058E0000DD0BB680122134009D07B681B680222DF
:1058F0001A627B68DB6E04221A437B68DA667B6976
:10590000042213400DD0BB680122134009D07B68EC
:105910001B6804221A627B68DB6E02221A437B68D2
:10592000DA667B690822134011D03B6920221340BC
:1059300003D1BB680122134009D07B681B68082291
:105940001A627B68DB6E08221A437B68DA667B6822
:10595000DB6E002B00D18AE07B692022134007D048
:105960003B692022134003D07B68180000F05AFEE8
:105970007B68DB6E0822134005D17B681B689B683F
:105980004022134032D07B68180000F031FD7B6864
:105990001B689B684022134023D07B681B689A6871
:1059A0007B681B6840218A439A607B685B6E002B92
:1059B00012D07B685B6E304A9A637B685B6E18001E
:1059C000FCF7C8FF031E19D07B685B6E9A6B7B687F
:1059D0005B6E1800904711E07B68180000F05EF8DD
:1059E0000CE07B68180000F059F807E07B681800AD
:1059F00000F054F87B680022DA6638E0C04636E0F2
:105A00007A6980235B03134016D0BA688023DB03D6
:105A1000134011D07B681B68802252031A627B6896
:105A20006922202199547B686A22202199547B683D
:105A3000180000F073FE1BE07B698022134008D041
:105A40003B698022134004D07B68180000F07BFD86
:105A50000EE07B69402213400AD03B69402213408C
:105A600006D07B68180000F0C4FDC04600E0C046C8
:105A7000BD4606B080BDC0461965000880B582B03D
:105A800000AF7860C046BD4602B080BD80B582B030
:105A900000AF7860C046BD4602B080BD80B582B020
:105AA00000AF7860C046BD4602B080BDB0B58CB0D6
:105AB00000AFF8610023FB62132318229446BC4414
:105AC000634410221A700C2318229446BC44634489
:105AD00000221A80102318229446BC4463440022FA
