:020000040800F2
:100000000050002041760008992D00089B2D000823
:1000100000000000000000000000000000000000E0
:10002000000000000000000000000000CF6E00088B
:100030000000000000000000D16E00089F2D0008A5
:100040009176000891760008B72D00089176000897
:1000500091760008BF2D0008CF2D0008DF2D000885
:10006000917600089176000891760008AF2D00087F
:100070009176000891760008917600089176000844
:100080009176000891760008917600080000000043
:100090009176000891760008917600089176000824
:1000A0009176000891760008917600089176000814
:1000B000A72D000891760008000000009176000846
:1000C00010B5064C2378002B07D1054B002B02D02E
:1000D000044800E000BF0123237010BDB0000020E1
:1000E0000000000068820008044B10B5002B03D00C
:1000F0000349044800E000BF10BDC04600000000F6
:10010000B40000206882000802B471464908490022
:10011000095C49008E4402BC7047C0460022430877
:100120008B4274D303098B425FD3030A8B4244D3BF
:10013000030B8B4228D3030C8B420DD3FF22090201
:1001400012BA030C8B4202D31212090265D0030BC0
:100150008B4219D300E0090AC30B8B4201D3CB03B6
:10016000C01A5241830B8B4201D38B03C01A5241F8
:10017000430B8B4201D34B03C01A5241030B8B42FA
:1001800001D30B03C01A5241C30A8B4201D3CB02E5
:10019000C01A5241830A8B4201D38B02C01A5241CA
:1001A000430A8B4201D34B02C01A5241030A8B42CD
:1001B00001D30B02C01A5241CDD2C3098B4201D3E5
:1001C000CB01C01A524183098B4201D38B01C01A63
:1001D000524143098B4201D34B01C01A52410309DA
:1001E0008B4201D30B01C01A5241C3088B4201D389
:1001F000CB00C01A524183088B4201D38B00C01A36
:10020000524143088B4201D34B00C01A5241411A5C
:1002100000D20146524110467047FFE701B5002069
:1002200000F0F0F802BDC0460029F7D076E770472D
:1002300003460B437FD4002243088B4274D3030947
:100240008B425FD3030A8B4244D3030B8B4228D3E8
:10025000030C8B420DD3FF22090212BA030C8B420E
:1002600002D31212090265D0030B8B4219D300E0AE
:10027000090AC30B8B4201D3CB03C01A5241830B33
:100280008B4201D38B03C01A5241430B8B4201D3E3
:100290004B03C01A5241030B8B4201D30B03C01A0C
:1002A0005241C30A8B4201D3CB02C01A5241830A86
:1002B0008B4201D38B02C01A5241430A8B4201D3B5
:1002C0004B02C01A5241030A8B4201D30B02C01ADF
:1002D0005241CDD2C3098B4201D3CB01C01A524146
:1002E00083098B4201D38B01C01A524143098B42CF
:1002F00001D34B01C01A524103098B4201D30B01B8
:10030000C01A5241C3088B4201D3CB00C01A5241DC
:1003100083088B4201D38B00C01A524143088B42A1
:1003200001D34B00C01A5241411A00D2014652413A
:10033000104670475DE0CA0F00D04942031000D359
:100340004042534000229C4603098B422DD3030AAE
:100350008B4212D3FC22890112BA030A8B420CD3BE
:10036000890192118B4208D3890192118B4204D3E7
:1003700089013AD0921100E08909C3098B4201D367
:10038000CB01C01A524183098B4201D38B01C01AA1
:10039000524143098B4201D34B01C01A5241030918
:1003A0008B4201D30B01C01A5241C3088B4201D3C7
:1003B000CB00C01A524183088B4201D38B00C01A74
:1003C0005241D9D243088B4201D34B00C01A52414B
:1003D000411A00D20146634652415B10104601D3D8
:1003E0004042002B00D54942704763465B1000D362
:1003F000404201B5002000F005F802BD0029F8D008
:1004000016E770477047C0468446101C62468C460B
:10041000191C634600E0C0461FB501F013F8002820
:1004200001D40021C8421FBD10B500F06DFF40424D
:10043000013010BD10B501F005F8002801DB0020E7
:1004400010BD012010BDC04610B500F0FBFF002814
:1004500001DD002010BD012010BDC04610B500F028
:100460008DFF002801DC002010BD012010BDC0461A
:1004700010B500F083FF002801DA002010BD012034
:1004800010BDC046002B11D1002A0FD1002900D188
:10049000002802D00021C943081C07B4024802A169
:1004A0004018029003BDC0465DFFFFFF03B46846DD
:1004B00001B5029800F024F8019B9E4602B00CBCE6
:1004C0007047C04670B500220C4B04000D00FFF7CA
:1004D000CFFF002804D12000290001F0ABFD70BD42
:1004E000064B00222000290001F08EFA01F0A2FD47
:1004F00080231B069C466044F1E7C0460000E041B3
:10050000F0B557464E464546DE46E0B5040083B09A
:100510000D00924699468B422FD82CD04946504622
:1005200001F054FE29000600200001F04FFE331AAE
:100530009846203B9B4600D574E053465A4693406C
:100540001F005346424693401E00AF4229D826D092
:100550005B46A41BBD41002B00DA79E0002200239A
:100560000092019301235A4693400193012342468E
:100570009340009319E08242D0D9002200230092D8
:1005800001930C9B002B01D01C605D6000980199C9
:1005900003B03CBC90469946A246AB46F0BDA34290
:1005A000D6D900220023009201934346002BE8D0C5
:1005B000FB0772081A4346467B080EE0AB4201D1A6
:1005C000A2420CD8A41A9D41012024196D4100219A
:1005D000013E24184D41002E06D0AB42EED9013E1B
:1005E00024196D41002EF8D15B460098019900193D
:1005F0006941002B22DB2B005A46D3402A00444697
:10060000E2401C005B461500002B2CDB26009E40C0
:10061000330026004746BE403200801A99410090C0
:100620000191AEE7424620239B1A5246DA404146EA
:1006300013004A468A4017001F4382E742462023A0
:100640009B1A2A0046469A402300F3401343D5E7FD
:100650004246202300219B1A002200910192012290
:10066000DA40019282E74246202326009B1ADE40B0
:100670002F00B446974066463B003343C9E7C04667
:10068000F8B54546DE4657464E460C03E0B54E00EB
:10069000C90F88460D00610A440F0C43C7001903B7
:1006A0005800DB0F9B464B0A510F0B43760D400D54
:1006B0001900D200D84500D1AEE0351A002D00DC7B
:1006C000F6E000280FD1134300D1DBE06B1E002BB6
:1006D00000D037E1BA1A9742BF41641A7F42E41B47
:1006E0000126170024E0C64B9E424DD080231B04F8
:1006F0001943382D00DD07E11F2D00DD38E12020F2
:10070000431B9A460B0050468340994613004846C7
:10071000EB401843030050468240501E8241E9409E
:100720001A43BA1A611A9742A441170064420C1B7B
:10073000230262D56402650A002D00D1DFE02800A3
:1007400001F026FD0300083B1F2B00DDD2E0202234
:100750003C00D21A9D40D4409F4025439E4200DD7C
:10076000C4E09E1B731C1F2B00DDF1E0202238002B
:100770002900D21AD840914097402C000143781E9E
:100780008741DC4000260F437B0709D00F233B4005
:10079000042B05D03B1DBB42BF417F42E4191F0023
:1007A00023022CD5964B01369E4200D19AE0454655
:1007B000944BFF081C406007760564020743240B36
:1007C000760D00212403230B0C0D8F4A24051C43B6
:1007D0001440330523435B00ED075B082B433800CF
:1007E00019003CBC90469946A246AB46F8BD64460B
:1007F000044300D111E2040067467B07C6D1454699
:100800006007FF080743E4087D4B9E4230D0240375
:100810007605240B760DD4E7331A9A46002B78DD43
:10082000002831D076488642AED0802000040143B3
:100830005346382B00DCE9E00A43511E8A4100216F
:10084000D219BA42BF4109197C4217000C19230280
:10085000D3D56B4B01369E4200D13AE10120694B62
:100860001C407B0807401F43E007074364088BE7F1
:1008700023003B4300D1CBE1802212031443240325
:10088000240B9EE72E007FE70800104300D1B4E060
:10089000581E002800D0DEE0BA18BA429B41641806
:1008A0005B42E418170001262302A6D50226D5E7ED
:1008B000002D6ED1701C4005400D012800DCF9E0D0
:1008C000B81A844687428041E51A40422D1A280210
:1008D00000D489E0D71BBA4292411C1B5242A51A90
:1008E000D84629E74546002400276AE7454CF61A12
:1008F0002C4049E73D002838854000272EE7380086
:1009000001F046FC20301DE70A43511E8A410021B8
:1009100007E7002B00D0F3E0701C43055B0D012BB3
:1009200000DCADE0364B984200D1D1E0BA18BA42B3
:10093000BF4164187F42E419E7075208174364086F
:10094000060021E72E48854200D193E01D00D0E645
:1009500029001F3EF140202B00D18DE04022D31A08
:100960009D402F437D1EAF4100240F43002644E7E6
:100970002B000800203BD8400300202D00D17DE053
:100980004020451BA9400A43511E8A4100211A43B9
:10099000C7E6002E50D01A4EB04257D080266B4288
:1009A0009946360434434B46382B00DDD6E01F2BE6
:1009B00000DD35E12026F51A2600AE40B2463E00A5
:1009C000DE40AC46350056462E436546AF407D1EA0
:1009D000AF41DC403743D71BBA4292410C1B524215
:1009E000A41A0600D846A3E6644667462C4300D006
:1009F000A2E600250026002706E71E00C4E6C04642
:100A0000FF070000FFFF7FFFFFFF0F801F2B63DC4E
:100A10002020C31A080098409C4683465346100085
:100A2000D84003005846184363469A40531E9A41E3
:100A300053460243D94003E726003E4306D0EB432A
:100A40009946002BC7D0944EB042ACD10C00170091
:100A50000600D84698E6904B9A450BD08246E7E6CA
:100A6000002800D09EE01800104300D1E9E01C00EF
:100A70001700D846884E87E6002572E7002182E7F6
:100A800023003B43002E00D0ABE0002B00D1E7E079
:100A90000B00134300D177E6BA18BA42BF4164187D
:100AA0007F42E419230200D4F2E07C4B17001C4083
:100AB000060069E620003843002ED1D100285BD122
:100AC0001C00144300D1A8E01C001700D8465BE6C8
:100AD00006000024002797E650460B002038C3404C
:100AE00099465346202B00D195E0402350461B1ACF
:100AF00099400A43511E8A414B4600211A439FE602
:100B0000002E30D126003E4367D0DB439A46002BAF
:100B10001CD0614EB04260D05346382B00DD96E0C9
:100B20001F2B00DD9FE02026F31A26009E409C46E6
:100B3000B34653463E00DE4033005E461E436346E6
:100B40009F407B1E9F415346DC403743BF1897426E
:100B5000924164185242A418060078E627437C1E8E
:100B6000A741002437E74C4EB04236D080265B4286
:100B700036049A463443CFE71800104300D103E609
:100B8000B81A84466745AD41E01A6D42401B050224
:100B900000D42CE6D71BBA4292411C1B5242A41A25
:100BA000D846F1E51800104300D163E7F80867075D
:100BB00007438020E4080003044208D0DD08054212
:100BC00005D1D208590711430F002C00D8467B0FDE
:100BD000E4001C43FF00304ED6E50C001700060071
:100BE000D2E5002B38D00B00134300D142E7F808C0
:100BF000670707438020E40800030442E7D0CB08DE
:100C00000342E4D1D208490711430F001C00DEE77C
:100C100000270024D5E500216BE700250027F3E538
:100C20004E462500203EF5404B462E00202B2DD071
:100C30004025ED1AAC4027437C1EA74100243743D2
:100C4000C9E6802400252403134E0027DCE5274352
:100C50007C1EA741002479E70C0017000E4E93E597
:100C60000C00170090E556462300203EF3409946BD
:100C70005346202B0ED0402356469B1B9C402743B7
:100C80007C1EA7414B4600241F435FE70024D2E7A8
:100C90001700B2E50024F2E7FF070000FFFF7FFF27
:100CA000F0B557464546DE464E46E0B54C000E03CD
:100CB00087B0834692461D008046360B640DCF0FE9
:100CC000002C4FD06F4B9C4235D08023420F1B0429
:100CD000F600134333439946C30098466A4B0026F7
:100CE0009C460023644403932B031B0B9B466B0021
:100CF000ED0F50465B0D01955ED0624A934253D092
:100D00005A46D1008022400F120402430A43934600
:100D10005246D1005C4A9446002263443800684041
:100D200084460290E41A16430F2E00D9B4E0574BC4
:100D3000B6009B599F460300334399466CD100236C
:100D40009846023308260393CEE7CB464146039AE2
:100D50000197022A65D1019B4A4C9C460023002240
:100D600098466BE00300334399464ED0002E00D1E5
:100D7000BCE1300001F00CFA03000B3B1C2B00DD42
:100D8000ACE11D22D31A5A460100DA4008398E40E0
:100D90001300334399465B468B40984600233C4CF6
:100DA0000026241A03939FE751465A46114329D13E
:100DB000002293460232B1E7594601431ED05B46FA
:100DC000002B00D19EE1584601F0E2F903000B3BF5
:100DD0001C2B00DD8FE102005946083A91408B46FA
:100DE0001D21CB1A5146D9400B0059460B435146A1
:100DF0009B469140264B00221B1A8FE700230122BD
:100E00009B468BE75146032288E70023984601332F
:100E100004260024039367E70323B14603930C26BB
:100E200062E7032A00D15CE2019B012A00D0E4E1E1
:100E300013409C4600230024002298460021120300
:100E4000130B0A0D12051A432305124C404622408B
:100E5000134362465B00D2075B081343190007B0D7
:100E60003CBC90469946A246AB46F0BD002380228A
:100E70009C4612039846034CE0E70023014C0022F5
:100E80009846DBE7FF07000001FCFFFF80820008B7
:100E90000DFCFFFFFFFF0F80D94500D939E100D1DC
:100EA00034E1002346464D469A46013C5B460A0E15
:100EB0001B021A430B02170C039313041B0C39007B
:100EC000280090460193FFF729F90200019B834611
:100ED0005A43280039009146FFF7A6F9350C09045A
:100EE0000D43A9450DD95B464544013BA84500D9B2
:100EF0003AE1A94500D837E102235B429C464544CC
:100F0000E3444B46EB1A390018000493FFF706F947
:100F1000019B05004343390004989946FFF784F983
:100F2000330409041B0C0B43994509D943446A1E39
:100F3000984500D91AE1994500D817E1023D43448C
:100F40004A469B1A5A4612042A4303999346100CA8
:100F50000A0C914609045A46090C4E460D0012042B
:100F6000120C4543059151437243704352190E0CC4
:100F7000B218954203D980256D02AC466044150C29
:100F800009041204090C28185218834200D2CEE03A
:100F900000D1C8E01D1A53469E1AB24592415242F2
:100FA000AB1A9A46984500D117E139001800FFF7AF
:100FB000B5F8019B05004343390050460493FFF701
:100FC00033F904980B04310C1943884209D9414480
:100FD0006B1E884500D907E1884200D804E1023D34
:100FE0004144049BCB1A180039000493FFF796F88C
:100FF000019B82464343390004980193FFF714F99B
:1010000001980B043104090C194388420DD9534649
:101010004144013B884500D9E8E0884200D8E5E03A
:1010200002235B429C464144E244019B2D04CE1ABC
:1010300051462943059D4F462A000B04080C1B0C02
:101040005A4345437B4378435B19170CFB189D4279
:1010500003D980256D02AC4660441D0C12041B04AC
:10106000120C28189B18864200D293E000D18EE023
:1010700001231943A04BE318002B00DC99E04A0739
:1010800000D09EE05A46D20106D55A469B4B1A40E4
:1010900080239346DB00E318994A934268DD0123DD
:1010A000029A984C1A400023944698460022C5E6BE
:1010B00080224B46120313420AD05B46134206D1EC
:1010C0001A431203120BAC4688468E4CB6E64B46CA
:1010D0001A431203120BBC468A4CAFE603005A4671
:1010E000283B9A4000239146984657E6584601F01F
:1010F0004FF8203040E603005246283B9A4000213A
:10110000934677E601F044F820305FE6884500D248
:10111000C7E64B46DE075D0843465B081E43434671
:10112000DB079A46C2E60025924500D333E7039ECB
:101130005946B446E244B245AD416D424544EB18D0
:101140000139984507D2984200D97FE000D1BCE030
:101150001D1A8B461FE79845FAD1039D5545F2D9D4
:1011600043468B461D1A16E79B46CAE61500E7E67E
:101170005A46C90852070A435B0590465C0D5A4619
:101180000123029952021940120B8C4656E6002B9D
:1011900000D16FE746444A1EB04529D91100864266
:1011A00000D065E7039A934200D061E762E701212E
:1011B00049420120C21A382A21DD029B03409C4685
:1011C00038E60F220A40042A00D15BE70A00111D0D
:1011D000914292415242934454E7474BE318002B0B
:1011E000E5DD01225242F2E71D00FAE69A461CE7CD
:1011F000B04239D86ED011003AE702933AE71F2A7D
:101200003CDC20239B1A0C005846994098404B1E0A
:1012100099415B46D440D340204308431A0043071A
:1012200009D00F230340042B05D00100081D88427C
:101230009B415B42D21813023AD50123029A012442
:101240001A400023944698460022F7E502214942BD
:101250008C46039DE344AC46E244AA45AD416D4251
:101260004544ED182D1A96E68A1E03994D008D42CD
:10127000894149424144761803958FE71F20404237
:10128000C31A5846D8400300202A28D040205D4683
:10129000821A954029434A1E91411943072300228F
:1012A0000B4009D00F2300220B400800042BBDD1B6
:1012B000010053075202120BC90819430123884643
:1012C0000299002419408C46B8E55245BED88B4699
:1012D000002560E6039D9D42C6D3110062E700250C
:1012E000D8E780225B4612031A43019B1203120BBC
:1012F0009C468846034CA1E5FF030000FFFFFFFE6C
:10130000FE070000FF070000F0B54F464646D646F0
:101310005C00C0B51F03DB0F9A46174B0E034D0050
:1013200084468046360B6D0DC90F91463F0B640D08
:1013300001209D4208D09C4201D0A5420BD01CBC8C
:1013400090469946A246F0BD63463343F7D1AC427E
:10135000F5D13A43F3D10120BE42F0D1C845EED1D8
:10136000514507D0002DEAD163461E433000461E8A
:10137000B041E4E70020E2E7FF070000F0B5454692
:10138000DE4657464E46E0B51F033D0B2C4F0E037D
:101390004C00AB465D008446360B640DC90F904689
:1013A0006D0DDB0FBC422AD0254FBD422DD0002C45
:1013B0000FD130430700814678427841C0B2002DFA
:1013C00017D15F463A4314D14B460020002B0AD078
:1013D00006E0002D02D15846024301D0994218D0B0
:1013E0004842012108433CBC90469946A246AB4680
:1013F000F0BD0028F2D00120013B1843F3E737008D
:101400000743D1D002204042EDE75F461743CED0DC
:10141000F8E7AC42E4DC03DA481E01210843E2E7C6
:101420005E45DDD806D000205E45DCD20123481E93
:101430001843D8E7C445D3D80020C445F6D3D2E733
:10144000FF070000F0B54E464546DE4657465C00B5
:10145000E0B51F03DB0F99462A4B0E034D00C90F61
:101460008446360B6D0D8B4690463F0B640D9D42B6
:1014700020D0244B9C4222D0002D12D13043434235
:101480004341DBB2002C1FD0002B0CD04B46012077
:10149000013B034318003CBC90469946A246AB462C
:1014A000F0BD002C16D0CB4517D05B465942012326
:1014B0000B43EFE7310002230143EBD1D9E73900B9
:1014C00002231143E6D1D7E73A43DDD100230028B8
:1014D000E0D0EAE73A43E6D1E7E7A542E5DC05DB01
:1014E000BE42E2D807D00023BE42D3D259460123E0
:1014F00001390B43CEE7C445D7D80023C445F5D303
:10150000C8E7C046FF070000F0B557464546DE462F
:101510004E46E0B50C0398464E00230B87B00700FB
:1015200092469B46760DCD0F002E6BD06D4B9E42A2
:1015300035D080245B46420F2404DB0014431C4357
:10154000C3009946684BA3469C4600230027664487
:10155000029343461C035A00DB0F5046240B520DE6
:10156000984600D176E05F4B9A426DD08023410FC0
:101570001B040B435C49E4008C461C43C300002061
:1015800062444146B6186940721C01919446074373
:101590000F2F00D9B0E0554ABF00D25997465B469D
:1015A0000343994600D087E000239B460233082777
:1015B0000293CEE742460192022867D0032800D169
:1015C0000EE2012800D062E10023002400229946A7
:1015D00001990140CDB2002112030B0D120B1B0526
:1015E0001343434A240513401C436400ED07640879
:1015F0002C434846210007B03CBC90469946A24681
:10160000AB46F0BD034399464FD05B46002B00D15B
:1016100089E1584600F0BCFD03000B3B1C2B00DDAC
:101620007AE11D22D31A3A0001005C46DA400839FB
:101630008C4013008F4023439B46B94600232D4E18
:101640000027361A029384E7534623432AD1002405
:10165000022096E75346234320D0002C00D157E1C7
:10166000200000F095FD03000B3B1C2B00DD49E141
:101670001D21CB1A51460200D9405346083A9440E6
:1016800093400C431B4A121A00207AE70125019B64
:10169000144C1D400023002299469CE700240022A0
:1016A00001206EE7534603206BE700239B4601337E
:1016B0000427002602934CE7032381460C2702935C
:1016C00047E780220023002512039946054C82E754
:1016D0005C464B4602986FE75C464B460195029884
:1016E0006AE7C046FF07000001FCFFFFC082000858
:1016F000FFFF0F800DFCFFFF4A464946170C1A0CEE
:101700001B041B0C08041900000C414315008846FB
:1017100019007D4379430395894629001500454307
:101720004D44029545462D0CAA46029D5544A945B7
:1017300006D98A46802149028946CA445146039106
:10174000290C0491414609042D04090C88462900FE
:10175000250C24044144240C059121004143884672
:10176000210079438A466843414650448146080C2B
:1017700048446F43824503D98021490289464F443A
:10178000010C894639004944029141460F040499ED
:101790003F0C88460004C0198044414604915946D4
:1017A0000F0C0904090C884659438A4639005143F5
:1017B000894641464A435146090C8B467B43D21821
:1017C0005A44934203D980235B029B46D944514635
:1017D0000904090C8A46414661437C43130C1204F8
:1017E0004B445244A1468A463C0041466C434D431B
:1017F00051464D440F0C7D19A94503D9802149025A
:1018000088464444049F0399B84641448B46834527
:10181000804141428846514608042F04000C3F187D
:101820005846029910188946904292414F44BA4650
:10183000524299469346C244D144CB448F42BF4161
:10184000C245894199459B41934592417F42494216
:101850002D0C52420F435B4213437F19FF185B4626
:101860003C19DB0D059A64021C43430213435D1EC1
:10187000AB415A46C00D034352021343E20156D511
:1018800001205A0803401343E207134364085A48EF
:10189000604400284DDD5A0709D00F221A40042A5F
:1018A00005D01A1D9A429B415B42E4181300E201E5
:1018B00004D58020514AC00014406044504A9042F0
:1018C00000DDE3E60125DB0862071A436402019BA1
:1018D0009146220B4405640D1D407CE6802259464A
:1018E0001203114208D0144206D122431203120BF4
:1018F00045469946434C6EE65B461A431203120B6B
:10190000404C68E603005446283B9C400023B9E65F
:1019100000F03EFC2030A6E60300283B9F40002359
:10192000BB4699468AE600F033FC203074E6B446A4
:10193000ADE701252A1A382A06DD019B00241D4047
:1019400000230022994646E61F2A21DC202520009C
:10195000AD1A1E00AB40A840D6405D1EAB413043DF
:101960001843D440430709D00F230340042B05D06C
:101970000300181D98429B415B42E418230221D5C5
:101980000125019B01241D4000230022994622E6E7
:101990001F2521006D42281AC1400800202A1DD0B1
:1019A0005F35AA1A944023435C1EA34107250343D5
:1019B0001D400022002D09D00F2200241A401800DB
:1019C000042AD6D1030065076402220BDB082B43EF
:1019D00001259946019B00241D40FCE50024E2E717
:1019E000802201251203224301991203120B0D409C
:1019F0009946044CEFE5C046FF030000FFFFFFFEE1
:101A0000FE070000FF070000F0B54646D6464F46E9
:101A10000C03C0B5CD0F4E00610A440F0C43C1004A
:101A20005800400D84468A460F001903500F490A9A
:101A30000143C648760DA846DB0FD200844500D18D
:101A4000D8E001204340AB4200D1A6E06046351A01
:101A5000002D00DC05E1002810D10B00134300D15C
:101A6000D7E06B1E002B00D04BE153469F1ABA45BE
:101A70008041641A4042241A01261EE0B34B9E4264
:101A800048D080231B041943382D00DD19E11F2D98
:101A900000DD4CE120230F005B1B10009A409F40AB
:101AA000E840531E9A41E940074317435346DF1B62
:101AB000611ABA45A44164420C1B230200D4C5E05C
:101AC0006402650A002D00D1F6E0280000F060FBFA
:101AD0000300083B1F2B00DDE9E020223C00D21A66
:101AE0009D40D4409F4025439E4200DDDBE09E1B8D
:101AF000731C1F2B00DD0AE120223800D21A2900B6
:101B000097402C009140D8407A1E9741DC40002637
:101B100001430F437B0709D00F233B40042B05D023
:101B20003B1DBB42BF417F42E4191F00230225D564
:101B3000864B01369E4200D1AFE0854B01251C400B
:101B400043466207FF08640276051743240B760DAF
:101B50001D4000212403230B0C0D7E4A24051C4349
:101B60001440330523435B00ED075B082B4338002B
:101B700019001CBC90469946A246F0BD012543467B
:101B80006207FF081743E4081D40704B9E4236D0A1
:101B900024037605240B760DDBE76346F31A002B4E
:101BA00000DC94E06046002835D068488642B1D019
:101BB00080273F043943382B00DCFDE00A4317003F
:101BC00000217A1E974157445745804109194442E4
:101BD0000C1923023AD55D4B01369E4200D14BE1F0
:101BE00001225B4B1C407B0817401F43E207174351
:101BF00064088FE70800104300D024E721E72300A2
:101C00003B4300D1B9E18022120314432403240B87
:101C10009FE72E007EE70800104300D1CAE0581E5F
:101C20008446002800D0E7E05244524580416418C1
:101C30004042241817000126230207D50226CFE7C9
:101C400064462C4300D1B3E12C0067467B0700D0EB
:101C500062E76307FF081F4301254346E4081D4070
:101C600093E7002D78D1751C6D056D0D012D00DCFD
:101C7000F2E05046801A8245BF41651A7F42ED1B53
:101C80008446280200D48CE05046171ABA4292418A
:101C90000C1B5542651B984614E70125434600245A
:101CA0001D40002755E72A4CF61A2C4032E73D002C
:101CB00028388540002717E7380000F069FA2030FF
:101CC00006E70A43170000217A1E9741EEE6002B33
:101CD00000D0E5E0731C9C465B055B0D012B00DC2E
:101CE0009FE01A4B9C4500D1C5E0524452458041CB
:101CF000641840422418E7075208174364086646F0
:101D000008E71248854200D185E01D00BCE62900A5
:101D10001F3EF140202B00D17FE04022D31A9D408E
:101D20002F437D1EAF4100240F4300268EE72B007A
:101D30000F00203BDF40202D71D040235D1BA940C8
:101D40000A43511E8A4100211743AFE6FF070000F6
:101D5000FFFF7FFFFFFF0F80002E3ED0B34EB44544
:101D600045D0802636046D423443382D00DDA8E08E
:101D70001F2D00DD1FE1202627005046761BB740AF
:101D8000E84007435046B040461EB041EC4038435F
:101D9000171ABA4292410C1B5242A41A6646984640
:101DA0008BE6644667462C4300D08BE60025002670
:101DB0000027EAE61E00ADE61F2B60DC2027F81A9C
:101DC0000F00844687401000D84007436046824099
:101DD000501E8241D9401743F5E62600504606437F
:101DE00005D0ED43002DD3D0904EB445BDD10C00AD
:101DF0001700664698468DE68C4883420BD06346B2
:101E0000D9E6002D00D096E00800104300D1E2E0B2
:101E10000C0017009846854E7CE6002580E70021DF
:101E20008EE7230050460343002E00D0A8E0002B8D
:101E300000D1DEE00B00134300D16BE65244524563
:101E400080416418404224181700230200D4FDE6A4
:101E5000774B66461C405DE6250050460543002E44
:101E6000CFD1002D4FD10C00144300D1A0E00C00C5
:101E7000170098464EE666460024002785E61F00B8
:101E80000800203FF8400700202B00D18EE04020C2
:101E9000C31A99400A43511E8A410021174392E612
:101EA000002E14D126005046064362D0DB43002B9F
:101EB0005CD187189742924164185242A418664632
:101EC00087E650462043441EA041002460E7574E59
:101ED000B4454ED0802636045B423443382B00DDB7
:101EE0007FE01F2B00DD8BE0202627005046F61AEE
:101EF000B740D84007435046B040461EB041074364
:101F0000DC40BF18D6E70D00154300D102E650466D
:101F1000801A8245BF41651A7F42ED1B8446280224
:101F200000D48DE65046171ABA4292410C1B524219
:101F3000A41A9846EEE50D00154300D16BE7504614
:101F40006707C00807438020E4080003044207D065
:101F5000CD08054204D12C009846D70849070F4305
:101F60007B0FE4001C43FF00304ED3E52F4EB445F9
:101F7000B4D10C0017006646CCE500270024E8E544
:101F8000002B39D00B00134300D144E7C00867078A
:101F900007438020E40800030442E1D0CB08034259
:101FA000DED1D70849070F431C00D9E7002171E7AC
:101FB00000250027E9E52E002700203EF740202DD0
:101FC0002FD04026751BAC4050462043441EA041F4
:101FD00000243843DCE6802400252403134E002728
:101FE000D3E5504620430700781E87410024BF18E0
:101FF00060E70C0017008DE50C0017000B4E89E51B
:102000001E002700203EF740202B0CD04026F31A5C
:102010009C4050462043441EA04107430024BF1863
:1020200048E70024D0E70024F3E7C046FF0700009C
:10203000FFFF7FFF30B5134D0A034B00120B5B0D02
:10204000C90F0024AB4210DD0F4CA3420FDC8024EB
:102050000E4D64032243ED1A1F2D0BDD0C48C31AED
:10206000DA405442002900D11400200030BD094B51
:10207000CC18FAE7084CE840A44663449A4002436F
:10208000EFE7C046FE0300001D040000330400001B
:1020900013040000FFFFFF7FEDFBFFFF70B500287A
:1020A00030D0C317C4185C40C50F200000F070F892
:1020B000174B184A1B1AD21A1F2A18DD164AD21AB1
:1020C0009440002224035B05240B5B0D00211000CB
:1020D00024030A0D240B12052243104C1B05224039
:1020E00013435B00ED075B082B43190070BD210013
:1020F00091400A000B21081AC4405B052403240BFD
:102100005B0DE3E70025002300240022DEE7C04644
:102110001E0400003304000013040000FFFF0F80C2
:1021200010B5041E28D000F033F8154B154A1B1AC1
:10213000D21A1F2A15DD144AD21A94400022240311
:102140005B05240B5B0D0021100024030A0D240BFA
:10215000120522430D4C1B05224013435B00590816
:1021600010BD210091400A000B21081AC4405B05F4
:102170002403240B5B0DE6E7002300240022E2E7A2
:102180001E0400003304000013040000FFFF0F8052
:102190001C2101231B04984201D3000C10391B0A97
:1021A000984201D3000A08391B09984201D300095B
:1021B000043902A2105C40187047C04604030202B2
:1021C00001010101000000000000000010B500291D
:1021D00003D1FFF7DDFF203002E0081CFFF7D8FF36
:1021E00010BDC0467047000030B587B014220021F2
:1021F00001A805F086FA03230293C0230125A0203D
:10220000104CDB010193E36A01A92B43E362E36A0B
:10221000C0052B400093009B02F0E0FEE36AAB4355
:10222000E3628023626BDB031343636302F0D4FB3E
:1022300002F0DAFB02F0E0FB636B034A13406363D6
:1022400007B030BD00100240FFFFBFFF10B50248CD
:1022500005F0AAF9FEE7C046008300080100FF234D
:1022600099430B000200581E8341D800074B1A42C5
:1022700001D004231843064B1A4201D0022318430D
:10228000044B1A4201D0012318437047F0F0FFFFBE
:10229000CCCCFFFFAAAAFFFF30B5214C87B0214B61
:1022A000A0422AD00CD8A024E405A04217D0802553
:1022B000DC6A2C43DC62DB6A2B400593059B16E04D
:1022C000194CA04222D0194CA042F0D10825DC6A5A
:1022D0002C43DC62DB6A2B400493049B07E001255E
:1022E000DC6A2C43DC62DB6A2B400193019B1160AA
:1022F000110002F073FE07B030BD0225DC6A2C43EA
:10230000DC62DB6A2B400293029BF0E70425DC6A67
:102310002C43DC62DB6A2B400393039BE7E7C04658
:10232000000400500010024000080050000C005053
:1023300070B508001C000D001600FFF78FFF084B5A
:1023400080001C50002C0AD0280000F01DFC040066
:102350000022310002F02EFC200002F05BFC70BD78
:10236000CC00002010B5FFF779FF034B8000C35865
:10237000002B00D0984710BDCC00002010B5D2B281
:1023800002F0E8FE10BD0000F8B5234F0600002261
:1023900038000D0003F044FF0022310038006C6863
:1023A00003F068FF00222900380003F039FF6B6852
:1023B0009C42F1D1F378194F5F430337BF089B0765
:1023C00027D017493D227078013842430132D30F9C
:1023D0009B18B2785B10013AD2199A180B00400092
:1023E000C34003210B40D31A0E4A29785A43E123F4
:1023F0001B014B433C21687841435B18A9780A4D87
:102400005B189B18990D980200232A1B80185941CC
:10241000F8BD0649D6E7C04638010020B5050000E2
:10242000A0AA990080510100FF030000505544000C
:102430000320704710B5410E7D22C0010023FEF736
:1024400021F810BDFA22830592009B0D5343800AA8
:1024500050439B0A181870477FB501A96846FFF7DB
:1024600093FF024B1B68C01A07B000BD5C0100203F
:102470007FB501A96846FFF787FF07B000BD0000E0
:10248000802110B5074C4900200003F021FC216891
:10249000054BCA68D2B213438022CB60034B920231
:1024A0005A6110BD380100207FFEFFFF000401408B
:1024B000F0B5484D87B006000023EC5EFFF7CCFF77
:1024C0000334301A0021844200D30121042004F097
:1024D00057FD04F06BFD012802D10022AB5EF61A15
:1024E0003D4B5A799F6801929A799C7E0292DA79E3
:1024F0001D7903925A7EDB7E00920493FFF7C0FFA2
:102500003649B205CF1B920DBA18B30A344E92B2B7
:10251000A0B20591B3423ED83249ADB28B423FD80A
:1025200069468E883B2B40D8970ABC02141B029A3E
:10253000A4B2BF18FF18BFB23B2F3AD83B2E3DD8EC
:10254000172D40D8049B9B0742D1274B009A9B181C
:10255000013B1978884202D9FDF750FF88B2059BEC
:1025600022491C1BA0231B058B614B1CD8776B4693
:102570001B7B0022CB7080231D485B004C608F705A
:102580004E700D70CA614A614B62CA600A6103F005
:1025900075FD07B0F0BD174901305B1880B2B9E78F
:1025A000154C01351B19ADB2B8E701363C3BB6B24C
:1025B000B8E73C3F0136BFB2B6B2BDE73C3E01359D
:1025C000B6B2ADB2BAE7183D0130ADB280B2B7E7EE
:1025D0000A4BBBE70E0100205C010020FF03000056
:1025E0007F5101000F0E00001C8300081001002025
:1025F0003801002080AEFEFFF0F1FFFF10830008DD
:10260000042010B5002104F0BBFC8022094B0A48CD
:1026100092025A6103689A68D20409D5DA68D20531
:1026200006D5D968054AC9B20A43DA6000F0A4FAAF
:1026300010BDC04600040140380100207FFEFFFFAE
:1026400070B5410E7D220023C001FDF71BFF040081
:10265000FFF70EFF0500FFF70BFF401BA04200D362
:1026600070BDC046F7E7000010B5044C2000211DE6
:102670001830FFF789FE206010BDC0465C010020C5
:10268000F0B51B4F87B03C78002C2FD1194D1A4B59
:1026900028002B601F23AB60184B0126EB606C6099
:1026A0002C61AC61EC6103F0A9FB6B46694622002A
:1026B0002800DC705E709E701E7003F073FC01A930
:1026C000220028000C704C708C70CC704C600C6137
:1026D000CC6003F0E9FB280003F0EEFD8021280028
:1026E000490003F0F5FAFFF7BFFF3E7007B0F0BDF9
:1026F0000C0100203801002000280040FF030000EA
:10270000014B18687047C0465C01002070B586B068
:102710001422002101A804F0F4FFA0240223E40500
:10272000029301AA013308210F4804938025FFF783
:10273000B3FD01AA20004021FFF7AEFD01AA200051
:102740008021FFF7A9FD012600232D0201AA2900FF
:10275000200003930296FFF79FFD3200290020001E
:10276000FFF70CFE06B070BD000400501A4B1B486A
:1027700010B503601A4B1B491A6800238A4203D91B
:1027800001335208072BF9D15A079907D20FC90F05
:10279000090152010A4301210B40DB001343C361CD
:1027A00000238222836003614361C360836203620A
:1027B0004362802352004260FC3282610A4A5B011C
:1027C000516B0B43536303F0DDFD002801D0FFF78D
:1027D0003DFDFFF79BFF10BD003001407801002058
:1027E00004000020809698000010024010B50E21D1
:1027F0001624012386B069446C445B4208802200A1
:1028000000930348023303F0FDFD208806B010BD9D
:10281000780100207047704710B5054804F0C4FEE9
:102820000322044B1A700022034B1A7010BDC046DD
:10283000B8830008F0010020F801002010B5054819
:1028400004F0B2FE0422044B1A700022034B1A70EB
:1028500010BDC046CE830008F0010020F801002022
:1028600010B5044804F0A0FE0023034A1370034A85
:10287000137010BDA9830008F8010020F0010020AA
:1028800010B50024054B06481C7004F08DFE054B66
:102890005B6B9847044B1C7010BDC046F8010020CC
:1028A0009C83000894840008F00100202248234BF8
:1028B000F0B50360224B234E4360234B8BB0836003
:1028C000224B0024C360224B01250361214B43614D
:1028D000214B8361B368984773692048984700216A
:1028E0001F4A204B5156204A1B8808920822029208
:1028F0001E4A079406940594039404950195127852
:10290000280052B20092776A2200B8470022184B82
:1029100028009A56134B19880823089407940694A4
:102920000494039402940193009409950595346AE4
:102930002B00A0470BB0F0BDD401002019280008DF
:102940003D280008948400084D2A000861280008EA
:1029500081280008152800081728000800A1BC33AA
:1029600002000020D0010020B80B00000000002071
:102970000100002007B502F011F800F06FF900F037
:10298000E5F9FFF793FFFFF72FFC034B0020DB6B0C
:1029900001939847FEE7C0469484000870B5040090
:1029A000102004F09BFE0A4B050018602278637823
:1029B00012021343E6784380A37806730371300054
:1029C00004F08CFE3200211DA86004F091FE70BD61
:1029D0003006002010B5174CC8B02368002B04D176
:1029E000154804F0E1FD48B010BD144804F0DCFDCA
:1029F0002168134C8A684B8810790690D07805902E
:102A00009078049050780390127808A802920A7B7C
:102A100001920A790B490092226804F035FF08A858
:102A200004F0C2FD084804F0BFFD236801332360B1
:102A3000D9E7C04630060020EF830008FF83000876
:102A4000F40100200D840008CA83000810B5032992
:102A500016D90024184B1C70FFF7A0FFFFF7BAFF30
:102A6000164B1B681879062822D8FDF74DFB1E046B
:102A70000A210F141900124B12481C7004F094FD27
:102A800010BD04220E4B10481A70F7E705220C4BBC
:102A90000E481A70F2E70522094B0D481A70EDE74F
:102AA0000222074B0B481A70E8E7FFF793FFE7E7AE
:102AB000034B1C70E4E7C046F801002030060020FC
:102AC000F0010020288300083A83000850830008A2
:102AD00069830008868300080020704707B50190CD
:102AE0000198FFF7ADFD07BD80230A4A5B05916B96
:102AF00010B50B43936302F03FFB02F04FFB08233A
:102B0000054A11680B43136002F03EFB00F04CF8DD
:102B100010BDC0460010024000200240042300B552
:102B200099B00A93002314930133FF330AA80C933E
:102B300002F078FB002801D0FFF788FB20230193E7
:102B4000802301A85B02029302F0F0FE002801D06E
:102B5000FFF77CFB8023074ADB02116D02200B4349
:102B600013650022110002F025F8022002F052F84D
:102B700019B000BD0010024010B504F051FC10BDAA
:102B800010B5FFF7EFFB10BD013800B5072807D8D7
:102B9000FDF7BAFA0808060406060604062000BD7A
:102BA0000720FCE70520FAE7F0B5012702260425F7
:102BB0008BB01422002105A804F0A3FD8022214C33
:102BC000A020E36A05A93B43E362E36AC0053B40FA
:102BD0000193019BE36A3343E362E36A3340029368
:102BE000029BE36A2B43E362E36A2B400393039B5C
:102BF000E36A1343E362E36A13400493049B0323F1
:102C00000693114B059302F0E9F9104B05A9104802
:102C1000059302F0E3F905A90E4802F0DFF905A9D2
:102C20000D4802F0DBF98022E36ABB43E362E36A0A
:102C3000B343E362E36AAB43E362E36A9343E36271
:102C40000BB0F0BD00100240FF9F0000FFFF00002E
:102C50000004005000080050001C005000B595B062
:102C60001422002101A804F04CFD3822002106A8FE
:102C700004F047FD02230693109380231B030122D7
:102C80001293802309921B040F3206A80A92139311
:102C900002F0C8FA002801D0FFF7D8FA8023114AC1
:102CA0005B05916B0B4393630F4B10491A681140FE
:102CB000802212010A431A6010211A0053680B4047
:102CC000FCD10F220121019201A80C3A0292039338
:102CD0000493059302F052FD002801D0FFF7B6FAE5
:102CE00015B000BD0010024000700040FFE7FFFF7C
:102CF000124910B50B78002B1ED1012210480A7022
:102D00001049036401608021090641600721C36105
:102D100083618360C36003624362C3620363802391
:102D20008263026103324261074AC163516B9B00B7
:102D30000B43536301F06AFE10BDC046F901002049
:102D4000FC010020002401400010024037B5104C67
:102D50002578002D1BD1FFF7CBFF0E4B1B6801938D
:102D60009847FFF703FDFFF78BFC04F009FCFFF722
:102D700039FA280000F04EF9012000F04BF902204A
:102D800000F048F9032000F045F90123237037BD16
:102D9000FA010020948400087047C046FDE710B592
:102DA00001F00CFE10BD10B500F0AEF810BD10B56E
:102DB00000F0A2F810BD10B5FFF722FC10BD10B551
:102DC000012002F0CDF9022002F0CAF910BD10B5C1
:102DD000042002F0C5F9082002F0C2F910BD10B5B8
:102DE000102002F0BDF9202002F0BAF9402002F0D4
:102DF000B7F9802002F0B4F98020400002F0B0F969
:102E00008020800002F0ACF98020C00002F0A8F918
:102E10008020000102F0A4F98020400102F0A0F916
:102E20008020800102F09CF98020C00102F098F916
:102E30008020000202F094F910BD00008022104BA7
:102E4000520019680A431A60DA680E490A40DA60CB
:102E50001A680D490A4001211A609A688A439A60EB
:102E60001A680A490A401A60DA6809490A40DA60B1
:102E700000221A618022074B12059A607047C046F3
:102E8000001002400C40FF88F6FFF6FEFFFFFBFF3C
:102E9000FFFF02FF00ED00E00B4B10B518600B4880
:102EA0000B4B0360E1235B02436000238360C3603C
:102EB000036183610833436103F0D2FF002801D02E
:102EC000FFF7C4F910BDC0465C020020600200207C
:102ED0000044004010B50A000100024803F01AFC4B
:102EE00010BDC0466002002010B5024B1B68984719
:102EF00010BDC0465C02002010B5024B186E01F0F8
:102F0000A5FF10BD6002002010B5024803F0D4FCFC
:102F100010BDC0466002002030B589B014220021E7
:102F200003A804F0EEFB0122124BA025D96A042469
:102F30001143D962D96AED05114001910199D96A0D
:102F400028001143D962DB6A03A91A400292029B4E
:102F500002230493013306930394079402F03EF88E
:102F6000082303A928000393079402F037F809B057
:102F700030BDC04600100240F0B50125224B85B09F
:102F8000DA6A06002A43DA62DA6A00272A400192E6
:102F9000019ADA6A2A43DA62DA6A2A400292029ACB
:102FA0008022996B92020A439A631A6B2A431A632E
:102FB0001B6B2B400393039BFFF7AEFF134C144B8B
:102FC000200023601023A360703323617C3B636087
:102FD000E7606761A761E761276201F025FE2A00CB
:102FE000390034660B20A66201F0E4FD0B2001F0ED
:102FF00011FE2A0039001C2001F0DCFD1C2001F02C
:1030000009FE05B0F0BDC04600100240D00200200D
:103010008000024000B502008BB003280CD81B4B87
:10302000D96AFDF771F8021B232B02200143D962F4
:10303000DB6A03400193019B154B5100CB5A920070
:103040000593012306930023079303330893114B41
:1030500005A9D05801F0C2FF0BB000BD012001430B
:10306000D962DB6A03400293029BE5E70220014339
:10307000D962DB6A03400393039BDDE7022001432F
:10308000D962DB6A03400493049BD5E70010024039
:103090008A8400080800002005207047012070473E
:1030A00070B50500092000F009FA06004D2000F077
:1030B00005FA7F2204000E203240EEB2B042B64143
:1030C0007142C90111437022114349B200292DDA1E
:1030D0000723112D19DD1C43E4B2E3435B0718D12C
:1030E0002A1C142D00DD142253B2052B00DA052210
:1030F0000F23053A99431143C9B2092000F08BF917
:1031000021004D2000F087F970BD9C43230004246A
:10311000E1E72B1C112D00DD11235AB2022A00DA3F
:1031200002230F22023B91431943E5E7291C0E2D90
:1031300000DD011C0B0601D5024B19784B1C7021D8
:10314000F2E7C0469284000830B587B0142200210F
:1031500001A804F0D6FA154800F00AF9144B01242E
:1031600002930323134D01AA280010210493039412
:10317000FFF792F801AA28000221FFF78DF801AAB3
:1031800021002800FFF788F8802101AA89010A4858
:10319000FFF782F88021A020002301AA4901C00581
:1031A00002940393FFF778F807B030BD18000020B1
:1031B00000001110000400500008005010B586B047
:1031C0000F4C1422002101A804F09BFA0D4B01AA18
:1031D000200010210293FFF75FF801AA20000221CE
:1031E000FFF75AF801AA20000121FFF755F88021C6
:1031F00001AA89010448FFF74FF806B010BDC04688
:1032000000040050000011100008005010B51422F6
:1032100086B0002829D1010001A804F072FA012328
:1032200002930233A02001AA0221C0050493FFF7F4
:1032300033F8A02000220221C005FFF79FF801AA61
:1032400002210D48FFF728F8002202210A48FFF763
:1032500095F801AA04210848FFF71EF8002204216E
:103260000548FFF78BF806B010BD002101A804F057
:1032700048FA03230293D5E70008005070B5040014
:103280000D4D0368002228001021FFF751F8280097
:10329000636800220221FFF74BF82800A368002290
:1032A0000121FFF745F88021E368002289010348E6
:1032B000FFF73EF870BDC046000400500008005003
:1032C00070B50500092000F0F9F80B4C032D0AD168
:1032D00001220221030600D404210848FFF74EF81A
:1032E0000123237070BDA020002301220221C0050C
:1032F0002370FFF743F8F5E75C0600200008005054
:1033000010B50200012809D18021A0204901C00583
:10331000FFF734F80520FFF7E1FB10BD8021A02066
:1033200000224901C005FFF729F8F6E7002210B591
:103330000749D3005C58844203D8CB189C68A0424C
:1033400003D30132152AF4D1FEE7187910BDC04627
:1033500020850008054B5A79002A05D130331A78A8
:10336000002A01D101321A707047C0465C06002065
:10337000014B18607047C04610030020014B1879BC
:103380007047C0465C06002030B587B00124142287
:10339000002101A804F0B5F903230E4D01AA210074
:1033A000280004930294FEF777FF210000222800F2
:1033B000FEF7E4FF2000FFF791FB002301AA2100A4
:1033C00028000293FEF768FF0620FFF787FB07B08F
:1033D00030BDC0460008005070B506000C00A020AB
:1033E0008021150009020022C005FEF7C7FF8020DA
:1033F0003043FFF7FBF96519AC4207D18021A020CB
:1034000001220902C005FEF7B9FF70BD2078FFF761
:10341000EDF90134F0E707B56B46D97107330122A6
:103420001900FFF7D9FF07BD114B70B5114998601E
:103430000500FCF7F9FE104B0802C0180D49FCF717
:103440006DFE0C4904002800FCF768FE00022418F9
:10345000210CC9B20620FFF7DEFF210AC9B20720FE
:10346000FFF7D9FFE1B20820FFF7D5FF70BDC046D6
:103470005C060020093D0000841E000070B50600B7
:103480000C00A0208021150009020022C005FEF7D3
:1034900075FF7F203040FFF7A9F96519AC4207D1CD
:1034A0008021A02001220902C005FEF767FF70BD40
:1034B0000020FFF79BF920700134EFE713B56B464E
:1034C000DC1D01222100FFF7D9FF207816BD000086
:1034D00070B50920FFF7F2FF05000620FFF7EEFFA9
:1034E00004000720FFF7EAFF240400020443082039
:1034F000FFF7E4FF1A4B2043C4B25C43000A584371
:103500008034240A002124180920FFF784FF3B207F
:10351000FFF7D4FF40210143C9B23B20FFF77BFFF7
:1035200020263B20FFF7CAFF3042FAD10D48FFF7B3
:103530007BFF3B20FFF7C2FF40210143C9B23B2084
:10354000FFF769FF20263B20FFF7B8FF3042FAD192
:1035500029000920FFF75FFF2000FFF765FF70BD1E
:10356000093D000000A1BC33F0B50D0085B0002876
:1035700003D001285AD000204EE0714C2720268C21
:10358000FFF79CFFF823984301308019FEF786FD72
:103590000B00E11CC97F0200002000293ED16949CF
:1035A000FDF76EF8060030200F00FFF787FFF923C4
:1035B000984335D10020002132003B00FDF760F830
:1035C000060028000F00FEF769FD02000B00300026
:1035D0003900FDF755F80B00611DC97F020000207E
:1035E000002920D10021FDF74BF80022564BFDF7B2
:1035F0008BFF0600E0690F00FEF792FD02000B0052
:1036000030003900FDF74CFB0022504BFDF77CFFEA
:1036100004F0D4FDFCF756FF05B0F0BD0021BFE774
:1036200000204849C8E78021C905DCE7444C636CA9
:10363000073B022B00D97DE0454ADB00D3181E680A
:103640005F680120A36CED0098400193FEF726FD12
:1036500002000B0030003900FDF722FB02000B00D6
:1036600000203849FDF71CFB230006000F004E33F5
:103670001888FEF713FD0022364BFDF701F83200E3
:103680003B00FDF741FF230002900391523318786D
:10369000019B50349B000001C01A23781422591E4C
:1036A0008B411C305B421A402818801AFEF738FD07
:1036B000234B04004C3318780D00431E9841019BA6
:1036C0004000181A8000FEF72BFD02000B002000BE
:1036D0002900FDF7E5FA04F06DFC04000D00184B1D
:1036E0004D3318780430FEF7D9FC22002B00FDF78B
:1036F0000BFF0022002304000D00FCF7AFFE0028A2
:103700001BD00022104B20002900FCF7B9FF32002B
:103710003B00FDF7F9FE029A039BFCF7B1FF002284
:103720000A4BFDF7F1FE0C4A0C4BFCF7A9FF04F025
:10373000C3FC6FE70026002783E700200249E6E785
:103740005C0600200000F03F0000204000408F4059
:1037500008850008000011402B8716D9CEF7EF3FEF
:1037600010B5002804D001280AD00120404206E00C
:103770001120FFF7A3FE4008C0B2404200B210BDC6
:10378000064A074B92681B209A4203D9FFF796FE20
:103790009D38F3E7FFF792FEA438EFE75C060020C0
:1037A00040DD4A1F10B504000120FFF787FE072304
:1037B000010099432143C9B20120FFF72CFE054CBB
:1037C000012023681B699847236800201B689847DD
:1037D00010BDC0461003002010B5064803F05AFE85
:1037E000054803F057FE0020FFF7DCFF0022034BE3
:1037F0001A7110BDC4060020340600205C060020AB
:1038000070B5041E02D1FFF7CDFF70BD0C4D012035
:103810002B681B6898472B6800201B6998472B680A
:1038200020005B6998470120FFF748FE072301004D
:1038300099432143C9B20120FFF7EDFDE5E7C046FA
:103840001003002010B5064803F024FE054803F0DD
:1038500021FE0120FFF7D4FF0022034B1A7110BD97
:10386000C4060020340600205C060020F8B5794C20
:1038700006006579002D03D0012D4FD0002729E0E7
:10388000E31D4020DF7FFFF719FE032108400931C7
:1038900001434020FFF7BFFD4120FFF70FFE3F210E
:1038A00049420143C9B24120FFF7B5FD3520FFF77A
:1038B00005FE3F23184023003E3318701E210D20C3
:1038C000FFF7A9FD230030331D70230031331D7035
:1038D000A58765878022002152005F4803F011FF11
:1038E00001232371002E07D05C4D3100280003F026
:1038F000FDFD280003F05CFD6379002B00D0A2E001
:103900000520FFF77DFF002F07D1554DE16A280004
:1039100003F0ECFD280003F04BFDF8BD2300553308
:103920001B7841273320002B23D0FFF7C7FD3843F6
:10393000C1B23320FFF76FFD19213B20FFF76BFD6C
:10394000636C3120082B6DD8FFF7B8FD7F21014053
:103950003120FFF760FD30200021FFF75CFD606C37
:1039600008281AD8FCF7D0FB10363D444B52595961
:103970005900FFF7A3FD0100B9432943C9B2332021
:10398000FFF749FD1D21D8E748212F20FFF743FD10
:10399000A368344A9818FFF747FD230056331F7871
:1039A000230053331B78002B44D01D211120FFF737
:1039B00032FD4020FFF782FD332101404020FFF718
:1039C0002AFD00210F20FFF726FD00210D20FFF723
:1039D00022FD7FE744212F20FFF71DFDA368224A27
:1039E000D8E744212F20FFF716FDA3681F4AD1E72F
:1039F00044212F20FFF70FFDA3681D4ACAE7442189
:103A00002F20FFF708FDA3681A4AC3E744212F209F
:103A1000FFF701FDA368184ABCE740212F20FFF7FC
:103A2000FAFCBAE7FFF74AFD802149420143C9B2D7
:103A30003120F4E71F211120FFF7EDFC4020FFF7B4
:103A40003DFD3F21B9E70520002F00D10620FFF7FB
:103A5000D7FE62E75C06002018030020C4060020A1
:103A600048060020821E0000B4280000043D00002B
:103A70005E510000127A0000C6A2000070B5254D0C
:103A80000100280003F032FD234C6379002B0AD09B
:103A9000012B23D002232800237103F089FC03208B
:103AA000FFF7AEFE70BD4020FFF708FD0321084080
:103AB0000D3101434020FFF7AEFC4120FFF7FEFC33
:103AC0003E2101404120FFF7A6FC3520FFF7F6FC20
:103AD0003F23184023003E331870DBE723005333A5
:103AE0001B78002B0DD0F5211120FFF794FC40200E
:103AF000FFF7E4FC3321014040200143FFF78BFC3A
:103B0000C8E7F7211120FFF786FC4020FFF7D6FC1D
:103B10003F21F0E7340600205C06002070B50B4C16
:103B20006379012B10D1FA211120FFF774FC40209A
:103B3000FFF7C4FC0325A843C1B24020FFF76BFC8C
:103B400007202571FFF75CFE70BDC0465C060020B3
:103B500010B504000120FFF7B1FC194B02061AD57D
:103B600001225A715A79A24214D05C71012C14D0EE
:103B7000FFF732FE0120FFF7A1FC7F210140012069
:103B8000FFF749FC00214020FFF745FC3021412090
:103B9000FFF741FC10BD0022E3E7FFF71DFE200008
:103BA000FFF78CFC802149420143C9B22000FFF796
:103BB00032FC00214020FFF72EFC0021E7E7C04641
:103BC0005C06002070B51B4B1B4C186021001B4885
:103BD00003F0E6FB21001A4803F0E2FB210019483C
:103BE00003F0DEFB184E0120336800241B68984761
:103BF000FFF7CAFBFFF76CFC0020FFF7D3FD33682B
:103C000012489B689847124D605D2D19FFF7A0FF81
:103C10000334A9786878FFF7FEFB302CF3D100203D
:103C2000FFF796FF00220B4B1A7133685B689847C9
:103C3000023070BD14030020BD4800083406002087
:103C4000C406002048060020100300203000002099
:103C5000D08500085C060020F8B50E0017001D0096
:103C60000400FFF775FF3000FFF7DEFB0520FFF7CC
:103C7000C7FD0120FEF732FF03F049FC06003000CB
:103C800003F04BFCA84204D30124FFF7A5FD20005C
:103C9000F8BD2000FFF764FDB842F0DD0024F4E732
:103CA00070B500240120FFF753FFFF211120FFF71B
:103CB000B2FB0520FFF7A4FD250001263000FEF72A
:103CC0000DFF2C20FFF7FAFB3040A04001340543E4
:103CD000202CF3D1FFF780FD280070BDF0B58DB02A
:103CE000069312AB160004CB04001B8808920193C4
:103CF00014AB1B880CAA059315AB1B780D0002931F
:103D000016AB1B78039317AB1B78049318AB1B7887
:103D10000A9319AB1B780B9319239B18DF7F1D2384
:103D20009B18DB7F0993FFF713FF002C04D0012CB5
:103D300000D18BE00DB0F0BD6A46B24C089B127A00
:103D4000A361E31CDA776A46127B231DDA776A46A1
:103D5000127C631DDA7724216A4652181278A31D5B
:103D6000DF77E31DDA776B469B88E6612384656124
:103D70003000FEF7D5F902000B0006000F0000200E
:103D8000A149FCF78DFF0022A04BFDF7BDFB06907B
:103D900007910598FEF782F902000B000698079933
:103DA000FDF7B2FB00229A4BFDF7AEFBFCF78AFB56
:103DB00032003B00E06297490020FCF771FFFCF7FE
:103DC00081FB84B2210A0220FFF725FBE1B2032028
:103DD000FFF721FB2800FFF7A9FA01001220FFF7E7
:103DE0001AFB0898FFF7A2FA01001320FFF713FB54
:103DF000019B2520190AFFF70EFB6B462620197937
:103E0000FFF709FB029B0399002B00D1FF21322011
:103E1000FFF701FB3020FFF751FB6F210840002125
:103E2000029B8B4200D18039049B1B011843014344
:103E3000C9B23020FFF7EFFA3120FFF73FFB4021F6
:103E400001433120C9B2FFF7E6FA73E7022D00D92A
:103E5000FEE76C4B69461A00097E4D3211706946C7
:103E60001A0089884E32118069461A00097A503248
:103E7000117069461A00097B5132117069461A00A7
:103E8000097C52321170282069461A0009180978F5
:103E90005332117069461A000430091809785432F7
:103EA00011701A006946553217701A00083809183F
:103EB0000978EC1D56325C649E6411700C2E00D99A
:103EC0009CE0052E00D885E0072C7CD132000B3A0F
:103ED000012A7CD801224C331D201A70FFF7EEFA1C
:103EE000069B1D205900029B0827194323011943F3
:103EF000C9B2FFF790FA1E20FFF7E0FA059B3840A1
:103F00009905049B890F9B0019430143300101432C
:103F1000C9B21E20FFF77FFA2620FFF7CFFA394DEE
:103F2000B8432B004C331978C9000143C9B226208D
:103F3000FFF771FA6B461F20197DFFF76CFA019BA2
:103F40002020190AFFF767FA6B4621201979FFF73D
:103F500062FA029B002B03D003992220FFF75BFA41
:103F60002B0053331B78002B0FD04420FFF7A6FA09
:103F7000802149420143C9B24420FFF74CFA2B008B
:103F8000543319782420FFF746FA092C28D1224B04
:103F9000AA68022136209A421ED9FFF73CFA642112
:103FA0003A20FFF738FA07243120062E1BD1FFF7FD
:103FB00085FA0521A0430143C9B23120FFF72BFA4E
:103FC0000C2137203FE7082C01D10C2E82D04C3336
:103FD000002281E70626FAE7FFF71DFA7F21DFE7D7
:103FE00003213620DDE7FFF769FA0321A0430143EF
:103FF000C9B23120FFF70FFA0A21E2E70C26022DA1
:10400000E5D067E75C0600200000F03F000020409C
:1040100000408F4080847E4140DD4A1FF0B50E0095
:1040200089B000930EAB10CB05001B78039204936C
:1040300010AB1F8811AB1B78019312AB1B78029356
:1040400013AB1B78059314AB1B78079315AB1B7848
:104050000693FFF77DFD8A4B30001B68DB689847AD
:10406000002D03D0012D61D009B0F0BD6946854B0C
:10407000039A09791A61009A1E735A61DA1CD17782
:104080006946097A5A1DD1776946097E9A1DD1770A
:10409000169ADC619A621F840398FEF741F80022A9
:1040A000794BFCF7FDFDFCF70DFA86B2310A0420CE
:1040B000FFF7B1F9F1B20520FFF7ADF92000FEF7E7
:1040C0002FF80B00020071490020FCF7E9FDFCF716
:1040D000F9F984B2210A0220FFF79DF9E1B2032029
:1040E000FFF799F9390A2520FFF795F9F9B226204B
:1040F000FFF791F93020FFF7E1F96F21019B0140B3
:10410000002B01D180256D42029B180101432943F8
:10411000C9B23020FFF77FF93120FFF7CFF94021F6
:1041200001433120C9B2FFF776F99DE7554D2B00C9
:1041300040331E70009B022B00D9FEE7009B6A46AD
:10414000DE1D2B00127C4D331A702B006A464E3355
:104150001F802B00127950331A706A462B00127D93
:1041600053331A706A462B00127F54331A706A4612
:104170002B00127A52331A706A462B00127E553386
:104180001A70169B6E64AB65AC642B000C2C72D855
:10419000052C63D9072E5AD122000B3A012A5AD88E
:1041A00001224C331A70059B002B0FD04420FFF7DF
:1041B00085F9802149420143C9B24420FFF72BF918
:1041C000304B242054331978FFF725F91D20FFF7D1
:1041D00075F9049B36015900019B1D200B43190002
:1041E0003143C9B2FFF717F91E20FFF767F9029BA9
:1041F00021019B0019430B2318400143C9B21E2023
:10420000FFF709F92620FFF759F908234C352978DB
:104210009843C9000143C9B22620FFF7FCF8390AC8
:104220002020FFF7F8F82120F9B2FFF7F4F807256E
:104230003120062C14D1FFF741F90521A843014391
:10424000C9B23120FFF7E7F80C2137206BE7082EC1
:1042500001D10C2CA4D04C330022A3E70624FAE7AA
:10426000FFF72CF90321A8430143C9B23120FFF71E
:10427000D2F80A21E9E7009A0C24022AEBD08FE752
:10428000100300205C06002080844E4080847E4124
:1042900030B5FA248BB0A40054430D00FFF7C4F8E6
:1042A00005230293962300205B010200290007905A
:1042B00006900590049003900190009308940300E9
:1042C000FFF7ACFE3120FFF7F9F84025A843C1B253
:1042D0003120FFF7A0F82800F021FFF79CF8A0217B
:1042E0004120FFF798F8084D2100280003F0FEF860
:1042F0000222064B28001A7103F05AF80320FFF738
:104300007FFA0BB030BDC046340600205C060020AA
:1043100070B52B4C2179012902D0022948D070BDFB
:104320006379002B17D0012BF9D153342378022164
:10433000002BF4D01220FFF76EF8224B1B68002BE5
:10434000EDD05C69002CEAD01C20FFF7B7F83F23C2
:104350001840A047E3E7230030331970258E012D64
:10436000DDD1194803F096F82300112031331D7078
:10437000FFF7A4F8230040083233404218701B2096
:10438000FFF79CF805001C20FFF798F82D020F4A54
:104390002843C3B25343000A504380331B0A181802
:1043A00060630C20FFF78AF8383440092070B6E7C4
:1043B0006379012BB3D153342378002BAFD0B9E705
:1043C0005C0600201403002048060020093D000080
:1043D00070B5124B5D79012D11D11220FFF76EF8E7
:1043E0002840041E0E4E0BD005211220FFF713F8B3
:1043F0003368002B03D09B692800002B0BD170BDC4
:1044000004211220FFF707F83368002BF7D09B69CF
:10441000002BF4D020009847F1E7C0465C0600204E
:104420001403002010B50A0001000020FEF7D4FF9D
:1044300010BD0000F7B56B463A4CDE1D3170657952
:104440000700002D03D0012D2ED000201CE0317874
:10445000A5876187E31CDB7F002B18D10121300089
:10446000FFF7E0FF3278531E3F2B14D823003F3371
:1044700025001A703F3538002978FFF7D3FF2B78D5
:10448000A28FA06A9B18A387FFF7F8FAF7BD322026
:10449000FEF7C1FFE6E792B23900234803F0C6F801
:1044A000230020223F33E3E7230055331B783320DA
:1044B000002B2BD0FFF702F841239843C1B23320E1
:1044C000FEF7A9FF19213B20FEF7A5FF2300317855
:1044D000643322201970FEF79EFF00210E20FEF7A4
:1044E0009AFF00210D20FEF796FF0120FEF7E6FF60
:1044F000F823984304D1FFF7A5F90120FEF7EEFA5F
:1045000038003178FFF78EFFA06DBDE7FEF7D6FFCC
:104510004123010099432943C9B23320FEF77BFFB1
:104520001D21D0E75C0600201803002010B50A000A
:1045300001000020FEF7A2FF10BD0000F7B56B469A
:10454000DD1D00238B4C2B702379012B03D0022B14
:1045500000D1FBE0F7BD6379002B24D0012BF9D10A
:1045600040211220FEF757FF1220FEF7A7FF20215F
:1045700028702B78804F814E0B4200D195E012209D
:10458000FEF749FF230056331B78002B00D123711F
:10459000380002F07FFF3368002BDBD01B69002B53
:1045A000D8D09847D6E7631DDB7F754E734F002B3D
:1045B00037D03F20FEF782FF28702B789B0730D43E
:1045C0000B213E20FEF727FF10213F20FEF723FF9F
:1045D000694802F05FFFE31DDD7F002D14D130003C
:1045E00002F058FF25713B68002B03D01B69002B9C
:1045F00000D098472200002330321370220031325D
:104600001370A3876387A5E70D20FEF757FF4021AE
:104610000143C9B20D20FEF7FEFE300002F0C8FED5
:10462000E1E7618F574D002930D1A38F002B2DD1A9
:10463000E31CDB7F002B24D101315348FFF776FFC9
:10464000A08F618F091AC9B22818FFF76FFF638F17
:104650004948A38702F01EFFE31DDB7F002B17D123
:104660003000237102F016FF3B68002BC2D09E6819
:10467000002EBFD03222618FA25600232800B047FF
:10468000B8E73220FEF71AFF6087D9E7A08FD9E795
:104690000D20FEF713FF40210143C9B20D20FEF7A4
:1046A000BAFE300002F084FEDEE71920FEF706FFB6
:1046B000230040B2603318708510002803DA4542A9
:1046C000AD106D426DB21A20FEF7F8FE03B22F490D
:1046D0001B11002D00DA40192200A56862328D42BC
:1046E00032D99D38C018108025001320FEF7E6FE51
:1046F000643528701020FEF7E1FE01000D20FEF762
:104700008AFE29781F4D2800FFF710FF230056333B
:104710001B78002B00D12371380002F0BBFE3368F8
:10472000002B00D116E79E68002E00D112E723006F
:10473000220060331B78643462320021525E5BB227
:1047400021782800B04705E7A438CBE7104802F0ED
:10475000A1FE6379012B03D108211220FEF75BFE35
:1047600000232371054B1B68002B00D1F2E61B6868
:1047700015E7C0465C060020C40600201403002094
:1047800048060020180300209606002040DD4A1F3E
:104790003406002070B52E4C2179012902D002295F
:1047A00040D070BD6379002B13D0012BF9D129487B
:1047B00002F070FE80211220FEF72DFE00232371EF
:1047C000254B1B68002BECD0DB68002BE9D0984709
:1047D000E7E7638F002B09D1A38F002B06D1E31CE1
:1047E000DB7F002B13D11D48FFF7A0FE25003E35CF
:1047F000638FA28F29789B1A19488B420CDD801891
:10480000FFF794FE2B78A28F9B18A387C9E732206D
:10481000FEF754FE6087E9E7D9B28018FFF786FEFD
:10482000638FF2E76379002BBBD125003F35638F9F
:10483000A28F29789B1A0A488B4203DD8018FFF764
:10484000F1FDDFE7D9B28018FFF7ECFDE8E7C046DD
:104850005C060020C40600201403002096060020F9
:104860001803002070B504000D00FFF771F9002C4B
:1048700002D0012C0AD070BD064B0333DB7F002B26
:10488000F9D129003220FEF7C6FDF4E729002320E4
:10489000F9E7C0465C06002010B504000120FFF7D0
:1048A00057F9054B34215C331C70002C00D11221C8
:1048B0003920FEF7B0FD10BD5C06002070B52E4C0F
:1048C0002379012B02D0022B32D070BD6379002BEB
:1048D00020D122003032137022000B2131323E20D1
:1048E0001370A3876387FEF796FD10213F20FEF724
:1048F00092FDE31DDB7F214D002B14D00D20FEF730
:10490000DDFD40210143C9B20D20FEF784FD2800E2
:1049100002F04EFD1A4B1B68002BD6D0DB68002B33
:10492000D3D09847D1E72800237102F0B3FDF1E717
:10493000FEF72AFDFEF7CCFD0020FEF733FF002531
:10494000104EA85D7619FFF703F90335B17870783A
:10495000FEF761FD302DF3D10020FFF7F9F82300B9
:104960005C331878FFF798FF00232371044B1B6812
:10497000002BAAD05B68D2E75C0600204806002026
:1049800014030020D0850008034B10B51B685B683A
:104990009847023010BDC046100300204023064A4D
:1049A00010B5116803200B431360FEF795F8FEF76E
:1049B0009BF8002010BDC04600200240024A136848
:1049C000013313607047C046D8060020014B1868B9
:1049D0007047C046D80600200121024A53688B4325
:1049E00053607047005801400221024A53688B43CC
:1049F00053607047005801400421024A53688B43BA
:104A000053607047005801407047000070B50400C3
:104A10000120002C19D0A36D002B06D122005432A6
:104A2000E36520001370FFF7EFFFA36DDB0604D4EE
:104A3000042223689868104008D01023A26D01203A
:104A40001343A36500235434237070BDA26D5349F2
:104A5000114002220A43A265032299681140504A7C
:104A6000012902D11D680D4219D180266568F6051D
:104A700069004908B14203D0802109068D4272D1F4
:104A8000196989008908196119690D431D61182583
:104A9000D968A943D960D968A5682943D960116844
:104AA000404D29401160A16B1568490629431160EA
:104AB000802299685205114202D199680A439A608E
:104AC000DA6839490A402169DA60DD68E26802295A
:104AD00000D10420666B216A32432A434D032A43E6
:104AE000256B6D002A43A569AD032A43E569ED03F3
:104AF0002A430243C220DA60A26AFF30824204D015
:104B0000E56AD8682A430243DA60626A012A06D15C
:104B1000002934D18022D96852020A43DA60216C1C
:104B20001A69012933D12148A56C02401A61626CCF
:104B300018692A43E56C2A4302431A611A69114332
:104B4000196107215A6900208A435A615A69E16B49
:104B50000A435A610322E065A36D93431A000123BF
:104B60001343A36571E71969114E8900890819611A
:104B700011683140116011680D43156087E72021ED
:104B8000A06D0143A165E16D0A43E265C7E701211C
:104B90000A42D6D01A698A431A61D2E7FDFEFFFFA6
:104BA00008270140FFFFFFFD1902FEFF03FCFFFF86
:104BB000FFFFC3FF70B58901002814DA0F23C0B2CC
:104BC0000340083B114A9B089B009B18032210409E
:104BD0009040FC321500114085408140DC69AC43B7
:104BE0002143D96170BD032583082840A840FC35C6
:104BF0002E00074A9B009B18C02286402940814016
:104C000092009C58B44321439950EBE700ED00E03B
:104C100000E100E01F2318401E3B8340014A13605F
:104C20007047C04600E100E0030030B50120002BD2
:104C30002AD0981DC27FD2B2002A01D1591DCA774D
:104C400002221968C2770C68344ADD6814409A68F9
:104C50002A431D692A435D692A439D692A43DD6908
:104C60002A431D6A2A4322430A602D4A91420CD1ED
:104C70000F242C4A1168A143116011685B680B4333
:104C800013600123C377002030BD274A914208D129
:104C9000F024244A1168A14311605B6811681B016C
:104CA000EDE7224A914208D11E4A214C1168214069
:104CB00011605B6811681B02E1E71E4A914208D14E
:104CC000184A1D4C1168214011605B6811681B0374
:104CD000D5E71A4A914208D1124A194C116821406D
:104CE00011605B6811681B04C9E7164A914208D13C
:104CF0000C4A154C1168214011605B6811681B0556
:104D0000BDE7124A9142BCD1064A114C11682140BC
:104D100011605B6811681B06B1E7C0460FC0FFFF5A
:104D200008000240A80002401C000240300002407F
:104D3000FFF0FFFF44000240FF0FFFFF580002405A
:104D4000FFFFF0FF6C000240FFFF0FFF80000240FA
:104D5000FFFFFFF0F0B50225471DFE7F2C00012E5E
:104D60001ED00126841DFE77E57704682568B543CB
:104D7000256063608368102B14D1A260E160022378
:104D8000226813432360042322681343236008230B
:104D90002268134323600123226813432360002405
:104DA0002000F0BDA160E260E9E7000010B5841DBD
:104DB000E37F022B04D00423C363033B180010BD20
:104DC0000E21026813688B43136001231168994315
:104DD000116017498A4211D016490F338A420DD00B
:104DE000154B9A4218D0154B9A4218D0144B9A4240
:104DF00018D0144B9A4218D080235B04124A536097
:104E00000123E3770024826B431DDC771300A24269
:104E1000D4D090472300D1E780235B00EEE78023C6
:104E20005B01EBE780235B02E8E780235B03E5E7B8
:104E3000080002401C0002403000024044000240D2
:104E4000580002406C0002400000024070B5036848
:104E50005B4D5C4E040029680822B34215D05A48C5
:104E60007832834211D0594A934200D184E0584AA3
:104E7000934200D183E0574A934200D182E0564AE0
:104E8000934200D181E080221205114216D0082001
:104E90001968014212D019688143196001236A60C0
:104EA000E26B13430422E363A31DDA770022631D40
:104EB000DA77636B934201D0200098472368296812
:104EC0000422B34211D040483C3283420DD03F4AC5
:104ED00093425DD03E4A93425DD03E4A93425DD0BC
:104EE0003D4A93425DD08022D204114212D0042068
:104EF000196801420ED01968890602D419688143E5
:104F000019606A600522A31DDA77236B002B01D09C
:104F100020009847236829680222B34211D02A480A
:104F20001E3283420DD0294A93423DD0284A9342F3
:104F30003DD0284A93423DD0274A93423DD080221B
:104F40009204114217D002201968014213D0196847
:104F5000890602D41968814319606A600122E36BF3
:104F6000E363A31DDA770022631DDA77E36A9342D5
:104F700001D02000984770BD8022120185E7802271
:104F8000120282E7802212037FE7802212047CE76C
:104F90008022D200A9E78022D201A6E78022D20295
:104FA000A3E78022D203A0E780229200C9E78022F3
:104FB0009201C6E780229202C3E780229203C0E7F3
:104FC00000000240080002401C0002403000024085
:104FD00044000240580002406C000240F0B5554ABF
:104FE0000B688218541EA24185B00193002305323C
:104FF0000392019ADA4001D105B0F0BD01259D4030
:10500000019A2A40009200D191E04A689446102209
:10501000644694432200013C022A1FD107240F2733
:105020001C40A400A740DA0892008218166ABE430A
:105030000F69A7403E43166203245E00B4408268B5
:10504000A243CC68B440224382606246D206D20FAB
:105050009A404468AC432243426001E0012CEBD902
:10506000032634005D00AC406246E4433240AA406F
:10507000076827403A430260C26814408A68AA4021
:1050800014436246C460D20051D501252A4C0F2733
:10509000626B2A431D003540AD00AF406263274A72
:1050A0009C08A400A418A268BA43A0270292FF0596
:1050B0000022B84210D0224F0132B8420CD0214F0A
:1050C0000132B84208D0204F3200B84204D01F4EFF
:1050D0000132B04200D0039AAA406746029D2A439B
:1050E000A2601B4A009C1668009DE4433543FF0301
:1050F00001D435002540674615605668009D35434C
:10510000BF0301D435002540674655609668009D71
:105110003543FF0201D43500254067469560D568C8
:10512000009E2E43BF0201D425402E00D6600133DD
:105130005FE7C04600E4FFAF0010024000000140FE
:105140000004005000080050000C005000100050F7
:1051500000040140002A01D0816170478162FCE7B0
:10516000044B10B55A69104202D05861FDF708FD92
:1051700010BDC046000401401021024A13688B4351
:1051800013607047007000408023034ADB00116801
:105190000B4313607047C046007000408023034AF1
:1051A0009B0011680B4313607047C04600700040BD
:1051B000F022174B30B5D96811420BD000230121E2
:1051C000144802688A431A43026000680840584045
:1051D000084030BD8021C0229D6B49050E4C520114
:1051E0000D420AD023681A40C0235B019A42E5D1E0
:1051F0000A4BC01843424341E1E79D6B2943996341
:105200002168074C0A40996B21409963ECE7C0463E
:105210000010024000200240007000400040FFFFEC
:10522000FFFFFFEFF0B5036885B00400DB074ED445
:1052300023689B0700D59FE02368DB0635D50C2348
:10524000BC4DEA681A4200D0E9E02B689B0502D504
:10525000E369002B50D0E0226B68606A12021340B1
:10526000984200D8C9E0FFF7A3FF002844D16B683B
:10527000B14A1340626A13436B606A68236A120280
:105280001B06120A13436B60636AEA68590B80239A
:1052900001311B028B401206A849120F8A5C0320C1
:1052A000D340A74A1360FDF717FC23681B0700D5FE
:1052B000ECE023685B0700D50FE123689B0600D56F
:1052C00090E1A16A002900D0C0E1002015E00C2186
:1052D000984DEB680B40082B08D08023EA685B02EE
:1052E0000A408A420BD1EA681A4208D02B689B0315
:1052F0009ED56368002B9BD1012005B0F0BD62688C
:105300009A4212D12A6813432B60FFF75FFB802675
:105310000700B6022B68334200D089E7FFF756FB3F
:10532000C01B6428F6D90320E7E7A021C9028A42FE
:1053300005D180222968D2020A432A60E2E729685F
:1053400080480140296029680B400393039B7E49F4
:105350002B680B402B60002AD7D1FFF737FB802644
:105360000700B6022B68334200D161E7FFF72EFB3E
:10537000C01B6428F6D9D6E70C216E4DEA680A40B6
:10538000042A06D0EB680B408B4210D1EB68DB039C
:105390000DD42B685B0702D5E368012BACD16A689A
:1053A00023696A491B020A4013436B6044E7E268C1
:1053B0002B68002A10D009218B4313432B60FFF781
:1053C00005FB042607002B683342E8D1FFF7FEFAFD
:1053D000C01B0228F7D9A6E7012293432B60FFF7F1
:1053E000F5FA042607002B68334200D124E7FFF7C3
:1053F000EDFAC01B0228F6D995E76B684E4A1340B8
:1054000003436B606A68236A12021B06120A134385
:105410006B60FFF7CDFE002800D135E76CE7E3694C
:10542000002B20D080232A685B0013432B60FFF7FA
:10543000CDFA80260700B6002B6833420DD06B688A
:105440003D4A1340626A13436B606A68236A120222
:105450001B06120A13436B6027E7FFF7B7FAC01B5E
:105460000228E9D95FE72B68394A802613402B6070
:10547000FFF7ACFA0700B6002B68334200D114E7FF
:10548000FFF7A4FAC01B0228F6D94CE76269012392
:10549000284D002A10D02A6D022613432B65FFF7F2
:1054A00095FA07002B6D334200D002E7FFF78EFA22
:1054B000C01B0228F6D936E72A6D02269A432A65D0
:1054C000FFF784FA07002B6D334200D1F1E6FFF7B6
:1054D0007DFAC01B0228F6D925E780230021154D4F
:1054E0005B05AA6B00911A4204D1AA6B1343AB630C
:1054F000012300938027174E7F0033683B4208D07A
:105500008022A3685200934226D12A6D13432B6553
:1055100047E033683B433360FFF758FA0190336844
:105520003B42EDD1FFF752FA019BC01A6428F6D92D
:10553000F9E6C04600100240FF1FFFFF6984000823
:1055400004000020FFFFFEFFFFFFFBFFFFE0FFFF67
:10555000FFFEFFFF00700040002B16D12B6D604A4C
:10556000802713402B652B6D5E4ABF0013402B65CF
:10557000FFF72CFA06002B6D3B422AD0FFF726FAE4
:10558000594B801B9842F6D9CDE6A021C9008B4229
:105590000DD18023296DDB000B432B652B6D1A4346
:1055A0002A65FFF713FA80270600BF000EE02B6D77
:1055B0004B4A13402B652B6D4A4A1340A7E7FFF770
:1055C00005FA494B801B984200D9ACE62B6D3B4253
:1055D000F5D0009B012B00D06FE6AB6B434A134024
:1055E000AB636AE6A1690123414D424A002918D004
:1055F000A96802261943A960696B0B436B6380237A
:10560000116A9B010B431362FFF7E0F90700AB68D7
:10561000334200D055E6FFF7D9F9C01B0228F6D96E
:1056200081E6A96802269943A960136A32490B40B2
:105630001362FFF7CBF90700AB68334200D140E6B5
:10564000FFF7C4F9C01B0228F6D96CE60C22284DDE
:105650000120EB681340934200D14EE62B68274AA5
:1056600013402B6002292BD1FFF7B0F980260700E9
:10567000B6042B6833421DD1216BE36AEA680B4301
:105680001F490A401343626B80241343EB6080235D
:105690002A685B0413432B60FFF798F90600A40403
:1056A0002B68234200D010E6FFF790F9801B0228F8
:1056B000F6D938E6FFF78AF9C01B0228D9D932E6B5
:1056C000FFF784F980240600A4042B68234200D14C
:1056D000FBE5FFF77BF9801B0228F6D923E6C046DD
:1056E000FFFEFFFFFFFBFFFF88130000FFFFFFEF40
:1056F0000010024000000140FFDFFFFFFFFFFFFE40
:10570000FFFF02FF0C22184B10B5D9680A40082A87
:1057100026D00C2A06D0042A1AD11B68DB0621D415
:10572000124810BD8A021248120F825C0902D86822
:10573000890F0131C00304D50E485043FAF7EEFC3F
:10574000EFE71B68DB0601D50B48F6E70748F4E7EF
:1057500080205B6800021B045B0F01339840E0E788
:105760000448DEE70448DCE7001002400024F400AF
:105770008184000800127A0000093D00F7B501227B
:10578000534C06002368019113408B4228D33268A2
:10579000930731D4D30737D40123226801991A40E3
:1057A000914200D285E032684A4C530700D587E029
:1057B000130706D5E26833694749DB000A40134303
:1057C000E360FFF79FFFE368444A1B061B0FD35CAF
:1057D000D840434B18600320FDF77EF900200AE013
:1057E0002368019993430B43236023681340019A74
:1057F0009A42CCD00120FEBDF0203649CB688343CD
:10580000B0680343CB60C5E7324D72682B68022A4B
:1058100019D19B03EED50321EB688B431343EB6057
:10582000FFF7D4F873680700022B19D10C22EB683C
:105830001340082BB0D0FFF7C9F82A4BC01B984281
:10584000F4D90320D7E7032A02D19B01E3D4D1E79F
:10585000012A02D15B07DED4CCE79B05DBD4C9E784
:10586000032B0CD10C22EB681340934200D193E739
:10587000FFF7ACF81B4BC01B9842F3D9E1E7012BB3
:1058800011D00C22EB68134200D185E7FFF79EF898
:10589000144BC01B9842F4D9D3E7FFF797F8114B8C
:1058A000C01B9842CDD80C22EB681340042BF4D1D6
:1058B00072E722689A43226022681A429AD172E7FC
:1058C000E36809490B40F1680B43E36070E7C046A9
:1058D0000020024000100240FFC7FFFF698400085B
:1058E0000400002088130000FFF8FFFF044B054A66
:1058F000DB685B055B0FD35C034A1068D8407047D8
:10590000001002407984000804000020044B054A7E
:10591000DB689B045B0FD35C034A1068D840704778
:105920000010024079840008040000200368F7B5E5
:1059300005009B063AD5802300215F4C5B05A26BD6
:1059400000911A4204D1A26B1343A3630123009375
:1059500080275A4E7F0033683B4269D0C022C02165
:1059600020686B689203104089021A40904200D070
:105970006FE0226D0A4000D076E06968C0230A001B
:105980009B021A409A4207D123684D480340C02029
:10599000800301400B432360236D1A43009B226563
:1059A000012B03D1A36B474A1340A3632B68DA078B
:1059B00006D503204049CA6C8243A8680243CA64E2
:1059C0009A0706D50C203C49CA6C8243E86802431A
:1059D000CA645A0706D538493B48CA6C0240286950
:1059E0000243CA641A0706D533493848CA6C0240D4
:1059F00068690243CA64DA0506D52F493448CA6C7F
:105A00000240A8690243CA645A0606D52A493148A9
:105A1000CA6C0240286A0243CA6400201B0617D5DC
:105A2000254A2D49D36C0B40E9690B43D3640FE041
:105A300033683B433360FEF7C9FF019033683B4254
:105A40008CD1FEF7C3FF019BC01A6428F6D903204E
:105A5000FEBD1A000A408A4200D08AE7226801206F
:105A6000920300D485E7F3E70B409A4200D184E724
:105A70002B689B0600D480E78022216D206D1203E5
:105A800002432265226D124B14480B4002402265EE
:105A90002365CB0500D470E7FEF798FF802706004A
:105AA000BF00236D3B4200D067E7FEF78FFF0C4B32
:105AB000801B9842F5D9CAE70010024000700040F0
:105AC000FFFFCFFFFFFFFFEFFFF3FFFFFFCFFFFF62
:105AD000FFFFFCFFFFFFFFFBFFFFF3FFFFFFF7FFF1
