:020000040800F2
:100000000050002001C600088D67000897670008AF
:1000100000000000000000000000000000000000E0
:1000200000000000000000000000000061950008D2
:100030000000000000000000819600089F67000893
:1000400051C6000851C60008BB67000851C6000829
:1000500051C60008C9670008DF670008F567000897
:1000600051C6000851C6000851C60008B167000813
:1000700051C6000851C6000851C6000851C6000804
:1000800051C6000851C6000851C600080000000013
:1000900051C6000851C6000851C6000851C60008E4
:1000A00051C6000851C6000851C6000851C60008D4
:1000B0008DAE000851C600080000000051C60008BF
:1000C00010B5064C2378002B07D1054B002B02D02E
:1000D000044800E000BF0123237010BD800400200D
:1000E00000000000D4CB0008044B10B5002B03D057
:1000F0000349044800E000BF10BDC04600000000F6
:1001000084040020D4CB0008002243088B4274D31F
:1001100003098B425FD3030A8B4244D3030B8B4208
:1001200028D3030C8B420DD3FF22090212BA030C11
:100130008B4202D31212090265D0030B8B4219D3F2
:1001400000E0090AC30B8B4201D3CB03C01A524112
:10015000830B8B4201D38B03C01A5241430B8B425A
:1001600001D34B03C01A5241030B8B4201D30B0343
:10017000C01A5241C30A8B4201D3CB02C01A52416A
:10018000830A8B4201D38B02C01A5241430A8B422D
:1001900001D34B02C01A5241030A8B4201D30B0216
:1001A000C01A5241CDD2C3098B4201D3CB01C01A30
:1001B000524183098B4201D38B01C01A524143093A
:1001C0008B4201D34B01C01A524103098B4201D328
:1001D0000B01C01A5241C3088B4201D3CB00C01A95
:1001E000524183088B4201D38B00C01A524143080D
:1001F0008B4201D34B00C01A5241411A00D2014632
:10020000524110467047FFE701B5002000F0F0F8BA
:1002100002BDC0460029F7D076E7704703460B437E
:100220007FD4002243088B4274D303098B425FD3EF
:10023000030A8B4244D3030B8B4228D3030C8B421B
:100240000DD3FF22090212BA030C8B4202D3121201
:10025000090265D0030B8B4219D300E0090AC30BD6
:100260008B4201D3CB03C01A5241830B8B4201D383
:100270008B03C01A5241430B8B4201D34B03C01A6C
:100280005241030B8B4201D30B03C01A5241C30AE4
:100290008B4201D3CB02C01A5241830A8B4201D355
:1002A0008B02C01A5241430A8B4201D34B02C01A3F
:1002B0005241030A8B4201D30B02C01A5241CDD2E4
:1002C000C3098B4201D3CB01C01A524183098B422F
:1002D00001D38B01C01A524143098B4201D34B0118
:1002E000C01A524103098B4201D30B01C01A52417B
:1002F000C3088B4201D3CB00C01A524183088B4202
:1003000001D38B00C01A524143088B4201D34B00EA
:10031000C01A5241411A00D201465241104670475C
:100320005DE0CA0F00D04942031000D34042534061
:1003300000229C4603098B422DD3030A8B4212D321
:10034000FC22890112BA030A8B420CD38901921153
:100350008B4208D3890192118B4204D389013AD090
:10036000921100E08909C3098B4201D3CB01C01A65
:10037000524183098B4201D38B01C01A5241430978
:100380008B4201D34B01C01A524103098B4201D366
:100390000B01C01A5241C3088B4201D3CB00C01AD3
:1003A000524183088B4201D38B00C01A5241D9D2EB
:1003B00043088B4201D34B00C01A5241411A00D26C
:1003C0000146634652415B10104601D34042002B68
:1003D00000D54942704763465B1000D3404201B5E7
:1003E000002000F005F802BD0029F8D016E770479C
:1003F0007047C0468446101C62468C46191C6346F2
:1004000000E0C0461FB501F0B1FC002801D4002176
:10041000C8421FBD10B501F005FC4042013010BDBF
:1004200010B501F0A3FC002801DB002010BD012065
:1004300010BDC04610B501F099FC002801DD002078
:1004400010BD012010BDC04610B501F02BFC0028E6
:1004500001DC002010BD012010BDC04610B501F028
:1004600021FC002801DA002010BD012010BDC0468B
:10047000002B11D1002A0FD1002900D1002802D071
:100480000021C943081C07B4024802A14018029089
:1004900003BDC0465DFFFFFF03B4684601B5029887
:1004A00000F024F8019B9E4602B00CBC7047C04689
:1004B00070B500220C4B04000D00FFF7CFFF0028A1
:1004C00004D12000290002F0D5FA70BD064B0022AD
:1004D0002000290001F036FF02F0CCFA80231B0631
:1004E0009C466044F1E7C0460000E041F0B5574645
:1004F0004E464546DE46E0B5040083B00D00924608
:1005000099468B4230D82DD04946504602F04EFCD9
:1005100029000600200002F049FC331A9846203BCF
:100520009B4633D45A465346934042461F00534697
:1005300093401E00AF423AD8AF4200D17BE05B4609
:10054000A41BBD41002B00DA78E0002200230092BA
:10055000019301235A46934001930123424693405D
:10056000009328E08242CFD9002200230092019319
:100570000C9B002B01D01C605D600098019903B0BA
:100580003CBC90469946A246AB46F0BD424620236D
:100590009B1A5246DA40414613004A468A401700E9
:1005A00042461F43534693401E00AF42C4D9002227
:1005B0000023009201934346002BD9D0FB079C46B1
:1005C000614672080A437B0846460EE0AB4201D101
:1005D000A2420CD8A41A9D41012024196D4100218A
:1005E000013E24184D41002E06D0AB42EED9013E0B
:1005F00024196D41002EF8D1009801995B4600192D
:100600006941002B25DB2B005A464446D3402A0083
:10061000E2401C005B461500002B2BDB26005F46EA
:10062000BE40330026004746BE403200801A994142
:10063000009001919CE7A342B9D880E7424620236D
:1006400000219B1A0022009101920122DA400192BE
:1006500083E7424620239B1A2A0046469A402300FD
:10066000F340444613432A00E2401C005B46150059
:10067000002BD3DA2023424626009B1ADE402F00AF
:10068000B4464646B74066463B003343CAE7C046D9
:10069000F0B54F464646D64644024500C0B5640A0A
:1006A0000F1C2D0EC60F002D4FD0FF2D55D08023CF
:1006B000E400DB041C43002399469A467F3D7B02FD
:1006C00078005B0A9846000EFF0F002831D0FF2803
:1006D00010D08022DB00D2041A43904600217F38DC
:1006E0002D1A4B4632000B4371489B00C3587A4089
:1006F000D2B29F46FF3D002B54D1022349461943F5
:1007000032000B007A40033BD2B20C2B04D869496B
:100710009B00CB589F463A00002000246402C3058A
:10072000600AD207184310431CBC90469946A24663
:10073000F0BD002B2BD101234946320019438B0019
:100740005D497A40CB58D2B29F46002C13D1042386
:100750009946033B00259A46B1E7002C05D10823B2
:100760009946063BFF259A46A9E70C239946093B83
:10077000FF259A46A3E7200002F0FAFA7625431FE8
:100780009C4000236D422D1A99469A4697E718001F
:1007900002F0EEFA4246431F9A402D1890467635F5
:1007A00000219EE703219CE717003A00FF20002468
:1007B000B4E780240022E403FF20AFE73200534671
:1007C000022BF1D0032B6CD0012BA5D028007F3059
:1007D000002846DD630704D00F232340042B00D0FC
:1007E0000434230103D52800344B80301C40FE28FC
:1007F000DCDCA401640AC0B290E78023DB031C4266
:1008000027D042461A4224D144461C436402640A5B
:100810003A00FF2082E73A0044468A46CFE7414645
:1008200063014C01A34235D21B200021013D012769
:100830001E0049005B00002E01DB9C4201D81B1BFF
:10084000394301380028F3D11C00631E9C410C433E
:10085000BCE78023DB031C436402640A3200FF20F0
:100860005CE70123181A1B2800DD55E79E3523009D
:10087000AC40C340611E8C411C43630704D00F236E
:100880002340042B00D00434630107D4A401640A7C
:10089000002043E71B1B1A200121C8E70120002488
:1008A0003CE78023DB031C436402640AFF2035E736
:1008B00098CC0008D8CC00080CCD0008FFFFFFF74B
:1008C000F0B54F464646D64644024500C0B5884678
:1008D000640A2D0EC70F002D49D0FF2D4FD0802365
:1008E000E400DB041C43002399469A467F3D4346BF
:1008F00042465E02D20F5B00760A1B0E904646D03F
:10090000FF2B12D080220020F600D2047F3B16433A
:10091000ED186A1C434694464A467B400F2A00D98C
:1009200074E0704992008A589746FF35002E54D1E2
:100930004A4602231A4391460220EAE7434634001E
:1009400082465246022A2AD0032A00D1C3E0012A55
:1009500000D082E0002200246402D205600ADB0796
:10096000104318431CBC90469946A246F0BD002C8B
:1009700027D104239946033B00259A46B7E7002C6C
:1009800019D108239946063BFF259A46AFE7002E6A
:1009900008D14A4601231A4391460120B9E7FF22B4
:1009A0000024D9E7300002F0E3F9431F2D1A9E40DE
:1009B000763D0020ADE70C239946093BFF259A467A
:1009C00095E7200002F0D4F97625431F9C400023D0
:1009D0006D422D1A99469A4689E74A4603231A43DF
:1009E0009146032095E73B00ABE780240023E40316
:1009F000FF22B1E78023DB031C4245D01E4243D1D6
:100A000033435C02640A4346FF22A5E7200C24041A
:100A1000210C0F00320C3604360C77435143464309
:100A2000504389193A0C5218964203D98021490241
:100A3000884640443F0411043F0CC9198C01661ECE
:100A4000B441890E2143140C2418A4010C43220143
:100A50003CD50122610814400C4360467F300028D9
:100A60001ADD620704D00F222240042A00D0043489
:100A7000220103D560461C4A80301440FE288EDCDB
:100A8000A401640AC2B267E78020C0030443640281
:100A9000640A3B00FF225FE70122101A1B2800DDD9
:100AA00058E762469E3221009440C140621E944144
:100AB0000C43620704D00F222240042A00D00434E1
:100AC000620105D4A401640A002245E7AC46C4E7EC
:100AD0000122002440E78022D20314436402640A06
:100AE000FF2239E744CD0008FFFFFFF7F8B54302C6
:100AF0005B0ADA00DE4693464A02520A45469046B1
:100B00004E4657464446E0B54A0047003F0EE400D3
:100B1000120EA1469C463E00C50FC90FBC1AFF2A03
:100B200000D177E001208246504641408D4200D1FD
:100B300080E0002C51DD002A00D073E04B46002BF2
:100B400000D1DDE0013C002C0FD0FF2F00D1A5E04B
:100B500001231B2C09DC20224946121B91404B46E5
:100B60000A00E340511E8A4113435A46D31A5A01E0
:100B700000D4C0E09B019C09200002F0F9F823009A
:100B800005388340864200DDC4E0861B1A00202021
:100B90000136F240861BB3405C1EA341002613437E
:100BA0005A0704D00F221A40042A00D004335A01F5
:100BB00000D4A3E00136F7B2FF2E00D1A7E09B01DD
:100BC0005B0A5802FF05400AED07384328433CBC46
:100BD00090469946A246AB46F8BD002C4FD1FE2464
:100BE0007A1C144200D09CE05A46002F00D003E14A
:100BF000002A00D1F4E04A46002AE2D04B465A4689
:100C0000D31A5A0100D405E14B465A460D009B1AEF
:100C10000026C5E74846002800D183E78D4251D021
:100C2000002CDADDFF2F39D080234A46DB041A433B
:100C300091468DE7002C45DD002A3AD0FF2F2DD0BC
:100C400080234A46DB041A43914601231B2C09DC0E
:100C500020224946121B91404B460A00E340511E98
:100C60008A4113435B445A0145D50136FF2E4ED0CD
:100C700001226F491A405B080B40134390E7D41BD5
:100C80000D00002F72D15B46002B00D192E0013C99
:100C9000002C00D1C5E0FF2A6FD1C4466346002B6B
:100CA00035D080236246DB0313435B025B0AFF27D8
:100CB00087E74B46002B23D0013C002C77D0FF2F39
:100CC000C3D1EBE7002C38D1FE227E1C324200D08B
:100CD0008CE05A46002F70D1002A00D1A6E04A4687
:100CE000002A00D16DE75B464B4400265A0102D52D
:100CF000504A013613405A0700D053E7DB089C46A0
:100D0000FF2ECBD063465B025B0AF7B259E7FF27A1
:100D1000002356E7474A361A13405A0700D041E7E6
:100D2000ECE74B465A46D41A63016FD4002C00D02E
:100D300022E700250027002343E7D11B002F2CD0FA
:100D4000FF2AAAD080235846DB0418438346012398
:100D50001B2908DC5B4620245846CB40611A88409A
:100D6000411E884103434B4416007CE7FF2A94D080
:100D700080235946DB0419438B4601231B2C08DCD6
:100D800020215B465846E3400C1BA040411E884191
:100D9000034349461600CB1AE9E65B46002B09D00F
:100DA00001390029DFD0FF2AD1D1C44676E75B465E
:100DB0004B4458E7C4461600A2E7002A00D16CE76E
:100DC0004A46002A00D169E78022D203134200D1AB
:100DD00064E74346134200D060E70D00C4465DE778
:100DE0004B46002B1AD00D004346EAE6FF2E8ED06C
:100DF0005B464B445B087EE7002AE1D14B46002B63
:100E0000EBD180230025DB03FF27DAE64B460D00FC
:100E10009C1AB1E60026002B00D06CE700250023C9
:100E2000CFE64B46594616005B1AA0E64346C8E695
:100E3000FFFFFF7DFFFFFFFB70B5002812D0C31737
:100E4000C5185D40C40F280001F092FF9E22121ABF
:100E5000962A11DCD2B2082833DD083885406802B2
:100E6000400A02E00024002200204002D205400A8D
:100E7000E4071043204370BD992A0BDD05232900A8
:100E80001B1AD94003001B339D402B005D1EAB4154
:100E900019430D00052801DD431F9D402B000A4921
:100EA0000B406E0709D00F263540042D05D00433C2
:100EB0005D0102D59F220B40121A9B01580AD2B243
:100EC000D3E76802400AD0E7FFFFFFFB70B5041EBE
:100ED0000DD001F04DFF9E22121A962A0EDCD2B2DE
:100EE00008282EDD083884406002400A01E0002214
:100EF00000204002D205400A104370BD992A09DD46
:100F0000030021001B3399404B1E994105231B1AF6
:100F1000DC400C43052801DD431F9C4023000A49A7
:100F20000B40650709D00F252C40042C05D0043355
:100F30005C0102D59F220B40121A9B01580AD2B2C3
:100F4000D7E76002400AD4E7FFFFFFFBF8B547464A
:100F5000CE460E034D00760ACC0F410F3143894631
:100F6000190380B5490A570F5E000F436D0DC0008D
:100F7000760DDB0FB846D2009C4200D1A3E0AF1B38
:100F8000002F00DC83E0002E00D1C0E0B94B9D4271
:100F900000D14FE1802341461B0419438846382F76
:100FA00000DD2DE11F2F00DDE7E120231100464683
:100FB000DB1B9E40F9409A400E434146531E9A4126
:100FC000F9404B465B1A99463243871AB842804132
:100FD0004B464142591A0B0200D4D6E049024E0A50
:100FE000002E00D1FFE0300001F0C2FE0300083BFC
:100FF00020223900D21A9E40D1409F400E439D428C
:1010000000DDE9E05D1B6B1C1F2B00DDA6E120214C
:10101000C91A3D0030008F408840DD40791E8F4165
:1010200031002843D940002507437B0709D00F230F
:101030003B40042B05D03B1DBB42BF417F42C91939
:101040001F000B0200D477E26A1C8A4B55056D0D18
:101050009A4200D1A2E0884AFF080A40500738436C
:1010600084465202120B00211203130B0A0D1205C3
:101070001A43824B2D0513402B435B00E4075B08AA
:101080002343604619000CBC90469946F8BD002FDA
:101090004BD17B4E691C314200D0B7E046464946F1
:1010A00016430143B446002D00D0EEE1002900D1E3
:1010B000AFE1002E00D0F0E14B46C0085F070743C8
:1010C000BC46D908D1E0AB1B002B6CDD002E3ED016
:1010D00068498D4200D1B9E180213E0009040E43E8
:1010E000B046382B00DD1DE11F2B00DC62E119004A
:1010F00046462039CE40202B04D04021CB1A414611
:1011000099400A4317007A1E974137430FE143463F
:10111000134300D19FE07B1E002B00D18CE1554989
:101120008F4200D186E01F0039E7771B002D00D0E9
:10113000D0E04946014300D158E1791E002900D191
:1011400000E24C4CA74200D149E20F00CBE039004D
:10115000114300D181E1591E002900D139E1454EEA
:10116000B34200D172E10B00BBE7424B9E4200D17B
:1011700019E282188242804149463500414440428A
:101180000918CF075208174349087B0700D04EE7DC
:101190004807FF080743BC46C90863E01500002361
:1011A00000229C465FE7002B6CD1354B6E1C1E4223
:1011B000DBD14B460343002D00D020E1002B00D1B2
:1011C000CBE13B00134300D0CEE14B46C0085F07A4
:1011D00038438446D90848E02749ED1A31407B0757
:1011E00000D024E7D4E7380001F0C2FD0300183333
:1011F0001F2B00DCFCE63E00083886400027FEE698
:10120000434613431A00571EBA41DEE64946464696
:10121000871A8E1BB84289414942761A310200D59D
:1012200029E13B0033439C4600D0D9E6002100244D
:1012300000251AE04B46C0085F070743BC46D908A3
:1012400063460B4300D1EFE1802212030A431203ED
:10125000120B084D07E74B46C0085A070243944655
:101260003D00D908034B9D42EAD00A036D05120BDD
:101270006D0DF8E6FF070000FFFF7FFFFFFF0F8007
:10128000FE070000731B002D00D185E0D8498E4277
:1012900000D179E180214D4609040D43A946382B40
:1012A00000DD0EE11F2B00DDA6E12021C91A05009B
:1012B0004F4688408F40411E88414946DD40D94015
:1012C0002F4307438844BF189742924151424144FB
:1012D000350031E0C6498E4200D1A5E080214C4660
:1012E00009040C43A146382F00DDBEE01F2F00DDAE
:1012F000EDE020210500C91B4C4688408C40FD4094
:10130000411E884149462C432043F9404446611A16
:101310008846171ABA42924141465242891A1C0025
:10132000350058E6434613431F007A1E97413F1885
:1013300087428041414249440B0200D425E7AC4B2F
:1013400001359D4200D12AE7AA4A7B080A400121C3
:101350000F401F43D3071F43510866E630001F3D6F
:10136000E840202B03D04021CB1A9E4037437B1E00
:101370009F4100210743002507E73B004646203BED
:10138000DE40202F04D040234146DB1B99400A4316
:10139000571EBA41324318E64946014300D1FAE0EC
:1013A000591E002900D137E1914DAB4200D1EBE04D
:1013B0000B0074E72021C91A160047468A408F4067
:1013C000511E8A414146DE40D94037431743894484
:1013D000ADE78718494687429B4141445B42C918A3
:1013E00001250B0200D4D0E60225ADE74146D20824
:1013F000480710438446C9081C003D0032E7002B13
:1014000000D0D5E03B00D2087F071743BC46D9087F
:1014100016E7002E00D18CE04146D2084F073A4330
:101420009446C9081C0020E74146D2084F071743DD
:10143000BC46C9081C0003E7871A4B464246B8421F
:101440008041991A4042091A0125C4E54B46C0085B
:101450005F0738438446D908F2E64A46C008570772
:1014600038438446D1081D00FCE649460143080084
:10147000471EB8414DE7171A41464846BA42B641A1
:10148000091A76428E1B1C00AAE500292ED1002ED7
:10149000CAD1802100240903D6E649464646871A68
:1014A0008E1BB84289414942711A0E023CD5171A67
:1014B00041464846BA429241091A5242891A1C00D2
:1014C000B3E54B4603431F00781E8741FBE6390016
:1014D0004C462039CC40202F04D040214D46C91B1A
:1014E0008D402843411E8841204312E74946C008E9
:1014F0004D072843C908002E44D080252D032942DA
:1015000008D04646F7082F4204D11C003900D20803
:1015100070071043CA00430F1A43C0005707C008A2
:101520000743BC46D1088BE63B000B439C4600D0EA
:101530002BE60021002498E64B07FF081F43BC461A
:10154000C9088FE6171A41464846BA429241091A1D
:101550005242891A1C0001253DE53B00D2087F0755
:101560001743BC46D90880E68718494687429B4105
:1015700041445B42C9180B0200D406E61D4B01250D
:10158000194002E684465BE64346D2085F073A43C9
:101590009446D90854E63900D2087F071743BC4661
:1015A000C9081D005EE60023350000229C465AE56E
:1015B0004B465F07D9084346C00813433843002B06
:1015C000E0D080231B031942A4D04546ED081D42FC
:1015D000A0D14346D2085807104329009AE7414654
:1015E000D2084F073A439446C9081C0028E6C04673
:1015F000FF070000FFFF7FFF19004D462039CD4057
:10160000202B04D04021CB1A4946994008430700BB
:10161000781E87412F4356E68718494697429B41DB
:1016200041445B42C918DBE60023024D9C461A0088
:1016300019E5C046FF070000F0B557464E4645463F
:10164000DE46E0B50F0381461E0004003B0B480058
:1016500085B092469846400DCD0F002800D1B6E0E7
:101660008B4B984200D1D2E04346670FDB001F430B
:1016700080231B041F43874B00979B4600239846FB
:10168000E4008344019333031B0B994673005246D5
:101690005B0DF60F002B00D178E07D498B421AD00C
:1016A000510F4A467B48D200114384468022584657
:1016B00012046344C31A114352469B460020D200D1
:1016C0002B0073409A4643460F2B00D9F4E0724F2B
:1016D0009B00FB589F464B46514619436F4B9C4617
:1016E000E344002900D0B5E0424602231A43904665
:1016F00002200022E4E73500140000910190019BD4
:10170000022B00D112E2032B00D175E2012B1DD078
:10171000AA46634E5E44002E00DCE0E1630700D081
:1017200015E2E408009AD30105D580265D4BF6004A
:101730001A4000925E445C4B9E4223DC009A760580
:10174000530757021C433F0B730D03E0AA460023C7
:101750000027002400213F033E0B0F0D3F053743B8
:101760001E05524B20001F4053463E437600DB07C8
:1017700076081E43310005B03CBC90469946A2460F
:10178000AB46F0BD424B00270024E3E74946114336
:1017900059D04B46002B00D190E1484601F0E8FAC1
:1017A00002000B3A08235B429C4684446346494648
:1017B00099401D239B1A5246DA4063461143524614
:1017C0009A403B4B58449B468344002078E71F00D7
:1017D000274300972FD04346002B00D15EE14046BF
:1017E00001F0C6FA02000B3A1D2301009B1A47467E
:1017F0004A464C4608398F40DA408C4017430097E0
:101800002C4B1B1A9B460023984601933BE74F46FF
:1018100043461F43009706D108239846063B002401
:10182000834601932FE7434600930C239846093BD8
:101830008346019327E70423984600239B46013300
:10184000002401931FE7424601231A4390460120DA
:10185000002235E7414603231943884603204946C1
:101860002EE7002380279A463F030024084B71E7A8
:10187000802300981B03184200D1EAE0194200D0EF
:10188000E7E00B431F033F0BB2461400004B61E738
:10189000FF07000001FCFFFF84CD000801F8FFFFF7
:1018A000FF030000FFFFFFFEFE070000FFFF0F80A9
:1018B000F30300000DFCFFFF009B994200D2E6E01D
:1018C00000D1E1E001235B429C4625000026009800
:1018D000E344130E09020B439946130298464B4604
:1018E0001C0C1B041B0C21000193FEF793FC019AB6
:1018F0000B044243290C070019438A4207D9494483
:10190000013F894503D88A4201D9871E4944881A74
:101910002100FEF77FFC09048C4629046546019AE4
:10192000090C4243030029438A4204D94944013B3C
:10193000894500D805E13F041F43891A43463A0010
:10194000380C00971F0C130442461204150C2A0091
:101950001B0C5A4302977B43039545437843170C6E
:10196000BC465B1963449D4203D980256D02AC4699
:1019700060441D0C281815041B042D0C5D198142B0
:1019800072D36FD0751B091AAE428041A14E4042FE
:10199000081A5E44814500D100E12100FEF73AFCBF
:1019A0000200019B07005A430B04290C19438A4289
:1019B00008D94944013F894504D88A4202D9831E87
:1019C0001F004944881A2100FEF724FC019A0C04E8
:1019D00042432904090C030021438A4207D94944A0
:1019E000013B894503D88A4201D9831E4944039D9E
:1019F0003C041C432B00891A2204120C5343029FFF
:101A0000200C45437A4378431F0CBC46521962446C
:101A1000954203D980256D02AC466044150C1B0429
:101A200012041B0C2818D218814206D302D00123BD
:101A30001C4370E6002A00D16DE64944631E494507
:101A400000D296E0814200D2ADE000D1DDE01C0082
:101A5000EDE78026009F360337433F033F0BAA463E
:101A60006D4B77E6AE428DD2009B46445A1E4645EA
:101A70009B415B424B44C91889455CD2884200D9DE
:101A800082E07ED000927DE7A24200D91AE7009B57
:101A90006508DF0758083D43E6071AE7484601F0A6
:101AA00067F903001A00153220301C2A00DC9BE67F
:101AB0004F46083B9F4000240097A1E6504601F0A6
:101AC00057F903001A00153220301C2A00DC69E6A1
:101AD0005146083B9940002273E6012464420121EB
:101AE000891B382900DD32E61F2966DC009D2200B3
:101AF0002B004A48CA405844834084401343621E26
:101B00009441CD4023432F005A0709D00F221A4099
:101B1000042A05D01A1D9A429B415B42FF1813000C
:101B20003A0262D501230027002413E6AA463A4B65
:101B3000002700240EE68945A4D1B0459ED9009225
:101B400020E78A4200D8F6E6831E4944F3E60F23D5
:101B50002340042B00D1E4E505235B42A3429B41D3
:101B600004345B42E408009A94469C446346009324
:101B7000D8E51C00814200D059E7424500D056E725
:101B8000C9E5B54200D87DE7009B4644023B00937F
:101B900046459B415B424B44C918F3E6002E9CDD51
:101BA00000240123DFE743465D0045459B415B423E
:101BB0004B44023CC918A846DCE71F225242961B40
:101BC000009A1300F340202903D01548584482405E
:101BD0001443621E94412343072400271C4007D06E
:101BE0000F2200271A40042A94D17C077F023F0B62
:101BF000DB081C430023ADE58023009F1B031F432C
:101C00003F033F0BAA46044BA4E59045CBD31C00F1
:101C1000B3E7C046FF030000FF0700001E040000FA
:101C20003E040000F0B54E464546DE4657461C03CE
:101C3000E0B5240B1A4E0F034D00A1465C00DB0FEC
:101C400084463F0B6D0DC90F9046640D9B46B5420F
:101C50001AD0B44210D00126A5420ED14F450CD166
:101C60000126C44509D1594518D0002D05D1384366
:101C70000600701E864100E0012630003CBC904604
:101C80009946A246AB46F0BD3B0001260343F4D182
:101C9000AC42F2D14B461343EFD1E1E70026ECE72B
:101CA000FF070000F0B54F464646D6464D00C0B58A
:101CB0000E03C90F8A462C491F035C008046360B71
:101CC0006D0D91463F0B640DDB0F8D421ED08C4293
:101CD00016D0002D1ED130438446002C01D13A434A
:101CE00023D06246002A1AD09A4529D051460220B4
:101CF0000139084001381CBC90469946A246F0BD07
:101D000039001143E5D002204042F4E73043FAD1D4
:101D1000AC420FD0002C0FD13A43E7D00CE00122A7
:101D2000013B934318000130E5E763460020002B98
:101D3000E1D0DBE73A43E6D19A45D7D1A542D5DCDD
:101D4000A54205DBBE42D1D808D00020BE42D2D287
:101D500050460123013898430130CCE7C845C5D827
:101D60000020C845C7D2F3E7FF070000F0B54F4693
:101D70004646D6464D00C0B50E03C90F8A462C49CB
:101D80001F035C008046360B6D0D91463F0B640DC2
:101D9000DB0F8D421ED08C420CD0002D1ED1304363
:101DA0008446002C0BD13A4309D163460020002B16
:101DB0002FD009E039001143EFD0022029E062461C
:101DC000002A21D09A4511D05146022001390840FD
:101DD00001381EE03043F0D1AC421FD0002C01D1BD
:101DE0003A43F1D09A45EFD1A542EDDCA54205DB9F
:101DF000BE42E9D816D00020BE420AD25046012386
:101E000001389843013004E00122013B934318005C
:101E100001301CBC90469946A246F0BD3A43E1D041
:101E20000220F6E7C845CFD80020C845F1D2E5E743
:101E3000FF070000F0B557464E464546DE46E0B582
:101E40000C0381461F000500230B480087B0924613
:101E50009846400DCE0F002800D17CE07D4B984283
:101E600000D196E043466C0FDB001C4380237A4A86
:101E70001B041C43944603006344019300239846CB
:101E80009B46ED003B031B0B99467A00FB0F514626
:101E9000520D029300D187E06E4B9A4222D06E48D9
:101EA0004B0F8446019862448446494694446246F6
:101EB000C9000B4380210192002209040B435146C3
:101EC0009446C900320002984240019801300390C4
:101ED00040460F2800D9C7E08000804647465F484B
:101EE000C05987464A4653465A4813438446019A86
:101EF00062440192002B00D08CE002224146114343
:101F0000884694460021DDE7029A1C000D00E34656
:101F10005B46022B6BD0032B00D1FFE1012B00D0DD
:101F200065E100260024002500212403230B0C0D6D
:101F300024051C434A4B3605234033435B00D2073C
:101F40005B0813432800190007B03CBC9046994633
:101F5000A246AB46F0BD1C002C4353D04346002B99
:101F600000D181E1404600F003FF02000B3A1D233F
:101F700001009B1A44464A464D4608398C40DA40D7
:101F80008D401443374B1B1A0193002398469B4600
:101F900078E74C4643461C432DD108239846063B20
:101FA000002501909B466DE74B4601220B43A5D0CF
:101FB0004B46002B00D147E1484600F0D9FE020015
:101FC0000B3A1D27BA1A57460100D7405246083926
:101FD0004B468A408B4011003B43019A214F101A17
:101FE000BC46020062440192002294466AE7194E00
:101FF0000024002598E70C2344469846093B0190AD
:102000009B463FE7042398460023019301330025B4
:102010009B4637E7032342461A43904603224B462A
:1020200094464FE7320073E7802400222403002502
:10203000084E79E780221203144200D1FCE01342DB
:1020400000D0F9E01A431403240B029A0D00014E4C
:102050006AE7C046FF07000001FCFFFFC4CD00088F
:10206000FFFF0F800DFCFFFF2F0C2D042D0C28000F
:102070000E0C0904090C4843804608007843814649
:102080003000784302902800704384464046000C9C
:102090008246CC44D444E14507D902988246802048
:1020A00040028146CA44504602906046000C834676
:1020B00060460004844640460004000C80466046AA
:1020C00040440490180C804628001B041B0C584305
:1020D000844618007843814640467843824640460D
:1020E000454360464D44070C7D19A94503D980201E
:1020F00040028146CA4460462F0CBA4407043F0C94
:102100002D04ED19AB445846270C2404240C0590EB
:10211000200048437943894639008446000C8346B1
:10212000714366434E445E44B14503D9802040026A
:1021300081464944300C814660460004000C8446C8
:10214000200058434944814640467843360466445B
:1021500084464046444348467B43070CE4183C19F8
:10216000A34203D980235B029846C4440598029B8E
:10217000804648460004000C43448146AB42AD41D2
:102180009B19B342B64127044F446D425744781916
:10219000804676428B46B146C344D9445745BF4139
:1021A000A845AD418B458941B145B6416D427F425D
:1021B0002F43240C4942764231433C196418494666
:1021C0006444C90D64020C4304995D020D43691E09
:1021D0008D41DB0D1D434B465B021D43E3017AD568
:1021E00001216B080D401D43E3071D4364084F4B5D
:1021F0000399CE18002E46DD6B0709D00F21294028
:10220000042905D02B1DAB42AD416D4264191D0060
:10221000E30105D5464B03991C408023DB00CE1813
:1022200044498E4200DDE2E66307ED08640276056C
:102230001D43240B760D77E680231B031C432403E8
:102240003200240B3C4E6FE6504600F091FD030037
:102250001A00153220301C2A00DCB2E65246083B38
:102260009A4000211300B8E6484600F081FD0300C3
:102270001A00153220301C2A00DC78E64C46083B58
:102280009C4000257EE60121891B382900DD48E6B7
:102290001F2923DC294B2E009C46039BCE40634420
:1022A0001800230085408340681E854133432B433B
:1022B000CC40590709D00F211940042905D0191D18
:1022C00099429B415B42E4180B0021021FD5012675
:1022D0000024002528E6019B039388E71F235B4227
:1022E0009E1B2300F340202905D015498C460399F5
:1022F00061448C402543691E8D412B4307250024F2
:102300001D4007D00F21002419400429D7D16507AB
:102310006402240BDB081D43002605E680231B0313
:102320001C432403240B044EFEE5C046FF030000BB
:10233000FFFFFFFEFE070000FF0700001E04000075
:102340003E040000F0B5574645464E46DE46E0B531
:102350000F037F0A450F3D43AC465D004E00CC0F96
:10236000690D8A461F03CC49550F83B0C0007F0A10
:10237000D200760D8046DB0F2F4301928A4500D1B3
:10238000C0E05546751BA9460125AB465D466B402E
:102390009B469C4200D190E04D46002D00DCBBE006
:1023A0005346002B00D1D5E08E4200D1B5E1802309
:1023B0001B041F434B46382B00DD8BE11F2B00DD38
:1023C00036E2494620233D005B1A11009A409D40A9
:1023D000531E9A414B46A8464D46DF406346E940AE
:1023E0004546DB1B9C460D431543451BA8428041D7
:1023F00063464142591A0B0200D40DE149024B0ACF
:1024000098464346002B00D157E1404600F0B0FC0F
:102410000300083B202229004746D21A9F40D140A2
:102420009D400F439E4200DD40E19E1B731C1F2B0D
:1024300000DDD2E120222800D21A390095409140D7
:10244000D8406A1E954101430D4339000026D9400A
:102450006B0709D00F232B40042B05D02B1DAB425B
:10246000AD416D4249191D000B0200D4D7E0721C2A
:10247000894B5605760D9A4200D1DFE0874FED0873
:102480000F407807284382467A02120B002112037C
:10249000130B0A0D12051A43814B360513403343C3
:1024A0005B00E4075B0823435046190003B03CBCC3
:1024B00090469946A246AB46F0BD4D46002D5CDDE8
:1024C0005346002B00D18BE08E4200D116E28023D0
:1024D0001B041F434B46382B00DD8EE11F2B00DC15
:1024E000C0E13900203BD9404B46202B05D040238A
:1024F0004D465B1B9F403A430192019D6F1EBD41BB
:102500000D437EE167493D0089461543B144002DE6
:102510002ED09B469C4230D0494600294AD1624D7C
:10252000711C294200D0E1E03D00614615430143A2
:10253000AA46002E00D0EFE1002900D1C5E1002D10
:1025400000D000E26346C0085B071843634682463A
:10255000D9086DE03B00134300D1C0E04B46013B7E
:10256000002B00D1C1E1894500D1D6E0994621E791
:1025700001256B409B469C42CED14946002900D0A4
:10258000D2E0711C8A46554647490D4235D1614615
:102590000143002E00D08AE1002900D10CE23B006B
:1025A000134300D00EE26346C0085A070243924626
:1025B000D9083DE05146891B89465C46002E00D073
:1025C000E4E06346034300D16BE10B00013B002BC9
:1025D00000D1E8E1304DA94200D1DEE19946DEE0CC
:1025E0003B0013437BD04B46013B002B00D14CE119
:1025F000894500D182E199466CE7274B9A4500D185
:10260000EDE1821882428941564667444942791871
:10261000CD075208154349086B0700D01AE74B074E
:10262000ED081D43AA46B146C9081B4B994527D062
:102630004B460A035E05120B760D27E716000023B2
:1026400000229A4622E76346C0085E073043D90855
:102650008246002D14D080252D03294207D0FE0884
:102660002E4204D15C463100D20878071043CA00DC
:10267000410F1143C0004A07C00810438246C908F1
:1026800053460B4300D1EEE1802212030A431203AA
:10269000120B014EFAE6C046FF070000FFFF7FFF66
:1026A000FFFF0F8001F8FFFFFE070000D149F61A77
:1026B00039406B0700D0CDE6B1E7280000F058FBA9
:1026C000030018331F2B00DCA4E6083885402F00D8
:1026D0000025A7E63A4315006A1E954185E6634644
:1026E000C0085A0702439246D9089EE76146851AF8
:1026F000CB1BA84289414942884619004346C91A62
:102700000B0088461B0200D513E10B002B439A46B1
:1027100000D076E6002100248AE76346C0085A0705
:1027200002439246D908ABE753469B1B9946002EBD
:1027300000D08EE06346034300D1B2E04B46013B3C
:10274000002B00D170E1AC4DA94500D125E199469F
:102750004B46382B00DD08E11F2B00DD4EE14946DA
:1027600020234E465B1A6546010098409D40F1408B
:10277000431E98410D4305436046F0403F18AD1895
:10278000954289414942C91956463FE09A4B9A45BC
:1027900000D1A4E0802361461B0419438C464B46BC
:1027A000382B00DDB2E01F2B00DDE4E0494620239A
:1027B0004E465B1A6546010098409D40F140431E1D
:1027C00098410D4305436046F0403F1A551BAA420D
:1027D00089414942791A56460DE63A001F3EF240B9
:1027E0001600202B03D04022D31A9F403D436B1E7E
:1027F0009D410021354300260EE73A4315006A1E2D
:1028000095412D1885428041414261440B0200D41C
:1028100002E7794B01369E4200D110E70122754F45
:102820006B08394015401D43CB071D4349080FE68F
:102830003900203BD9404B46202B05D040234D4644
:102840005B1B9F403A430192019D6F1EBD410D43AA
:10285000CBE5694B9A4542D0802361461B0419435E
:102860008C4675E7494620233D005B1A9D401100C8
:102870009A40A8464D46531E9A414B46E94045466C
:10288000DF400D431543BC44BBE7851885428941B1
:1028900067444942791801260B0200D4BCE602269F
:1028A000BCE7D2087B071A439246F908BDE6002927
:1028B00015D063463D005E07D9081543C008002DBA
:1028C00000D0B8E030438246DAE6002D00D121E79F
:1028D0007907D2080A439246F9085C46A8E67807C9
:1028E000D20810438246F908CAE6851A6346A84210
:1028F0008041DF1B4042391A01267CE56346C0084F
:102900005B07184363468246D908B9E6634603432A
:102910001D00681E854159E7002900D093E6002D6F
:1029200000D17DE07907D2080A439246F9085C4657
:10293000A6E6151A6346AA429241FF1A5242BB1AF2
:1029400098465C465DE56346851AD91BA8429B41C3
:102950005B42C91A0B0247D5151A6346AA42924137
:10296000FF1A5242B91A5C4672E5634603431D00E2
:10297000681E854103E76646203BDE404B46202B20
:1029800006D0494640235B1A614699400843804679
:102990004546691E8D41354318E7D2087B071A4327
:1029A0009246F9086CE6151A6346AA429241FF1A4C
:1029B0005242B91A01261EE57807D2081043824612
:1029C000F90835E6851885428941674449427918F6
:1029D0000B0200D420E6074B012619401CE6002319
:1029E000564600229A4651E52B000B439A4600D1E9
:1029F00090E611E6FFFF7FFFFF0700006646203BE1
:102A0000DE404B46202B06D0494640235B1A6146E8
:102A10009940084380464546691E8D413543AEE6E0
:102A20008021002409032FE68518954292416744CE
:102A3000514279182FE7064380200003014208D055
:102A4000FD08054205D1D2087F073A4316005C46CF
:102A50002900CA00710F1143F6004A07F6083243F5
:102A60009246C9080CE60023014E9A461A000DE56D
:102A7000FF07000030B5144D0A034B00120B5B0D2D
:102A8000C90F0024AB4204DD104CA34203DD104B00
:102A9000CC18200030BD8024640322430D4CE41A7E
:102AA0001F2C08DD0C48C31ADA4013005C420029D1
:102AB000EFD11C00EDE7094DE040AC4663449A407D
:102AC00013000343F2E7C046FE0300001D040000AC
:102AD000FFFFFF7F3304000013040000EDFBFFFF46
:102AE00070B5002818D0C317C5185D40C40F280062
:102AF00000F03EF9164B1B1A5B055E0D0A2820DC20
:102B000003002A0015339A4013000B22101A2A00E2
:102B1000C2401203120B03E000240026002200230F
:102B2000002112031800130B0A0D0A4D12051A4357
:102B30002A40330513435B00E4075B082343190075
:102B400070BD2A000B3882401203120B0023E7E706
:102B50001E040000FFFF0F8010B5041E12D000F00D
:102B600007F9144B1B1A5B055B0D0A281BDC0200DE
:102B70002100153291400A000B21081AC440240399
:102B8000240B02E000230024002200211000240373
:102B90000A0D240B12052243074C1B052240134348
:102BA0005B00590810BD0B3884402403240B00221D
:102BB000EBE7C0461E040000FFFF0F8070B5410028
:102BC0004602C40FFE20090E4B1C750A184214D091
:102BD000E0239B006D07360BCB1800210A0D28005F
:102BE00012051C4D32435B052A405B0813435B0012
:102BF000E4075B082343190070BD002914D1002DA0
:102C00001ED0280000F0B4F80A281CDC0B232A0090
:102C10001B1ADA40030015339D400F4B12031B1A99
:102C20005B05160B5B0DD8E7002D06D0320B802616
:102C300036036D071643094BCFE7084B0026CCE758
:102C400000230026C9E703002A000B3B9A40002519
:102C5000E3E7C046FFFF0F8089030000FF07000085
:102C60004A00F0B50B03520D3D4D5B0A470F561C51
:102C7000C90F1F43C4002E4228D03A4BD518FE2D51
:102C800008DDFF2200204002D205400AC907104398
:102C90000843F0BD002D2DDD80010200501E824151
:102CA000FB00640F134323435A0757D00F221A40E7
:102CB000042A00D004338022D2041A404ED00135B9
:102CC000EAB2FF2DDDD09B01580ADCE73C43002A25
:102CD00006D1002C0BD005239B01580AD2B2D2E7B3
:102CE000002CCED08020C0033843FF22CBE7002247
:102CF0000020C8E72B00173322DB80231E261B048D
:102D00003B43761B1F2E1DDD02204042451B180051
:102D1000E8400500202E04D01348844662449340C6
:102D20001C4323005C1EA3412B4300255A07BDD141
:102D30008020C00418400122A842C4D10200CBE781
:102D40000022C8E70948101822008440250083406B
:102D50006C1EA541F2402B431343E6E72A00BBE774
:102D6000FE07000080FCFFFFA2FCFFFF82FCFFFFCC
:102D70001C2101231B04984201D3000C10391B0AAB
:102D8000984201D3000A08391B09984201D300096F
:102D9000043902A2105C40187047C04604030202C6
:102DA00001010101000000000000000010B5002931
:102DB00003D1FFF7DDFF203002E0081CFFF7D8FF4A
:102DC00010BDC04680B500AF074B1A68064B4021C6
:102DD0000A431A60032003F001FB03F015FB0023F4
:102DE0001800BD4680BDC0460020024080B500AF3F
:102DF000034B1B685A1C024B1A60C046BD4680BD7F
:102E00009C04002080B500AF024B1B681800BD4633
:102E100080BDC0469C04002080B582B000AF020097
:102E2000FB1D1A70FB1D1B787F2B09D8FB1D1B781F
:102E30001A001F231A40044B012191400A001A6016
:102E4000C046BD4602B080BD00E100E090B583B051
:102E500000AF02003960FB1D1A70FB1D1B787F2B31
:102E600028D82F4AFB1D1B785BB29B08C0339B0000
:102E70009B58FA1D1278110003220A40D200FF214C
:102E800091400A00D2431A4011003B689B01FF2287
:102E90001A40FB1D1B78180003230340DB009A40F7
:102EA0001F48FB1D1B785BB29B080A43C0339B0085
:102EB0001A5031E01B4AFB1D1B7819000F230B40F1
:102EC000083B9B0806339B00D31804331B68FA1D8C
:102ED0001278110003220A40D200FF2191400A001B
:102EE000D2431A4011003B689B01FF221A40FB1D90
:102EF0001B78180003230340DB009A400948FB1DA0
:102F00001B781C000F232340083B9B080A43063311
:102F10009B00C31804331A60C046BD4603B090BD81
:102F200000E100E000ED00E080B582B000AF786025
:102F30007B68013B0C4A934201D9012310E00B4B03
:102F40007A68013A5A6001235B4203211800FFF7B7
:102F50007DFF064B00229A60044B07221A60002373
:102F60001800BD4602B080BDFFFFFF0010E000E08A
:102F700080B584B000AFB9607A600F217B18021C65
:102F80001A70BA687B181B785BB211001800FFF743
:102F90005DFFC046BD4604B080BD80B582B000AFC5
:102FA0000200FB1D1A70FB1D1B785BB21800FFF7B7
:102FB00033FFC046BD4602B080BD80B582B000AFD1
:102FC00078607B681800FFF7AFFF03001800BD466C
:102FD00002B080BD80B582B000AF78607B68042B02
:102FE00006D1084B1A68074B04210A431A6005E012
:102FF000044B1A68034B04218A431A60C046BD463D
:1030000002B080BD10E000E080B584B000AF786011
:103010000F217B1800221A707B6825229B5CDBB293
:10302000022B06D07B680422DA637B1801221A7017
:1030300052E07B681B681A687B681B680E218A4314
:103040001A607B681B681A687B681B6801218A43C9
:103050001A607B681B68244A934229D07B681B68EE
:10306000224A934222D07B681B68214A93421AD09D
:103070007B681B681F4A934212D07B681B681E4AFC
:1030800093420AD07B681B681C4A934202D180237A
:103090005B030EE080235B040BE080235B0208E00F
:1030A00080235B0105E080235B0002E0102300E049
:1030B0000123134A53607B682522012199547B68C0
:1030C0002422002199547B689B6B002B04D07B68E1
:1030D0009B6B7A68100098470F23FB181B78180029
:1030E000BD4604B080BDC046080002401C0002403E
:1030F0003000024044000240580002406C00024090
:103100000000024080B586B000AF786039600023CF
:103110007B610023FB6000233B6155E13B681B683A
:1031200001217A6991400A001340FB60FB68002B83
:1031300000D146E13B685B68022B03D03B685B68CB
:10314000122B23D17B69DA087B6808329200D358AE
:103150003B617B69072213409B000F229A401300BA
:10316000DA433B6913403B613B681A697B6907217D
:103170000B409B009A4013003A6913433B617B6903
:10318000DA087B68083292003969D1503B685B6885
:10319000012B0BD03B685B68022B07D03B685B6858
:1031A000112B03D03B685B68122B30D17B689B6886
:1031B0003B617B695B0003229A401300DA433B6961
:1031C00013403B613B68DA687B695B009A401300FF
:1031D0003A6913433B617B683A699A607B685B6834
:1031E0003B6101227B699A401300DA433B6913403B
:1031F0003B613B685B681B0901221A407B699A406E
:1032000013003A6913433B617B683A695A607B68F3
:103210001B683B617B695B0003229A401300DA4321
:103220003B6913403B613B685B6803221A407B6942
:103230005B009A4013003A6913433B617B683A692B
:103240001A607B68DB683B617B695B0003229A4004
:103250001300DA433B6913403B613B689A687B6922
:103260005B009A4013003A6913433B617B683A69FB
:10327000DA603B685A6880235B05134000D1A0E008
:10328000574B5A6B564B01210A435A63554A7B6987
:103290009B0802339B009B583B617B6903221340D0
:1032A0009B000F229A401300DA433B6913403B61B5
:1032B0007A68A023DB059A421FD07B684A4A934272
:1032C00019D07B68494A934213D07B68484A93429D
:1032D0000DD07B68474A934207D07B68464A9342A9
:1032E00001D105230AE0062308E0042306E00323B6
:1032F00004E0022302E0012300E000237A690321B5
:103300000A40920093403A6913433B6135497B6917
:103310009B0802339B003A695A50384B1B683B614B
:10332000FB68DA433B6913403B613B685A68802382
:103330005B02134003D03A69FB6813433B612F4B98
:103340003A691A602D4B5B683B61FB68DA433B6965
:1033500013403B613B685A6880239B02134003D0B3
:103360003A69FB6813433B61244B3A695A60234B2B
:103370009B683B61FB68DA433B6913403B613B68F8
:103380005A6880235B03134003D03A69FB681343F8
:103390003B611A4B3A699A60184BDB683B61FB68EA
:1033A000DA433B6913403B613B685A6880239B03C7
:1033B000134003D03A69FB6813433B610F4B3A69F2
:1033C000DA607B6901337B613B681A687B69DA40AC
:1033D000131E00D0A2E6C046BD4606B080BDC04662
:1033E000001002400000014000040050000800509E
:1033F000000C005000100050001C00500004014060
:1034000080B582B000AF786008001100BB1C021CC0
:103410001A807B1C0A1C1A707B1C1B78002B04D0A2
:10342000BB1C1A887B689A6103E0BB1C1A887B6806
:103430009A62C046BD4602B080BD000080B582B031
:1034400000AF0200BB1D1A80094B5B69BA1D1288D0
:10345000134008D0064BBA1D12885A61BB1D1B8849
:10346000180003F033F8C046BD4602B080BDC04628
:103470000004014080B582B000AF78607B68002B0B
:1034800001D1012382E07B6841229B5CDBB2002BEF
:1034900007D17B684022002199547B68180000F016
:1034A0007FF87B684122242199547B681B681A6845
:1034B0007B681B6801218A431A607B685A687B68B5
:1034C0001B6834490A401A617B681B689A687B68EC
:1034D0001B6831490A409A607B68DB68012B08D180
:1034E0007B689A687B681B68802109020A439A609E
:1034F00007E07B689A687B681B68842109020A439D
:103500009A607B68DB68022B04D17B681B68802291
:1035100012015A607B681B685A687B681B681F49E8
:103520000A435A607B681B68DA687B681B681A4923
:103530000A40DA607B681A697B685B691A4311008C
:103540007B689B691A027B681B680A43DA607B68A8
:10355000D9697B681A6A7B681B680A431A607B68B2
:103560001B681A687B681B6801210A431A607B6824
:1035700000225A647B684122202199547B680022F2
:103580001A637B6842220021995400231800BD462B
:1035900002B080BDFFFFFFF0FF7FFFFF0080000251
:1035A00080B582B000AF7860C046BD4602B080BD35
:1035B00090B589B002AFF8600C00100019000A2322
:1035C000FB18221C1A800823FB18021C1A80BB1D42
:1035D0000A1C1A8000237B61FB6841229B5CDBB2E2
:1035E000202B00D01AE1BB6A002B04D02C23FB183F
:1035F0001B88002B01D1012311E1FB6840229B5C59
:10360000012B01D102230AE1FB68402201219954D8
:10361000FFF7F8FB03007B6180231902F8687B69E0
:1036200000931923012200F093F9031E01D0032314
:10363000F5E0FB68412222219954FB684222402197
:103640009954FB6800225A64FB68BA6A5A62FB68A4
:103650002C22BA1812885A85FB6800225A63BB1DB7
:103660001C880823FB181A880A23FB181988F86895
:103670007B6901933B6B0093230000F0D9F8031E94
:103680000FD0FB685B6C042B05D1FB684022002146
:1036900099540123C3E0FB6840220021995403237D
:1036A000BDE0FB685B8D9BB2FF2B11D9FB68FF224D
:1036B0001A85FB681B8DDAB280235C040A23FB1891
:1036C0001988F868584B0093230000F053FA12E071
:1036D000FB685B8D9AB2FB681A85FB681B8DDAB2BA
:1036E00080239C040A23FB181988F8684E4B00932A
:1036F000230000F03FFA3A6BF8687B6900931300EF
:103700000022042100F024F9031E01D0032386E0E7
:10371000FB681B68586AFB685B6A591CFA6851624F
:10372000C2B21A70FB681B8D013B9AB2FB681A8506
:10373000FB685B8D9BB2013B9AB2FB685A85FB68C4
:103740001B8D002B3BD1FB685B8D9BB2002B36D0D1
:103750003A6BF8687B69009313000022802100F027
:10376000F7F8031E01D0032359E0FB685B8D9BB281
:10377000FF2B11D9FB68FF221A85FB681B8DDAB27B
:1037800080235C040A23FB181988F868002300933F
:10379000230000F0EFF912E0FB685B8D9AB2FB6842
:1037A0001A85FB681B8DDAB280239C040A23FB1860
:1037B0001988F86800230093230000F0DBF9FB6808
:1037C0005B8D9BB2002B96D17A69396BFB68180030
:1037D00000F036F9031E07D0FB685B6C042B01D1A7
:1037E00001231CE003231AE0FB681B682022DA6136
:1037F000FB681B685A68FB681B680C490A405A60E2
:10380000FB68412220219954FB68422200219954EF
:10381000FB68402200219954002300E00223180095
:10382000BD4607B090BDC0460024008000E800FE01
:10383000B0B586B002AFF8600C00100019000A2580
:103840007B19221C1A800823FB18021C1A80BB1D3E
:103850000A1C1A80BB1D1B88DAB27B191988F8680C
:10386000294B0093002300F085F97A6A396AFB68D6
:10387000180000F0A6F8031E07D0FB685B6C042B51
:1038800001D101233BE0032339E0BB1D1B88012B41
:1038900007D10823FB181B88DAB2FB681B689A6201
:1038A0001FE00823FB181B881B0A9BB2DAB2FB68D7
:1038B0001B689A627A6A396AFB68180000F081F81E
:1038C000031E07D0FB685B6C042B01D1012316E0BB
:1038D000032314E00823FB181B88DAB2FB681B687B
:1038E0009A623A6AF8687B6A0093130000224021CA
:1038F00000F02EF8031E01D0032300E0002318007F
:10390000BD4604B0B0BDC0460020008080B582B086
:1039100000AF78607B681B689B6902221340022B12
:1039200003D17B681B6800229A627B681B689B69D5
:1039300001221340012B07D07B681B689A697B68C2
:103940001B6801210A439A61C046BD4602B080BD92
:1039500080B584B000AFF860B9603B60FB1D1A70A1
:103960001BE03B68013318D03B68002B07D0FFF702
:1039700049FA0200BB69D31A3A689A420DD2FB6831
:10398000412220219954FB68422200219954FB686E
:1039900040220021995403230FE0FB681B689B69B8
:1039A000BA681340BA68D31A5A425341DBB21A00BC
:1039B000FB1D1B789A42D4D000231800BD4604B0EA
:1039C00080BD80B584B000AFF860B9607A602BE04C
:1039D0007A68B968FB68180000F06EF8031E01D021
:1039E000012329E0BB6801331ED0BB68002B07D040
:1039F000FFF708FA02007B68D31ABA689A4213D21A
:103A0000FB685B6C20221A43FB685A64FB68412206
:103A100020219954FB68422200219954FB684022DE
:103A200000219954032307E0FB681B689B6902226D
:103A30001340022BCCD100231800BD4604B080BD3A
:103A400080B584B000AFF860B9607A6028E07A6829
:103A5000B968FB68180000F02FF8031E01D001239D
:103A600026E0BB68002B07D0FFF7CCF902007B688B
:103A7000D31ABA689A4213D2FB685B6C20221A43AD
:103A8000FB685A64FB68412220219954FB6842225A
:103A900000219954FB68402200219954032307E038
:103AA000FB681B689B6920221340202BCFD1002389
:103AB0001800BD4604B080BD80B584B000AFF8608A
:103AC000B9607A60FB681B689B6910221340102B59
:103AD00048D11BE0BB68013318D0BB68002B07D06E
:103AE000FFF790F902007B68D31ABA689A420DD2A8
:103AF000FB68412220219954FB68422200219954FD
:103B0000FB6840220021995403232CE0FB681B68CA
:103B10009B6920221340202BDCD1FB681B681022FC
:103B2000DA61FB681B682022DA61FB681800FFF786
:103B3000EDFEFB681B685A68FB681B680C490A406D
:103B40005A60FB6804225A64FB6841222021995480
:103B5000FB68422200219954FB68402200219954BD
:103B6000012300E000231800BD4604B080BDC0461C
:103B700000E800FE90B585B000AFF86008001100C5
:103B80007B600A243B19021C1A8009203B180A1C7E
:103B90001A70FB681B685B683A6A510D8022D2007C
:103BA0000A400E490A43D2431A4011003B191B88B0
:103BB0009B059A0D3B181B781804FF231B04034038
:103BC0001A437B681A433B6A1A43FB681B680A4323
:103BD0005A60C046BD4605B090BDC046FF63FF03B6
:103BE00080B500AF044B1A68034B10218A431A605A
:103BF000C046BD4680BDC0460070004080B500AFE5
:103C0000044B1A68034B8021C9000A431A60C0465E
:103C1000BD4680BD0070004080B500AF044B1A68FF
:103C2000034B802189000A431A60C046BD4680BD0F
:103C30000070004080B586B000AF786000233B6123
:103C40007B681B680122134000D187E0C24BDB6810
:103C50000C221340082B0ED0BF4BDB680C22134004
:103C60000C2B16D1BC4BDA6880235B021A408023F0
:103C70005B029A420DD1B84B1A6880239B02134015
:103C800000D16AE07B685B68002B66D1012300F0FD
:103C90006EFB7B685A6880235B029A4207D1AE4B69
:103CA0001A68AD4B802149020A431A6027E07B68FD
:103CB0005A68A023DB029A420ED1A74B1A68A64B82
:103CC0008021C9020A431A60A34B1A68A24B8021C3
:103CD00049020A431A6012E09F4B1A689E4B9F49A3
:103CE0000A401A609C4B1A6880235B021340FB60F9
:103CF000FB68994B1A68984B99490A401A607B688F
:103D00005B68002B14D0FFF77DF803003B6108E0EF
:103D1000FFF778F802003B69D31A642B01D903231B
:103D200025E38D4B1A6880239B021340F0D015E0E9
:103D3000FFF768F803003B6108E0FFF763F8020053
:103D40003B69D31A642B01D9032310E3824B1A6811
:103D500080239B021340F0D100E0C0467B681B68C3
:103D60000222134000D16EE07B4BDB680C22134033
:103D7000042B0BD0784BDB680C2213400C2B1CD18E
:103D8000754BDA6880235B02134016D1724B1B68B7
:103D90000422134005D07B68DB68012B01D001238E
:103DA000E5E26D4B5B686F4A134019007B681B6945
:103DB0001A02694B0A435A6045E07B68DB68002BB6
:103DC00028D0654B1B680922934319007B68DA6889
:103DD000614B0A431A60FFF715F803003B6108E0E6
:103DE000FFF710F802003B69D31A022B01D9032315
:103DF000BDE2594B1B6804221340F1D0564B5B685F
:103E0000584A134019007B681B691A02524B0A4337
:103E10005A6018E0504B1A684F4B01218A431A60D0
:103E2000FEF7F0FF03003B6108E0FEF7EBFF020046
:103E30003B69D31A022B01D9032398E2464B1B6836
:103E400004221340F1D17B681B681022134000D17B
:103E5000C5E0414BDB680C22134064D13E4B1A682D
:103E600080239B00134005D07B68DB69002B01D1C8
:103E700001237CE27B685A6A374B5968E0231B02B6
:103E80000B409A421DD97B685B6A180000F030FC39
:103E9000031E01D001236AE22F4B5B68324A1340B4
:103EA00019007B685A6A2C4B0A435A602A4B5B689C
:103EB0001B02190A7B681B6A1A06274B0A435A60C1
:103EC0001CE0254B5B68284A134019007B685A6A3E
:103ED000214B0A435A60204B5B681B02190A7B681E
:103EE0001B6A1A061C4B0A435A607B685B6A1800FF
:103EF00000F0FEFB031E01D0012338E27B685B6A01
:103F00005B0B0133802212029A40134BDB681B09C2
:103F10000F210B401549CB5CDA40154B1A6003208A
:103F200002F05CFA5BE07B68DB69002B3DD00A4B5A
:103F30001A68094B802149000A431A60FEF762FFA4
:103F400003003B6116E0FEF75DFF02003B69D31AF8
:103F5000022B0FD903230AE200100240FFFFFEFFED
:103F6000FFFFFBFFFFE0FFFFFF1FFFFF04CE000886
:103F700000000020C74B1A6880239B001340E2D04A
:103F8000C44B5B68C44A134019007B685A6AC14B32
:103F90000A435A60BF4B5B681B02190A7B681B6AA5
:103FA0001A06BC4B0A435A6019E0BA4B1A68B94B5F
:103FB000BA490A401A60FEF725FF03003B6108E09A
:103FC000FEF720FF02003B69D31A022B01D903231D
:103FD000CDE1B04B1A6880239B001340F0D17B6881
:103FE0001B680822134036D07B685B69002B19D010
:103FF000A84B1A6DA74B01210A431A65FEF702FF71
:1040000003003B6108E0FEF7FDFE02003B69D31AA6
:10401000022B01D90323AAE19E4B1B6D0222134000
:10402000F1D018E09B4B1A6D9A4B01218A431A6517
:10403000FEF7E8FE03003B6108E0FEF7E3FE020046
:104040003B69D31A022B01D9032390E1914B1B6DDD
:1040500002221340F1D17B681B680422134000D177
:10406000AEE017203B1800221A708A4B9A6B80230F
:104070005B05134009D1874B9A6B864B802149051C
:104080000A439A633B1801221A70854B1A688023F1
:104090005B0013401AD1824B1A68814B8021490082
:1040A0000A431A60FEF7AEFE03003B6108E0FEF72C
:1040B000A9FE02003B69D31A642B01D9032356E100
:1040C000774B1A6880235B001340F0D07B689A68B6
:1040D00080235B009A4207D16E4B1A6D6D4B802195
:1040E00049000A431A6531E07B689B68002B0CD1BC
:1040F000684B1A6D674B69490A401A65654B1A6D22
:10410000644B68490A401A6520E07B689A68A023DE
:10411000DB009A420ED15F4B1A6D5E4B8021C900C5
:104120000A431A655B4B1A6D5A4B802149000A43BA
:104130001A650BE0574B1A6D564B58490A401A65E1
:10414000544B1A6D534B57490A401A657B689B685C
:10415000002B15D0FEF756FE03003B6109E0FEF789
:1041600051FE02003B69D31A4F4A934201D90323FF
:10417000FDE0484B1A6D80239B001340EFD014E004
:10418000FEF740FE03003B6109E0FEF73BFE020044
:104190003B69D31A444A934201D90323E7E03D4BDC
:1041A0001A6D80239B001340EFD11723FB181B7857
:1041B000012B05D1374B9A6B364B3C490A409A6329
:1041C0007B681B682022134049D07B689B69002BC9
:1041D00026D0304B9A682F4B01210A439A602D4B11
:1041E0005A6B2C4B01210A435A63314B1A6A304BEC
:1041F000802189010A431A62FEF704FE03003B6135
:1042000008E0FEF7FFFD02003B69D31A022B01D93B
:104210000323ACE01F4B9B6802221340F1D01EE049
:104220001C4B9A681B4B01218A439A60204B1A6AE7
:104230001F4B20490A401A62FEF7E4FD03003B6170
:1042400008E0FEF7DFFD02003B69D31A022B01D91B
:1042500003238CE00F4B9B6802221340F1D17B6853
:104260009B6A002B00D181E00A4BDB680C221340D3
:104270000C2B00D178E07B689B6A022B59D1054B4F
:104280001A68044B0C490A401A60FEF7BBFD030094
:104290003B611CE000100240FF1FFFFFFFFEFFFF1D
:1042A00000700040FFFBFFFF88130000FFFFFFEFDF
:1042B00000000140FFDFFFFFFFFFFFFEFEF7A2FD52
:1042C00002003B69D31A022B01D903234FE02A4B8A
:1042D0001A6880239B041340F0D1274BDB68274AE0
:1042E000134019007B68DA6A7B681B6B1A437B6892
:1042F0005B6B1A43204B0A43DA601F4B1A681E4B54
:10430000802149040A431A60FEF77CFD03003B61EB
:1043100008E0FEF777FD02003B69D31A022B01D9B2
:10432000032324E0144B1A6880239B041340F0D02D
:104330001CE0114B1A68104B11490A401A60FEF735
:1043400061FD03003B6108E0FEF75CFD02003B6994
:10435000D31A022B01D9032309E0074B1A688023E3
:104360009B041340F0D101E0012300E0002318007A
:10437000BD4606B080BDC04600100240FFFF02FFF0
:10438000FFFFFFFE80B584B000AF78603960002386
:10439000FB60834B1B68012213403A689A4211D993
:1043A0007F4B1B680122934319007D4B3A680A43F7
:1043B0001A607B4B1B68012213403A689A4201D075
:1043C0000123E8E07B681B680222134009D0754B8B
:1043D000DB68F022934319007B689A68714B0A43AB
:1043E000DA607B681B680122134000D189E07B689A
:1043F0005B68022B07D16B4B1A6880239B0213402A
:1044000020D10123C7E07B685B68032B07D1654B94
:104410001A6880239B04134014D10123BBE07B68FE
:104420005B68012B06D15F4B1B680422134009D146
:104430000123B0E05B4B1A6880239B00134001D13D
:104440000123A8E0574BDB680322934319007B68E4
:104450005A68544B0A43DA60FEF7D4FC0300FB6051
:104460007B685B68022B11D109E0FEF7CBFC0200F0
:10447000FB68D31A4C4A934201D903238BE0494B82
:10448000DB680C221340082BEFD13AE07B685B68B5
:10449000032B11D109E0FEF7B5FC0200FB68D31A2B
:1044A000414A934201D9032375E03E4BDB680C225D
:1044B00013400C2BEFD124E07B685B68012B1BD1F0
:1044C00009E0FEF79FFC0200FB68D31A364A9342CC
:1044D00001D903235FE0334BDB680C221340042B2C
:1044E000EFD10EE0FEF78EFC0200FB68D31A2E4AD5
:1044F000934201D903234EE02A4BDB680C22134080
:10450000F0D1274B1B68012213403A689A4211D21E
:10451000234B1B68012293431900214B3A680A433D
:104520001A601F4B1B68012213403A689A4201D05F
:10453000012330E07B681B680422134009D0194B2B
:10454000DB681A4A134019007B68DA68154B0A4386
:10455000DA607B681B68082213400AD0114BDB68C5
:10456000134A134019007B681B69DA000D4B0A439C
:10457000DA6000F023F801000A4BDB681B090F2208
:1045800013400C4AD35C0A00DA400B4B1A6003203C
:1045900001F024FF00231800BD4604B080BDC046D2
:1045A000002002400010024088130000FFF8FFFFC7
:1045B000FFC7FFFF04CE00080000002080B586B0D2
:1045C00000AF0023FB600023BB6000237B6000235F
:1045D0007B6100233B6000233B613B4BDB68FB605E
:1045E000FB680C221340082B0ED00C2B0FD0042B91
:1045F00057D1354B1B681022134002D0334B3B611F
:104600005DE0334B3B615AE0324B3B6157E0FB6866
:104610009B0C0F221340304AD35CBB60FB689B0DA0
:104620000322134001337B60274BDA6880235B024F
:1046300013400FD0B9680A005201521A93019B1A15
:10464000DB005B185B0279681800FBF75DFD030077
:104650007B6123E01C4B1B68102213400FD0B9680C
:104660000A005201521A93019B1ADB005B181B02CD
:1046700079681800FBF748FD03007B610EE0B9681C
:104680000A005201521A93019B1ADB005B189B022D
:1046900079681800FBF738FD03007B617B693B619B
:1046A0000DE0094B5B685B0B072213403B603B68E6
:1046B0000133802212029A4013003B61C0463B69DD
:1046C0001800BD4606B080BD0010024000093D0044
:1046D0000024F40000127A0014CE000880B500AF68
:1046E000024B1B681800BD4680BDC046000000207C
:1046F00080B584B000AF78600023FB600023BB600E
:10470000234BDB68F02213402BD1214B9A6B802383
:104710005B05134006D01F4B1A68C0235B01134092
:10472000FB6012E01A4B9A6B194B802149050A4332
:104730009A63184B1A68C0235B011340FB60144B4B
:104740009A6B134B14490A409A63FA68C0235B01C1
:104750009A4206D17A68C0231B029A4201D10123F2
:10476000BB600E4B1B680122934319000B4BBA68C8
:104770000A431A60094B1B6801221340BA689A4227
:1047800001D0012300E000231800BD4604B080BD25
:104790000010024000700040FFFFFFEF00200240C9
:1047A00080B586B000AF786000233B610023FB60DA
:1047B0007B681B682022134000D1C3E017203B1800
:1047C00000221A70974B9A6B80235B05134009D126
:1047D000944B9A6B934B802149050A439A633B188B
:1047E00001221A70904B1A6880235B0013401AD183
:1047F0008D4B1A688C4B802149000A431A60FEF7E2
:1048000001FB03003B6108E0FEF7FCFA02003B6994
:10481000D31A642B01D90323FFE0834B1A6880234A
:104820005B001340F0D07F4B1A68C0239B031340FA
:10483000FB607B685A68C0239B031340FA689A4266
:1048400010D07B685A68C0239B021A40C0239B0289
:104850009A4207D1734B1A6880239B02134001D000
:104860000123DAE06F4B1A6DC0239B021340FB60FB
:10487000FB68002B3BD07B685A68C0239B02134027
:10488000FA689A4233D07B681B68202213402ED0EE
:10489000644B1B6D654A1340FB60624B1A6D614BA4
:1048A000802109030A431A655E4B1A6D5D4B60490E
:1048B0000A401A655B4BFA681A65FA6880235B0048
:1048C000134014D0FEF79EFA03003B6109E0FEF7A7
:1048D00099FA02003B69D31A564A934201D903233D
:1048E0009BE0504B1A6D80239B001340EFD07B68F8
:1048F0005A68C0239B021A40C0239B029A420CD1E3
:10490000484B1B684C4A134019007B685A68C02307
:104910009B031A40434B0A431A60424B196D7B6854
:104920005A68C0239B021A403E4B0A431A6517235C
:10493000FB181B78012B05D13A4B9A6B394B3F4939
:104940000A409A637B681B680122134009D0354BEB
:10495000DB6C0322934319007B689A68314B0A434E
:10496000DA647B681B680222134009D02D4BDB6C94
:104970000C22934319007B68DA682A4B0A43DA64F5
:104980007B681B680422134009D0264BDB6C2C4A41
:10499000134019007B681A69224B0A43DA647B686A
:1049A0001B680822134009D01E4BDB6C254A1340BC
:1049B00019007B685A691B4B0A43DA647B681A68E2
:1049C00080235B00134009D0164BDB6C174A134061
:1049D00019007B689A69134B0A43DA647B681B6889
:1049E0004022134009D00F4BDB6C174A13401900CB
:1049F0007B681A6A0B4B0A43DA647B681B68802267
:104A0000134009D0074BDB6C104A134019007B6838
:104A1000DA69044B0A43DA6400231800BD4606B085
:104A200080BDC0460010024000700040FFFFFCFF48
:104A3000FFFFF7FF88130000FFFFCFFFFFFFFFEF2F
:104A4000FFF3FFFFFFCFFFFFFFFFFFFBFFFFF3FFC2
:104A500080B582B000AF78607B68002B01D1012364
:104A600074E07B6821229B5CDBB2002B07D17B6862
:104A70002022002199547B68180001F0E3FC7B6838
:104A80002122022199547B681B68CA225A627B68E2
:104A90001B6853225A627B68180000F0D2FC031E88
:104AA00009D07B681B68FF225A627B68212204219F
:104AB000995401234AE07B681B689A687B681B68ED
:104AC00024490A409A607B681B6899687B685A6829
:104AD0007B681B691A437B689B691A437B681B6868
:104AE0000A439A607B681B687A68D2681A617B689F
:104AF0001B6819697B689B681A047B681B680A43FA
:104B00001A617B681B68DA687B681B6880218A43AE
:104B1000DA607B681B68DA6C7B681B6803218A4358
:104B2000DA647B681B68D96C7B68DA697B685B69CF
:104B30001A437B681B680A43DA647B681B68FF22A0
:104B40005A627B6821220121995400231800BD4636
:104B500002B080BDBFFF8FFF90B587B000AFF86097
:104B6000B9607A6000237B61FB6820229B5C012B8B
:104B700001D10223B5E0FB68202201219954FB6892
:104B80002122022199547B68002B25D1FB681B68E8
:104B90009B684022134002D1BB680022DA70BB68D8
:104BA0001B78180000F079FC03001C04BB685B78DC
:104BB000180000F072FC03001B021C43BB689B78CA
:104BC000180000F06AFC030022001A43BB68DB787F
:104BD0001B0413437B611FE0FB681B689B6840223A
:104BE000134007D0BB681B78180000F077FC030067
:104BF0007B6102E0BB680022DA70BB681B781A0494
:104C0000BB685B781B021343BA6892781A43BB688F
:104C1000DB781B0413437B61FB681B68CA225A6262
:104C2000FB681B6853225A62FB68180000F009FCFD
:104C3000031E0DD0FB681B68FF225A62FB6821220D
:104C400004219954FB68202200219954012348E053
:104C5000FB681B687A6925490A401A60FB681B6873
:104C60009A68FB681B6822490A409A60FB681B68C7
:104C70009968BB68DA68BB681B691A43FB681B68E4
:104C80000A439A60FB681B68DA68FB681B6880212E
:104C90008A43DA60FB681B689B682022134013D1AB
:104CA000FB68180000F0A4FB031E0DD0FB681B6816
:104CB000FF225A62FB68212204219954FB682022BA
:104CC0000021995401230CE0FB681B68FF225A6203
:104CD000FB68212201219954FB682022002199546C
:104CE00000231800BD4607B090BDC0467F7F7F00FF
:104CF000FFFFFBFF80B586B000AFF860B9607A6057
:104D000000237B61FB681B689A6ABB685A60FB687A
:104D10001B681B695B045A0CBB689A60FB681B68C4
:104D20001B68224A13407B617B691B0CDBB23F226C
:104D30001340DAB2BB681A707B691B0ADBB27F22B0
:104D40001340DAB2BB685A707B69DBB27F22134032
:104D5000DAB2BB689A707B691B0CDBB2402213404D
:104D6000DAB2BB68DA707B68002B1AD1BB681B789B
:104D7000180000F0B3FB03001A00BB681A70BB6890
:104D80005B78180000F0AAFB03001A00BB685A7099
:104D9000BB689B78180000F0A1FB03001A00BB68F9
:104DA0009A7000231800BD4606B080BD7F7F7F004B
:104DB00090B587B000AFF860B9607A6000237B617E
:104DC000FB6820229B5C012B01D10223A7E0FB683A
:104DD000202201219954FB682122022199547B68E9
:104DE000002B0ED1BB685B781A001023134008D04B
:104DF000BB685B7810229343DBB20A33DAB2BB683C
:104E00005A707B68002B1CD1BB68DB78180000F05F
:104E100044FB03001C04BB685B78180000F03DFBFA
:104E200003001B021C43BB689B78180000F035FB95
:104E3000030022001A43BB681B785B0313437B61AA
:104E40001CE0BB685B78180000F048FB03007B6146
:104E5000BB689B78180000F041FB03007B61BB68D6
:104E6000DB781A04BB685B781B021343BA6892783C
:104E70001A43BB681B785B0313437B61FB681B68A9
:104E8000CA225A62FB681B6853225A62FB681800E8
:104E900000F0D7FA031E0DD0FB681B68FF225A6290
:104EA000FB68212204219954FB6820220021995497
:104EB000012334E0FB681B687A691B490A405A6089
:104EC000FB681B68DA68FB681B6880218A43DA602C
:104ED000FB681B689B682022134013D1FB681800F5
:104EE00000F086FA031E0DD0FB681B68FF225A6291
:104EF000FB68212204219954FB6820220021995447
:104F000001230CE0FB681B68FF225A62FB68212228
:104F100001219954FB682022002199540023180094
:104F2000BD4607B090BDC0463FFFFF0080B586B0CC
:104F300000AFF860B9607A6000237B61FB681B6892
:104F40005B68214A13407B617B691B0CDAB2BB684A
:104F5000DA707B691B0ADBB21F221340DAB2BB682E
:104F60005A707B69DBB23F221340DAB2BB689A7099
:104F70007B695B0BDBB207221340DAB2BB681A70A5
:104F80007B68002B1AD1BB68DB78180000F0A6FA0A
:104F900003001A00BB68DA70BB685B78180000F089
:104FA0009DFA03001A00BB685A70BB689B78180012
:104FB00000F094FA03001A00BB689A7000231800EE
:104FC000BD4606B080BDC0463FFFFF0090B589B02A
:104FD00000AFF860B9607A600023BB610023FB6119
:104FE00000237B61FB6820229B5C012B01D1022303
:104FF0004DE1FB68202201219954FB682122022106
:1050000099547B68002B36D1FB681B689B68402253
:10501000134002D1BB680022DA70BB681B7818000D
:1050200000F03BFA03001C04BB685B78180000F03A
:1050300034FA03001B021C43BB689B78180000F085
:105040002CFA030022001A43BB68DB781B041A43C6
:105050001400BB6820229B5C180000F01EFA0300BD
:105060001B0622001A43BB68DB691A43BB685B69F5
:105070001343FB613FE0FB681B689B6840221340C1
:1050800007D0BB681B78180000F028FA0300FB610A
:1050900002E0BB680022DA70BB68DB69002B08D134
:1050A000BB6820229B5C180000F018FA0300FB612B
:1050B00007E0BB6820229B5C180000F00FFA030099
:1050C000FB61BB681B781A04BB685B781B02134347
:1050D000BA6892781A43BB68DB781B041A43BB6832
:1050E00020215B5C1B061A43BB68DB691A43BB6863
:1050F0005B691343FB61BB685A68BB689B691343D8
:105100007B61FB681B68CA225A62FB681B685322DA
:105110005A62BB685A6A80235B009A424ED1FB6890
:105120001B689A68FB681B685B490A409A60FB68C9
:105130001B68DB68FF221A40FB681B6857490A435B
:10514000DA60FDF75FFE0300BB6116E0FDF75AFE73
:105150000200BB69D21AFA239B009A420DD9FB6860
:105160001B68FF225A62FB68212203219954FB68C5
:10517000202200219954032389E0FB681B68DB6827
:1051800001221340E2D0FB681B68FA69DA61FB6810
:105190001B687A695A64FB681B689A68FB681B681D
:1051A000802149000A439A60FB681B689A68FB6883
:1051B0001B68802149010A439A604DE0FB681B6827
:1051C0009A68FB681B6836490A409A60FB681B684E
:1051D000DB68FF221A40FB681B6832490A43DA6029
:1051E000FDF710FE0300BB6116E0FDF70BFE0200A9
:1051F000BB69D21AFA239B009A420DD9FB681B683F
:10520000FF225A62FB68212203219954FB68202265
:105210000021995403233AE0FB681B68DB680222F3
:105220001340E2D0FB681B68FA691A62FB681B68CE
:105230007A699A64FB681B689A68FB681B6880211E
:1052400089000A439A60FB681B689A68FB681B68C0
:10525000802189010A439A60134B1A68124B8021FE
:1052600089020A431A60104B9A680F4B8021890209
:105270000A439A60FB681B68FF225A62FB6821227E
:1052800001219954FB682022002199540023180021
:10529000BD4609B090BDC046FFFEFFFF7FFEFFFF89
:1052A000FFFDFFFF7FFDFFFF0004014080B584B0DC
:1052B00000AF786039600023FB607B6820229B5C34
:1052C000012B01D1022386E07B6820220121995421
:1052D0007B682122022199547B681B68CA225A628A
:1052E0007B681B6853225A623A6880235B009A42AB
:1052F00032D17B681B689A687B681B6838490A4012
:105300009A607B681B689A687B681B6835490A400D
:105310009A60FDF777FD0300FB6016E0FDF772FD74
:105320000200FB68D21AFA239B009A420DD97B68CF
:105330001B68FF225A627B682122032199547B68F3
:10534000202200219954032345E07B681B68DB6819
:1053500001221340E2D031E07B681B689A687B68C9
:105360001B6821490A409A607B681B689A687B68C1
:105370001B681E490A409A60FDF744FD0300FB606C
:1053800016E0FDF73FFD0200FB68D21AFA239B00EE
:105390009A420DD97B681B68FF225A627B682122E2
:1053A000032199547B68202200219954032312E0A1
:1053B0007B681B68DB6802221340E2D07B681B68B5
:1053C000FF225A627B682122012199547B682022A6
:1053D0000021995400231800BD4604B080BDC0468A
:1053E000FFFEFFFFFFEFFFFFFFFDFFFFFFDFFFFF00
:1053F00080B584B000AF78600023FB607B681B68D9
:10540000DA687B681B68A0218A43DA60FDF7FAFC42
:105410000300FB600AE0FDF7F5FC0200FB68D21A0E
:10542000FA239B009A4201D9032306E07B681B689C
:10543000DB6820221340EED000231800BD4604B0E4
:1054400080BD80B584B000AF78600023FB607B68CE
:105450001B68DB68402213401AD17B681B6801225D
:105460005242DA60FDF7CEFC0300FB600AE0FDF774
:10547000C9FC0200FB68D21AFA239B009A4201D9A8
:10548000032306E07B681B68DB6840221340EED0F4
:1054900000231800BD4604B080BD80B584B000AFC5
:1054A0000200FB1D1A700023FB6007E0FB6801335C
:1054B000FB60FB1DFA1D12780A3A1A70FB1D1B785F
:1054C000092BF3D8FB68DBB21B01DAB2FB1D1B789A
:1054D0001343DBB21800BD4604B080BD80B584B074
:1054E00000AF0200FB1D1A700023FB60FB1D1B7840
:1054F0001B09DBB21A0013009B009B185B00FB60CA
:10550000FB1D1B780F221340DAB2FB68DBB2D31805
:10551000DBB21800BD4604B080BD80B582B000AFDC
:1055200078607B6820229B5C012B01D1022324E060
:105530007B682022012199547B6821220221995401
:105540007B681B68CA225A627B681B6853225A62B6
:105550007B681B689A687B681B6820210A439A60F5
:105560007B681B68FF225A627B68212201219954C3
:105570007B6820220021995400231800BD4602B008
:1055800080BD000080B582B000AF78607B68002BE2
:1055900001D101235BE07B6851229B5CDBB2002BD5
:1055A00007D17B685022002199547B68180000F0D5
:1055B00055F87B685122022199547B681B681A6850
:1055C0007B681B6840218A431A607B685A687B6845
:1055D0009B681A437B68DB681A437B681B691A4324
:1055E0007B685B691A437B68996980239B000B4049
:1055F0001A437B68DB691A437B681B6A1A431100F4
:105600007B689A6A7B681B680A431A607B689B699F
:105610001B0C0422134019007B685A6A7B681B68C4
:105620000A435A607B681B687A68D26A1A617B6891
:105630001B68DA697B681B6807490A40DA617B6886
:1056400000225A657B6851220121995400231800D9
:10565000BD4602B080BDC046FFF7FFFF80B582B0F7
:1056600000AF7860C046BD4602B080BD80B586B050
:1056700000AFF860B9607A601A00BB1C1A8016236C
:10568000FB1800221A80FB6851229B5CDBB2012BC5
:1056900006D0FB6851229B5CDBB2222B00D055E286
:1056A000BB68002B06D07B68002B03D0BB1C1B887B
:1056B000002B01D101234AE2FB6850229B5C012BA5
:1056C00001D1022343E2FB68502201219954FB6877
:1056D00051229B5CDBB2012B03D1FB6851223221AA
:1056E0009954FB6800225A65FB687A689A63FB68E4
:1056F000BA1C12889A87FB68BA1C1288DA87FB6882
:10570000BA681A63FB68BA1C12889A86FB68BA1CCE
:105710001288DA86FB6800229A64FB680022DA6449
:10572000FB689A6A80239B019A4210D1FB681B6830
:105730001A68FB681B68CA490A401A60FB681B6844
:105740001A68FB681B68802189010A431A60FB689C
:105750001B681B6840221340402B07D0FB681B6866
:105760001A68FB681B6840210A431A60FB68DA6804
:1057700080231B019A4200D0C8E0FB685B68002BC5
:105780000AD0FB685A6882235B009A4216D1FB68F4
:10579000DB8E9BB2012B11D1FB681B6B1A88FB6857
:1057A0001B68DA60FB681B6B9A1CFB681A63FB685A
:1057B000DB8E9BB2013B9AB2FB68DA86FB68DB8E1C
:1057C0009BB2002B00D079E0FB689A6A80239B0192
:1057D0009A4208D1FB681B681A68FB681B68802125
:1057E00049010A431A603B6AF8680022012100F06F
:1057F000B5F9031E01D00323A9E1FB681B68DA6831
:10580000FB689B6B92B21A80FB689B6B9A1CFB68CF
:105810009A63FB68DB8F9BB2013B9AB2FB68DA8725
:1058200031E13B6AF8680022022100F097F9031E7B
:1058300001D003238BE1FB681B6B1A88FB681B6894
:10584000DA60FB681B6B9A1CFB681A63FB68DB8ED3
:105850009BB2013B9AB2FB68DA86FB68DB8E9BB297
:10586000002B0ED1FB689A6A80239B019A4208D1D3
:10587000FB681B681A68FB681B68802149010A43A2
:105880001A603B6AF8680022012100F067F9031EE4
:1058900001D003235BE1FB681B68DA68FB689B6B44
:1058A00092B21A80FB689B6B9A1CFB689A63FB6838
:1058B000DB8F9BB2013B9AB2FB68DA87FB68DB8E19
:1058C0009BB2002BADD1FB685B68002B00D0DAE007
:1058D0003B6AF8680022012100F040F9031E01D064
:1058E000032334E1FB681B68DA68FB689B6B92B2A8
:1058F0001A80FB689B6B9A1CFB689A63FB68DB8FC2
:105900009BB2013B9AB2FB68DA87BCE0FB685B683C
:10591000002B0AD0FB685A6882235B009A4214D19C
:10592000FB68DB8E9BB2012B0FD1FB681B6B591CF4
:10593000FA6811631A78FB681B68DA60FB68DB8E13
:105940009BB2013B9AB2FB68DA86FB68DB8E9BB2A6
:10595000002B00D070E0FB689A6A80239B019A427A
:1059600008D1FB681B681A68FB681B688021490125
:105970000A431A603B6AF8680022012100F0EEF841
:10598000031E01D00323E2E0FB681B68DA68FB68B2
:105990009B6BD2B21A70FB68DB8F9BB2013B9AB251
:1059A000FB68DA876FE03B6AF8680022022100F0AA
:1059B000D5F8031E01D00323C9E0FB681B6B591CFB
:1059C000FA6811631A78FB681B68DA60FB68DB8E83
:1059D0009BB2013B9AB2FB68DA86FB68DB8E9BB216
:1059E000002B0ED1FB689A6A80239B019A4208D152
:1059F000FB681B681A68FB681B68802149010A4321
:105A00001A603B6AF8680022012100F0A7F8031E23
:105A100001D003239BE0FB681B68D868FB689B6B85
:105A2000591CFA689163C2B21A70FB68DB8F9BB293
:105A3000013B9AB2FB68DA87FB68DB8E9BB2002BD6
:105A4000B1D1FB685B68002B1DD13B6AF86800226E
:105A5000012100F083F8031E04D0032377E0C04641
:105A6000FFDFFFFFFB681B68D868FB689B6B591C56
:105A7000FA689163C2B21A70FB68DB8F9BB2013B7C
:105A80009AB2FB68DA87FB689A6A80239B019A4284
:105A900018D13B6AF8680022012100F05FF8031E6C
:105AA00007D0FB685B6D02221A43FB685A6503232B
:105AB0004DE0FB681B68DB689AB216217B181A80E0
:105AC0007B181B883B6AF8680122802100F046F8A9
:105AD000031E07D0FB685B6D20221A43FB685A65E2
